:0330000002300398
:10305C0002305F12306480FE900CA2E4F0A3F0907A
:10306C000CA4E4F0A3F0900CA8E4F0A3F0900CAA4C
:10307C00E4F0A3F0900CB37401F0E4A3F0900CE333
:10308C0074A0F0A3740CF09000001247F0900CB3F5
:10309C00E0FAA3E0FB741F5AFC7D00BC0020BD00CD
:1030AC001DEA4B6019900CACE0FCA3E0FD4C600EEB
:1030BC00900CAEE0FEA3E0FF4E60030231FF124322
:1030CC00ECAA82AB83900CB3EAF0A3EBF0EA4B6072
:1030DC000E741F5AF87900B80005B90002802EC092
:1030EC0002C0037416C0E07454C0E01249C61581C6
:1030FC001581D003D002C002C003742EC0E07454FA
:10310C00C0E01249C615811581D003D002C002C09F
:10311C0003C002C003745CC0E07454C0E01249C622
:10312C00E58124FCF581D003D0028A828B83C00216
:10313C00C003124871A882A983D003D002900CACB2
:10314C00E8F0A3E9F0E84970127461C0E07454C06F
:10315C00E01249C615811581023099C000C0018A60
:10316C00008B01E9C423C8C423541F68C8541FC86A
:10317C0068C8F988828983C002C003124871A8828A
:10318C00A983D003D002900CAEE8F0A3E9F0E84993
:10319C00D001D000702DC000C001749EC0E07454EA
:1031AC00C0E01249C615811581D001D00088248950
:1031BC00257526008524828525838526F012459C5D
:1031CC000230998A828B83124871A882A983900C51
:1031DC00B0E8F0A3E9F0A37400F0E8496003023012
:1031EC009974DBC0E07454C0E01249C61581158196
:1031FC00023099C002C003C004C005C006C00774E9
:10320C0018C0E07455C0E01249C615811581D0076D
:10321C00D006D005D004D003D002C002C003C00435
:10322C00C005C006C007743EC0E07455C0E012492A
:10323C00C615811581D007D006D005D004D003D097
:10324C0002C002C003C004C005C006C0077467C03A
:10325C00E07455C0E01249C615811581D007D0061F
:10326C00D005D004D003D002C002C003C004C005F6
:10327C00C006C00774B2C0E07455C0E01249C61550
:10328C00811581D007D006D005D004D003D002C060
:10329C0002C003C004C005C006C00774DEC0E074E1
:1032AC0055C0E01249C615811581D007D006D0054E
:1032BC00D004D003D0028C2D8D2E8C248D258C2205
:1032CC008D238A278B288E298F2A8A2BEBC423C522
:1032DC002BC423541F652BC52B541FC52B652BC525
:1032EC002BF52CE52B24FFF8E52C34FFF9E82EF513
:1032FC005AE93FF55B855A2F855B308C318D328CCA
:10330C00338D348C358D368A378B388C398D3A8A9F
:10331C003B8B3C8C3D8D3E8C3F8D408C418D428E49
:10332C00438F448E458F468E5C8F5D900CB0E0F5DC
:10333C0047A3E0F548A3E0F54985474A85484B8506
:10334C00494C8C588D5985474D85484E85494F853C
:10335C00475085485185495285475385485485497E
:10336C0055900CA8E0F556A3E0F557C002C00374C5
:10337C0007C0E07456C0E01249C615811581D00310
:10338C00D002C002C0031243E2AC82D003D002755B
:10339C00820AC002C003C0041243D0D004D003D0B0
:1033AC0002ECFD3395E0FE0556E4B556020557C315
:1033BC00742F9D74808EF063F08095F0500BC3EDEC
:1033CC00943BEE648094804034C374409D74808E32
:1033DC00F063F08095F0500BC3ED945AEE6480943A
:1033EC0080401AC374609D74808EF063F08095F0F9
:1033FC00506CC3ED947BEE648094805061C002C02D
:10340C000390561D75F080C002C003C004124360C7
:10341C00D004D003D002900CAAE0FAA3E0FBEA257A
:10342C002DF582EB352EF583ECF0900CAAE0FAA387
:10343C00E0FB900CAAE02401F0A3E03400F0EA25B4
:10344C002DF582EB352EF583E0FAF582C002C00330
:10345C001243D0D003D002D003D002023377BD3F49
:10346C0005BE00028003023A21900012C002C00384
:10347C001244E9D003D002900CA2E0FCA3E0FDC3FF
:10348C00E49C74808DF063F08095F0500BE556C38E
:10349C009CFEE5579DFF80047E007F00C002C003A8
:1034AC00C002C003C006C0077432C0E07456C0E04E
:1034BC001249C615811581D007D006D003D002C0A1
:1034CC0002C003C006C0077432C0E07456C0E012DC
:1034DC0049C615811581D007D006D003D002C00291
:1034EC00C003C006C007745FC0E07456C0E0124948
:1034FC00C615811581D007D006D003D002C002C0FA
:10350C0003C006C007746FC0E07456C0E01249C611
:10351C0015811581D007D006D003D002AA24AB2583
:10352C007C00C002C003C006C007C002C003C004B8
:10353C007481C0E07456C0E07480C0E0124B3AE570
:10354C008124FAF581D007D006D003D002900CAAC2
:10355C00E0FAA3E0FB4AD003D002703BC002C003E8
:10356C00AC22AD237A00C002C003C006C007C00461
:10357C00C005C002749CC0E07456C0E07480C0E00A
:10358C00124B3AE58124FAF581D007D006D003D04E
:10359C0002D003D002804AC002C003900CAAE0FC07
:1035AC00A3E0FD1CBCFF011DEC2524FCED3525FD25
:1035BC007A00C002C003C006C007C004C005C00228
:1035CC00749CC0E07456C0E07480C0E0124B3AE5C5
:1035DC008124FAF581D007D006D003D002D003D0D5
:1035EC0002C002C003C002C003C006C007900CAAF0
:1035FC00E0C0E0A3E0C0E074B5C0E07456C0E012D7
:10360C0049C6E58124FCF581D007D006D003D00251
:10361C00C002C003C006C007900CAAE0C0E0A3E043
:10362C00C0E074D9C0E07456C0E01249C6E58124EC
:10363C00FCF581D007D006D003D002900CAAE0FC98
:10364C00A3E0FDE527C39CFCE5289DFDC002C0035B
:10365C00C006C007C004C005740AC0E07457C0E0BF
:10366C001249C6E58124FCF581D007D006D003D0E1
:10367C0002C002C003C006C0077429C0E07457C062
:10368C00E01249C6E58124FCF581D003D002C002CA
:10369C00C0037432C0E07456C0E01249C6158115DF
:1036AC0081D003D002C002C0037453C0E07457C071
:1036BC00E01249C615811581D003D002C002C003A7
:1036CC007432C0E07456C0E01249C615811581D021
:1036DC0003D002C002C0037432C0E07456C0E012C2
:1036EC0049C615811581D003D002C002C003745F96
:1036FC00C0E07456C0E01249C615811581D003D0C4
:10370C0002C002C0037482C0E07457C0E01249C604
:10371C0015811581D003D002AC29AD2A7A00C002E4
:10372C00C003C004C005C0027481C0E07456C0E080
:10373C007480C0E0124B3AE58124FAF581D003D0B5
:10374C0002900CAAE0FAA3E0FB4AD003D00270333B
:10375C00C002C003AC2FAD307A00C002C003C0045D
:10376C00C005C002749CC0E07456C0E07480C0E018
:10377C00124B3AE58124FAF581D003D002D003D064
:10378C00028031C002C003AC5AAD5B7A00C002C0EB
:10379C0003C004C005C002749CC0E07456C0E07441
:1037AC0080C0E0124B3AE58124FAF581D003D002B7
:1037BC00D003D002C002C003E4C0E0C0E074B5C0C6
:1037CC00E07456C0E01249C6E58124FCF581D003B3
:1037DC00D002C002C003E4C0E0C0E074D9C0E07401
:1037EC0056C0E01249C6E58124FCF581D003D00215
:1037FC00C002C003C02BC02C740AC0E07457C0E0D8
:10380C001249C6E58124FCF581D003D002C002C068
:10381C0003E4C0E0C0E07429C0E07457C0E0124972
:10382C00C6E58124FCF581D003D002C002C003742C
:10383C0032C0E07456C0E01249C615811581D00320
:10384C00D002C002C0037453C0E07457C0E01249E8
:10385C00C615811581D003D002C002C0037494C078
:10386C00E07457C0E07480C0E0124B3A15811581AA
:10387C001581D003D002900CA0E4F0A3F07C007D65
:10388C0000C002C003900CAAE0FAA3E0FBC3EC9AC0
:10389C00ED64808BF063F08095F0D003D002400390
:1038AC0002399AC002C003900CA0E0FAA3E0FB908E
:1038BC000CA074012AF0E43BA3F0900CA0E0FAA356
:1038CC00E0FBC3EA942DEB64809480E433D003D006
:1038DC00026041C002C003EC2533F582ED3534F5AE
:1038EC0083E0FAF582C002C003C004C0051243D0C5
:1038FC00D005D004D003D002758220C002C003C012
:10390C0004C0051243D0D005D004D003D002D0039C
:10391C00D0028072C002C00375820AC002C003C00C
:10392C0004C0051243D0D005D004D003D002758258
:10393C000DC002C003C004C0051243D0D005D00492
:10394C00D003D002900CA0E4F0A3F0EC2531F5826A
:10395C00ED3532F583E0FAF582C002C003C004C035
:10396C00051243D0D005D004D003D002758220C0FC
:10397C0002C003C004C0051243D0D005D004D0034C
:10398C00D002D003D0020CBC00010D02388D900C7B
:10399C00A2E556F0A3E557F0900CAAE0FCA3E0FDDD
:1039AC00ECB53739EDB53835C002C003900CAAE43C
:1039BC00F0A3F0AC35AD367A00900CD0E4F0900C5E
:1039CC00D1E537F0A3E538F08C828D838AF0C00204
:1039DC00C0031245EFD003D002D003D002C002C006
:1039EC0003900CAAE4F0A3F0AC39AD3A7A00900C39
:1039FC00D0E4F0900CD1E53BF0A3E53CF08C828D4B
:103A0C00838AF0C002C0031245EFD003D002D0036A
:103A1C00D002023377BD3D05BE00028003023ED7C3
:103A2C00C002C003900024C002C003124508D0039A
:103A3C00D002C002C0037494C0E07457C0E074801C
:103A4C00C0E0124B3A158115811581D003D002903C
:103A5C000CA6E4F0A3F0AC3DAD3E7A00C002C0036E
:103A6C00C004C005C00274A1C0E07457C0E07480EB
:103A7C00C0E0124B3AE58124FAF581D003D002D094
:103A8C0003D0027C007D00C002C003900CAAE0FAB7
:103A9C00A3E0FBC3EC9AED64808BF063F08095F0AF
:103AAC00D003D0024003023BD2C002C003900CA64C
:103ABC00E0FAA3E0FB900CA674012AF0E43BA3F01F
:103ACC00900CA6E0FAA3E0FBC3EA9411EB6480949B
:103ADC0080E433D003D0026040C002C003EC254127
:103AEC00F582ED3542F583E0FA3395E0FBC002C078
:103AFC0003C004C005C002C00374A8C0E07457C062
:103B0C00E01249C6E58124FCF581D005D004D00330
:103B1C00D002D003D002023BCAC002C00375820A95
:103B2C00C002C003C004C0051243D0D005D004D0DD
:103B3C0003D00275820DC002C003C004C00512433D
:103B4C00D0D005D004D003D002900CA67401F0E4C0
:103B5C00A3F0EC253FFAED3540FB8A008B017E008B
:103B6C00C002C003C004C005C000C001C00674AFD1
:103B7C00C0E07457C0E07480C0E0124B3AE5812479
:103B8C00FAF581D005D004D003D0028A828B83E071
:103B9C00FA3395E0FBC002C003C004C005C002C0EC
:103BAC000374A8C0E07457C0E01249C6E58124FC38
:103BBC00F581D005D004D003D002D003D0020CBCC8
:103BCC0000010D023A93C002C00374B4C0E07457F4
:103BDC00C0E07480C0E0124B3A158115811581D07C
:103BEC0003D002900CA6E4F0A3F0AC43AD447E00ED
:103BFC00C002C003C004C005C00674A1C0E0745765
:103C0C00C0E07480C0E0124B3AE58124FAF581D013
:103C1C0003D0027C007D00C3EC9401ED64809480A1
:103C2C004003023D44900CA6E0FEA3E0FF900CA6DE
:103C3C0074012EF0E43FA3F0900CA6E0FEA3E0FF8D
:103C4C00C3EE9411EF648094805038EC255CF582BF
:103C5C00ED355DF583E0FE3395E0FFC002C003C097
:103C6C0004C005C006C00774A8C0E07457C0E012B9
:103C7C0049C6E58124FCF581D005D004D003D002DF
:103C8C00023D3CC002C00375820AC002C003C004DE
:103C9C00C0051243D0D005D004D003D00275820DDC
:103CAC00C002C003C004C0051243D0D005D004D05C
:103CBC0003D002900CA67401F0E4A3F0EC2545FEB1
:103CCC00ED3546FF8E008F017A00C002C003C004A0
:103CDC00C005C006C007C000C001C00274AFC0E080
:103CEC007457C0E07480C0E0124B3AE58124FAF5B9
:103CFC0081D007D006D005D004D003D0028E828F9D
:103D0C0083E0FE3395E0FAC002C003C004C005C0D6
:103D1C0006C00274A8C0E07457C0E01249C6E58121
:103D2C0024FCF581D005D004D003D002D003D002FE
:103D3C000CBC00010D023C23900CA4E0FCA3E0FDA4
:103D4C00BC0006BD0003023377C002C00374C2C0BE
:103D5C00E07457C0E07480C0E0124B3A15811581B5
:103D6C001581D003D002900CA6E4F0A3F0C002C0E1
:103D7C0003900CB0E0C0E0A3E0C0E0A3E0C0E074AE
:103D8C00A1C0E07457C0E07480C0E0124B3AE581EA
:103D9C0024FAF581D003D0027C007D00900CAAE0BF
:103DAC00FEA3E0FFC3EC9EED64808FF063F0809582
:103DBC00F04003023377900CA6E0FEA3E0FF900CDA
:103DCC00A674012EF0E43FA3F0900CA6E0FEA3E055
:103DDC00FFC3EE9411EF648094805040EC254AFEB2
:103DEC00ED354BFFA84C8E828F8388F01253D9FE91
:103DFC003395E0FFC002C003C004C005C006C00775
:103E0C0074A8C0E07457C0E01249C6E58124FCF5E3
:103E1C0081D005D004D003D002023ECF75820AC0F7
:103E2C0002C003C004C0051243D0D005D004D00397
:103E3C00D00275820DC002C003C004C0051243D06D
:103E4C00D005D004D003D002900CA67401F0E4A3EA
:103E5C00F0EC2547FEED3548FFA849C002C003C071
:103E6C0004C005C006C007C00074AFC0E07457C0E2
:103E7C00E07480C0E0124B3AE58124FAF581D0055C
:103E8C00D004D003D002EC2547FEED3548FFA849FD
:103E9C008E828F8388F01253D9FE3395E0FFC002D7
:103EAC00C003C004C005C006C00774A8C0E07457A6
:103EBC00C0E01249C6E58124FCF581D005D004D0C0
:103ECC0003D0020CBC00010D023DA8BD2A05BE00AA
:103EDC00028003024267C002C003900CB0E0FCA356
:103EEC00E0FDA3E0FEAF58A8597900900CAAE0FAC7
:103EFC00A3E0FB900CD6EFF0A3E8F0A3E9F0900C54
:103F0C00D9EAF0A3EBF08C828D838EF0C002C00353
:103F1C00124647D003D002900CA4E0FCA3E0FDC3F2
:103F2C00E49C74808DF063F08095F0E433D003D082
:103F3C0002600BE556C39CFCE5579DFD80047C009C
:103F4C007D00C002C003C004C0057432C0E07456CA
:103F5C00C0E01249C615811581D005D004D003D01C
:103F6C0002C002C003C004C0057432C0E07456C065
:103F7C00E01249C615811581D005D004D003D002BA
:103F8C00C002C003C004C005745FC0E07456C0E03A
:103F9C001249C615811581D005D004D003D002C0BA
:103FAC0002C003C004C00574CFC0E07457C0E01257
:103FBC0049C615811581D005D004D003D002C002AA
:103FCC00C003C004C005900CB0E0C0E0A3E0C0E0AA
:103FDC00A3E0C0E07481C0E07456C0E07480C0E01F
:103FEC00124B3AE58124FAF581D005D004D003D0E8
:103FFC0002900CAAE0FEA3E0FF4E7035C002C00395
:10400C00C004C005900CB0E0C0E0A3E0C0E0A3E0A9
:10401C00C0E0749CC0E07456C0E07480C0E0124BE9
:10402C003AE58124FAF581D005D004D003D0028082
:10403C0042900CAAE0FEA3E0FF1EBEFF011FEE257E
:10404C004DFEEF354EFFA84FC002C003C004C005A3
:10405C00C006C007C000749CC0E07456C0E07480F9
:10406C00C0E0124B3AE58124FAF581D005D004D09A
:10407C0003D002C002C003C004C005900CAAE0C06B
:10408C00E0A3E0C0E074B5C0E07456C0E01249C6CD
:10409C00E58124FCF581D005D004D003D002C00208
:1040AC00C003C004C005900CAAE0C0E0A3E0C0E0CF
:1040BC0074D9C0E07456C0E01249C6E58124FCF501
:1040CC0081D005D004D003D002900CAAE0FEA3E06E
:1040DC00FFEAC39EFEEB9FFFC002C003C004C005F5
:1040EC00C006C007740AC0E07457C0E01249C6E5A8
:1040FC008124FCF581D005D004D003D002C002C0CD
:10410C0003C004C00574E1C0E07457C0E01249C696
:10411C00E58124FCF581D003D002C002C0037432C7
:10412C00C0E07456C0E01249C615811581D003D089
:10413C0002C002C0037453C0E07457C0E01249C6F9
:10414C0015811581D003D002900CA0E4F0A3F07C73
:10415C00007D00900CAAE0FEA3E0FFC3EE9CEF6490
:10416C00808DF063F08095F0500302425A900CA0C1
:10417C00E0FEA3E0FF900CA074012EF0E43FA3F04E
:10418C00900CA0E0FEA3E0FFC3EE942DEF648094AE
:10419C00805041EC2553FEED3554FFA8558E828F8F
:1041AC008388F01253D9FEF582C002C003C004C04C
:1041BC00051243D0D005D004D003D002758220C0A4
:1041CC0002C003C004C0051243D0D005D004D003F4
:1041DC00D002807275820AC002C003C004C00512EE
:1041EC0043D0D005D004D003D00275820DC002C0DC
:1041FC0003C004C0051243D0D005D004D003D002B4
:10420C00900CA0E4F0A3F0EC2550FEED3551FFA886
:10421C00528E828F8388F01253D9FEF582C002C071
:10422C0003C004C0051243D0D005D004D003D00283
:10423C00758220C002C003C004C0051243D0D00553
:10424C00D004D003D0020CBC00010D02415F900CD5
:10425C00A4E556F0A3E557F0023377BD406DBE00E0
:10426C006A900CACE0FCA3E0FD7E008C828D838E0A
:10427C00F012459C900CAEE0FCA3E0FD7E008C821D
:10428C008D838EF012459C900CB0E0FCA3E0FDA356
:10429C00E0FE8C828D838EF012459C900CA8E4F08D
:1042AC00A3F0900CA2E4F0A3F0900CA4E4F0A3F023
:1042BC00900CB37401F0E4A3F0740BC0E07458C01C
:1042CC00E01249C61581158102309975820DC00224
:1042DC00C003C004C005C0061243D0D006D005D020
:1042EC0004D003D0028C82C002C003C005C00612E9
:1042FC0043D0D006D005D003D00275820AC002C0CC
:10430C0003C005C0061243D0D006D005D003D0029E
:10431C0075820DC002C003C005C0061243D0D00682
:10432C00D005D003D002C002C003C005C006742162
:10433C00C0E07458C0E01249C6E58124FCF581D078
:10434C0003D002023377759850758920758DFDD294
:10435C008ED29922AAF0AB83E582900CB5F0A3EB38
:10436C00F0A3EAF0900CB5E0FAA3E0FBA3E0FC7D2F
:10437C00007E008A828B838CF01253D9FF60300A46
:10438C00BA00010B900CB5EAF0A3EBF0A3ECF08FA4
:10439C0082C002C003C004C005C0061243D0D006C0
:1043AC00D005D004D003D0020DBD00C70E80C49040
:1043BC000CB5EAF0A3EBF0A3ECF00DBD00010E8DF3
:1043CC00828E8322E582900CB8F03099FD900CB867
:1043DC00E0F599C2992210980280FBAA998A822250
:1043EC007424C0E07458C0E01249C615811581745C
:1043FC005DC0E07458C0E01249C6158115817498EF
:10440C00C0E07458C0E01249C61581158174CDC046
:10441C00E07458C0E01249C6158115817400C0E0E3
:10442C007459C0E01249C615811581744BC0E074F3
:10443C0059C0E01249C615811581749BC0E07459AE
:10444C00C0E01249C615811581900CD0E4F0900C97
:10445C00D1740AF0E4A3F0900CB975F0001245EF9A
:10446C007A007B00C002C0031243E2AC82D003D0BE
:10447C0002C374AF8CF063F08095F0501FC3EC64F2
:10448C008094BA50178A058B060ABA00010BED24EA
:10449C00B9F582EE340CF583ECF0802DBC0D028066
:1044AC0028C3EC648094B0400B74B98CF063F0803A
:1044BC0095F05015C00474CBC0E07459C0E012499B
:1044CC00C615811581D0048003BC0D98BC0D0280EB
:1044DC00030243EC900CB975F0000246BDAA83E5CB
:1044EC0082900CC3F0A3EAF0900CC3E0FAA3E0FBBB
:1044FC0090FA00EAF0A3EBF090000022AA83E58288
:10450C00900CC5F0A3EAF0900CC5E0FAA3E0FB9088
:0B451C00FB00EAF0A3EBF0900000228F
:105416000A0D496E636F7272656374206275666603
:1054260065722073697A65000A0D456E746572208F
:105436006275666665722073697A6520696E206595
:1054460076656E206D756C7469706C6573206F6619
:105456002031360A0D0025640A0D004D616C6C6F13
:10546600632062756666657230206661696C656484
:105476002E20506C656173652063686F6F736520BD
:105486006120736D616C6C6572206275666665720B
:105496002073697A650A0D004D616C6C6F6320623A
:1054A600756666657231206661696C65642E20508A
:1054B6006C656173652063686F6F73652061207327
:1054C6006D616C6C657220627566666572207369C3
:1054D6007A650A0D004D616C6C6F632062756666B5
:1054E600657232206661696C65642E20506C656158
:1054F60073652063686F6F7365206120736D616CDF
:105506006C6572206275666665722073697A650AD3
:105516000D000A0A0D27412D7A20612D7A20302DA3
:105526003927202D2053746F726167652063686187
:105536007261637465727300273F27202D204865CA
:105546006170205265706F727420616E6420656DA3
:1055560070747920746865206275666665720A0DD6
:1055660000273D27202D20446973706C61792063E4
:1055760068617261637465727320696E2074686510
:105586002062756666657220616E642070726F7641
:10559600696465207468656972206D656D6F7279DE
:1055A600206C6F636174696F6E0A0D00272A2720CD
:1055B6002D20436F707920636F6E74656E7473204F
:1055C6006F66206275666665723020746F2062753C
:1055D60066666572320A0D00274027202D20486531
:1055E6006170205265706F727420616E6420656D03
:1055F60070747920746865206275666665720A0D36
:10560600000A0A0D456E74657220636861726163F3
:105616007465723A0A0D000A0D436861726163741B
:1056260065722073746F7265640A0D000A0D2D2D64
:105636002D2D2D2D2D2D2D2D2D2D2D2D2D2D2D2D94
:105646002D2D2D2D2D2D2D2D2D2D2D2D2D2D2D2D84
:105656002D2D2D2D2D2D2D2D000A0D486561702027
:105666005265706F72740A0D004275666665723A0D
:1056760020427566666572300A0D0042756666657B
:105686007220537461727420616464726573733A34
:105696002025700A0D0042756666657220456E64A7
:1056A60020416464726573733A2025700A0D0054B4
:1056B6006F74616C20616C6C6F63617465642073D8
:1056C600697A6520696E2062797465733A2025646B
:1056D6000A0D004E756D626572206F662073746FD9
:1056E60072616765206368617261637465727320B5
:1056F600696E20746865206275666665723A202553
:10570600640A0D00467265652073706163652069E1
:105716006E20746865206275666665723A20256437
:105726000A0D004E756D626572206F6620636861B2
:10573600726163746572732073696E6365206C6150
:10574600737420273F273A2025640A0D000A0D2D81
:105756002D2D2D2D2D2D2D2D2D2D2D2D2D2D2D2D73
:105766002D2D2D2D2D2D2D2D2D2D2D2D2D2D2D2D63
:105776002D2D2D2D2D2D2D2D2D0A0D0042756666F4
:1057860065723A20427566666572310A0D000A0D29
:10579600427566666572303A0A0D000A0D25703A42
:1057A60020003078257820200025703A20000A0D48
:1057B600427566666572313A200A0D000A0D427519
:1057C60066666572323A0A0D004275666665723A19
:1057D60020427566666572320A0D004E756D626509
:1057E60072206F66206368617261637465727320EC
:1057F60073696E6365206C61737420272A273A20CB
:1058060025640A0D004275666665727320646561DB
:105816006C6C6F63617465640A0D002564000A0D83
:105826002D2D2D2D2D2D2D2D2D2D2D2D2D2D2D2DA2
:105836002D2D2D2D2D2D2D2D2D2D2D2D2D2D2D2D92
:105846002D2D2D2D2D2D2D2D2D2D2D2D2D2D2D2D82
:105856002D2D2D2D0A0D00546869732070726F6707
:1058660072616D206563686F65732063686172613C
:10587600637465727320656E746572656420667202
:105886006F6D20746865207465726D696E616C0A4F
:105896000D0049742073746F7265732074686520F7
:1058A6002773746F7261676527206368617261632D
:1058B6007465727320696E205852414D2062756678
:1058C600666572300A0D0042756666657273203031
:1058D60020616E6420312077696C6C2062652061DE
:1058E6006C6C6F6361746564206D656D6F72792091
:1058F600696E205852414D0A0D0042756666657202
:1059060020322063616E20626520757365642074A1
:105916006F206D61696E7461696E206120636F70BE
:1059260079206F662073746F7261676520636861A2
:105936007261637465727320696E2062756666654E
:1059460072300A0D00497420697320706F73736991
:10595600626C6520746F2067656E65726174652080
:10596600612068656170207265706F7274206F6661
:10597600207468652073746F72616765206368615F
:105986007261637465727320696E206275666665FE
:1059960072730A0D000A456E74657220627566663A
:1059A60065722073697A65206265747765656E2015
:1059B600333220616E642033323030206279746570
:1059C600733A0A0D000A0D506C6561736520656EA9
:1059D60074657220696E746567657220696E70758C
:1059E600742E205370656369616C2063686172610F
:1059F600637465727320617265206E6F7420616CCA
:095A06006C6F7765642E0A0D0037
:10452700AA83E582900CC9F0A3EAF0900CC9E0FADF
:10453700A3E0FB4A700490000022EA24FCFAEB3463
:10454700FFFB900CE1E0FCA3E0FD900CCBECF0A3AB
:10455700EDF0900CC7E4F0A3F0900CCBE0FCA3E0E7
:10456700FD4C6025EAB50406EBB50502801B900CEF
:10457700C7ECF0A3EDF08C828D83E0FCA3E0FD9007
:104587000CCBECF0A3EDF080D0900CCBE0FAA3E0DD
:104597008A82F58322AAF0AB83E582900CCDF0A343
:1045A700EBF0A3EAF0900CCDE0FAA3E0FBA3E0FC6C
:1045B7008A828B83124527AA82AB83EA4B602890B5
:1045C7000CC7E0FCA3E0FD4C700B8A828B83A3A38E
:1045D700E4F0A3F0228A828B83E0FAA3E0FB8C82CB
:0845E7008D83EAF0A3EBF02242
:06303200E478FFF6D8FD72
:1045EF00AAF0AB83E582900CD3F0A3EBF0A3EAF033
:1045FF00900CD3E0FAA3E0FBA3E0FC900CD0E0FD1D
:10460F00900CD1E0FEA3E0FF8E008F011EBEFF01D4
:10461F001FE84960118A828B838CF0ED1249ADA39C
:10462F00AA82AB8380E2900CD3E0FAA3E0FBA3E075
:10463F00FC8A828B838CF022AAF0AB83E582900CEC
:10464F00DBF0A3EBF0A3EAF0900CDBE0F513A3E0B3
:10465F00F514A3E0F515900CD6E0FDA3E0FEA3E062
:10466F00FF851310851411851512900CD9E0F8A34E
:10467F00E0F98802890318B8FF0119EA4B60258D0C
:10468F00828E838FF01253D9FAA3AD82AE83851039
:10469F00828511838512F0EA1249ADA385821085B8
:0E46AF00831180CE8513828514838515F02239
:103010007900E94400601B7A00905A1A782075A064
:103020000DE493F2A308B8000205A0D9F4DAF27512
:02303000A0FFFF
:1046BD00AAF0AB83E582900CDEF0A3EBF0A3EAF059
:1046CD007A007B00900CDEE0FCA3E0FDA3E0FE8C05
:1046DD00828D838EF01253D9FF6039C374B98FF078
:1046ED0063F08095F04007EF648094B050268C8283
:1046FD008D838EF01253D9FFBF2D028017BF2B0271
:10470D0080120CBC00010D900CDEECF0A3EDF0A3BB
:10471D00EEF080BB900CDEECF0A3EDF0A3EEF08C90
:10472D00828D838EF01253D9FFE4BF2D0104F888DA
:10473D00017003BF2B0E900CDE74012CF0E43DA331
:10474D00F0A3EEF0900CDEE0FCA3E0FDA3E0FE8C08
:10475D00828D838EF01253D9FF6068C3EF6480940D
:10476D00B0406074B98FF063F08095F04055C00192
:10477D00900CF0740AF0E4A3F08A828B83C004C01D
:10478D0005C006C007C001124ACE8582088583097F
:10479D00D001D007D006D005D004EF3395E0F8EF67
:1047AD0024D0FFE834FFF8EF2508FAE83509FB0CB3
:1047BD00BC00010D900CDEECF0A3EDF0A3EEF0D0FB
:1047CD0001808C900CDEECF0A3EDF0A3EEF0E9602F
:1047DD0009C3E49AFCE49BFD80048A048B058C825A
:1047ED008D8322AA83E582900CE5F0A3EAF0900C6C
:1047FD00E5E0FAA3E0FB900CE7EAF0A3EBF0EA4B5F
:10480D007020900CE774012AF0E43BA3F0900CE3C8
:10481D00E0FAA3E0FB1ABAFF011B900CE3EAF0A348
:10482D00EBF0900CE7E0FAA3E0FB900CE1EAF0A3CB
:10483D00EBF0900CE3E0FCA3E0FDEC2AFCED3BFD7E
:10484D00EC24FEFCED34FFFD8A828B83ECF0A3EDAE
:10485D00F08C828D83E4F0A3F08A828B83A3A3E492
:10486D00F0A3F022AA83E582900CE9F0A3EAF09080
:10487D000CE9E0FAA3E0FBC374FB9A74FF9B5004B0
:10488D0090000022900CE974042AF0E43BA3F09010
:10489D000CE1E0FAA3E0FB900CEBEAF0A3EBF09057
:1048AD000CE9E0F510A3E0F511900CEBE0FCA3E0B2
:1048BD00FD8C828D83E0FEA3E0FF8E008F018C02C4
:1048CD008D03E8C39AF8E99BF98C828D83A3A3E04D
:1048DD00FAA3E0FBE8C39AF8E99BF9C3E89510E960
:1048ED009511400D900CED74042CF0E43DA3F08077
:1048FD0023900CEBEEF0A3EFF0900CEBE0FAA3E0BD
:10490D00FB8A828B83E0FAA3E0FB4A709C900CED4E
:10491D00E4F0A3F0900CEDE0FAA3E0FB4A70030283
:10492D0049A1900CEBE0FAA3E0FB74022AFCE43BF6
:10493D00FD8C828D83E0FEA3E0FF4E7013900CE999
:10494D00E0F8A3E0F98C828D83E8F0A3E9F08044D0
:10495D00EE2AFEEF3BFF8A828B83E0FCA3E0FD8E07
:10496D00828F83ECF0A3EDF08A828B83EEF0A3EFC0
:10497D00F074022EFAE43FFB900CE9E0FCA3E0FD9D
:10498D008A828B83ECF0A3EDF0900CED74042EF085
:10499D00E43FA3F0900CEDE0FAA3E08A82F58322C8
:1049AD0020F71030F6118883A88220F507F6A8832A
:1049BD0075830022F280F7F022C00A85810AE50A8C
:1049CD0024FDF8868318868218E493A324DB600CFB
:1049DD0024256005124AB380F0024ACBD2D5E49368
:1049ED00A3C083C082B4731486F0188683188682A0
:1049FD00181253D96053A3124AB380F5B46307E676
:104A0D0018124AB38043B46417E630E74618E6F44B
:104A1D002401F608E6F43400F6742D124AB38033FF
:104A2D00B4782D868318868218E4124AA4E5831281
:104A3D004AA3E583124AA4E582124AA3E582124AEB
:104A4D00A430D5057430124AB3D082D0830249D632
:104A5D00B475F6E6FA18E6F9187C107D27124A8E21
:104A6D00FF7CE87D03124A8EC4F5837C647D0012C1
:104A7D004A8E4283E975F00A84C445F0F582EF80D1
:104A8D00A97B000BC3E99CF9EA9DFA50F61BE92CB2
:104A9D00F9EA3DFAEB22C4540F700320D51FC2D59D
:104AAD002490D43440D4C083C082C0F0F582E8C0D5
:104ABD00E01243D0D0E0F8D0F0D082D08322D00ADB
:104ACD0022AA83AB828BF0900CF0E0A4F8A9F08AB7
:104ADD00F0E0A429F98BF0A3E0A429F583888222C4
:014AED0022A6
:103038007800E84400600A790075A000E4F309D834
:10304800FC7820E8440D600C790E900000E4F0A3B1
:04305800D8FCD9FACD
:104AEE00C00A85810AAA821243D0D00A22AAF0AB4C
:104AFE0083E582900CF3F0A3EBF0A3EAF0900CF3B5
:104B0E00E0FAA3E0FBA3E0FC900CF2E0FD900D06B2
:104B1E00E4F0A3F0A3F0900D09EAF0A3EBF0A3EC00
:104B2E00F0900D0CEDF0904AEE024C53C00A8581C8
:104B3E000AE50A24FBFA900D06E4F0A3F0A3F0E5D3
:104B4E000A24FBF8900D09E6F008A3E6F008A3E6A8
:104B5E00F0900D0CEAF0904AEE124C53AA82AB8301
:104B6E00D00A22E582900D02F0900D02E0FA900C30
:104B7E00F8E0C0E0A3E0C0E0A3E0C0E0749FC0E0B6
:104B8E00744BC0E0900CF6E0C0E0A3E0C0E08A8277
:104B9E0022158115811581900D00E0FAA3E0FB909E
:104BAE000D0074012AF0E43BA3F022E582900D0380
:104BBE00F0900D03E0FA74302AFA24C6500A7407F6
:104BCE002AFA3000034302208A82024B71E582905A
:104BDE000D04F0900D04E0FAC4540FFBF582C002F0
:104BEE00124BB9D00253020F8A82024BB9E5829062
:104BFE000D05F0900CFBE0FAA3E0FBA3E0FCA3E0B4
:104C0E00FD900CFFE0FE900D05E0FF7820EE2EFEED
:104C1E00ED235401F94206EA2AFAEB33FBEC33FC9E
:104C2E00ED33FDC3EE9F4007EEC39FFE430201D856
:104C3E00DC900CFBEAF0A3EBF0A3ECF0A3EDF0900C
:104C4E000CFFEEF022AA83E582900D0DF0A3EAF0A0
:104C5E00900D0DE0FAA3E0FB900CF6EAF0A3EBF05A
:104C6E00900D06E0FAA3E0FBA3E0FC900CF8EAF04E
:104C7E00A3EBF0A3ECF0900D00E4F0A3F0900D097F
:104C8E00E0FAA3E0FBA3E0FC8A828B838CF0125344
:104C9E00D9FD900D0974012AF0E43BA3F0A3ECF0CA
:104CAE00ED700302537ABD25028003025372C201D6
:104CBE00C202C203C204C205C206C207C208900DD8
:104CCE000FE4F0900D10F0900D1174FFF0900D099F
:104CDE00E0FAA3E0FBA3E0FC8A828B838CF01253F4
:104CEE00D9FEA3AA82AB83900D09EAF0A3EBF0A341
:104CFE00ECF0900D13EEF0BE25088E82124B710271
:104D0E004C8B8E07BF300040498E07EF24C64042C1
:104D1E00900D11E0FFBFFF29C002C003C004900D2B
:104D2E0010E0FA75F00AA4FAEE24D0900D102AF0D5
:104D3E00900D10E0FAD004D003D002709BD2028006
:104D4E0097EF75F00AA4FFEE24D0900D112FF0020C
:104D5E004CE6900D13E0FEBE2E08900D11E4F0020D
:104D6E004CE68E82C002C003C004C0061253F9E5A1
:104D7E008224FF9200D006D004D003D00230000768
:104D8E00900D1374DF5EF0900D13E0FEBE200280D6
:104D9E0055BE2B02804BBE2D028041BE4202804B7F
:104DAE00BE43028050BE4403024FE7BE460302508C
:104DBE0009BE4903024FE7BE4C028034BE4F0302C8
:104DCE004FF1BE5003024F49BE53028042BE5503FF
:104DDE00024FF9BE580302500102500DD201024C8F
:104DEE00E6D203024CE6D204024CE6D206024CE6B0
:104DFE00D207024CE6900D0CE0FA24FEF8900D0C52
:104E0E00F08602088603188A82124B71025019909E
:104E1E000D0CE0FA24FDF8900D0CF08602088603C6
:104E2E000886041818900CFBEAF0A3EBF0A3ECF044
:104E3E00900CFBE0FAA3E0FBA3E0FC8A828B838C50
:104E4E00F0125386AA82AB83900D11E0FBBBFF05D7
:104E5E00900D11EAF0200138900D10E0FBC3EA9B93
:104E6E00502E900D10EBC39AF0900D10E0FB8B04BA
:104E7E001B900D10EBF0BC00028010758220C0025A
:104E8E00C003124B71D003D00280E3900D10EBF0F3
:104E9E00900D11E0FDC002900CFBE0FCA3E0FFA31F
:104EAE00E0FA8C828F838AF01253D9D00260538D30
:104EBE00041DC374808CF063F08095F05044C002E2
:104ECE00900CFBE0F50BA3E0F50CA3E0F50D7401DF
:104EDE00250BFBE4350CFAAC0D900CFBEBF0A3EAC2
:104EEE00F0A3ECF0850B82850C83850DF01253D95F
:104EFE00FAF582C002C005124B71D005D002D00265
:104F0E008093200103025019900D10E0FBC3EA9B21
:104F1E004003025019900D10EBC39AF0900D10E063
:104F2E00FA8A031A900D10EAF0BB000302501475B2
:104F3E008220C002124B71D00280E6900D0CE0FB75
:104F4E0024FDF8900D0CF0860308860408860718D9
:104F5E0018900CFBEBF0A3ECF0A3EFF0900CFDE03F
:104F6E00FB247F5008900D137443F08020EB249F98
:104F7E005008900D137450F08013EB24BF5008901E
:104F8E000D137449F08006900D137458F0900D13A4
:104F9E00E0FBF582C003124B71D00375823AC00359
:104FAE00124B71D003758230C003124B71D0037552
:104FBE008278C003124B71D003BB4902800FBB50E5
:104FCE0002800A900CFCE0FBF582124BDB900CFB8E
:104FDE00E0FBF582124BDB8032D205900D0F740A86
:104FEE00F08028900D0F7408F08020900D0F740A39
:104FFE00F08018900D0F7410F08010D208800C8E77
:10500E0082124B718005900D10EAF030086B900DF6
:10501E000CE0FA24FCF8900D0CF0860208860308CA
:10502E008604088606181818900CFBEAF0A3EBF01D
:10503E00A3ECF0A3EEF0900CFB740FF0A3745AF0F7
:10504E00A37480F0900CFBE0FBA3E0FCA3E0FD74E6
:10505E00012BFEE43CFF8D02900CFBEEF0A3EFF073
:10506E00A3EAF08B828C838DF01253D9FA7003026F
:10507E004C8B8A82124B7180CB900D0FE0FABA00E6
:10508E0003024C8B900D1A7419F0A3740DF03006B8
:10509E004C900D0CE0FA14F8900D0CF08602EA33E9
:1050AE0095E0FBFCFE900CFBEAF0A3EBF0A3ECF01A
:1050BE00A3EEF0300503025161900CFBE0FAA3E081
:1050CE00FBA3E0FCA3E0FE7B007C007E00900CFBCB
:1050DE00EAF0A3EBF0A3ECF0A3EEF0807630072A13
:1050EE00900D0CE0FA24FCF8900D0CF08602088668
:1050FE0003088604088606181818900CFBEAF0A31D
:10510E00EBF0A3ECF0A3EEF08049900D0CE0FA2446
:10511E00FEF8900D0CF0860208860318EB3395E02E
:10512E00FCFE900CFBEAF0A3EBF0A3ECF0A3EEF088
:10513E00200520900CFBE0FAA3E0FBA3E0FCA3E02B
:10514E00FE7C007E00900CFBEAF0A3EBF0A3ECF0EB
:10515E00A3EEF030053E900CFBE0FAA3E0FBA3E0DB
:10516E00FCA3E0FE30E72B900CFBE0FAA3E0FBA3E0
:10517E00E0FCA3E0FEC3E49AFAE49BFBE49CFCE4AF
:10518E009EFE900CFBEAF0A3EBF0A3ECF0A3EEF086
:10519E008002C205D209900D0FE0FC750E19750F35
:1051AE000D7D00900CFFE4F08C82C004C005124B04
:1051BE00FBD005D004200932C004900CFFE0FFC4E0
:1051CE00FF850E82850F83E0FA4207850E82850FDA
:1051DE0083EFF0150E74FFB50E02150F900D1AE544
:1051EE000EF0A3E50FF0D004800C900CFFE0FF85CD
:1051FE000E82850F83F00D900D12EDF0B209900C1A
:10520E00FBE0FFA3E0FAA3E0FEA3E0FBEF4A4E4B68
:10521E007091900D1AE50EF0A3E50FF0900D12EDC2
:10522E00F0900D10E0FA7006900D107401F020024F
:10523E002720012474012DFA900D10E0FBC3EA9B88
:10524E005011758220C002C003124B71D003D002E0
:10525E001B80EA900D10EBF030051275822D124B6B
:10526E0071900D10E0FA14900D10F0802F900D1229
:10527E00E0FA602830031275822B124B71900D10DC
:10528E00E0FA14900D10F080133004107582201285
:10529E004B71900D10E0FA14900D10F020012F902C
:1052AE000D12E0FA900D10E0FB8B041B900D10EB2D
:1052BE00F0C3EA9C50363002047C3080027C208C95
:1052CE0082C002C003124B71D003D00280DB900D5E
:1052DE0010E0FA900D12E0FCC39A5009900D10EAFE
:1052EE00C39CF0800C900D10E4F08005900D10EB37
:1052FE00F0900D1AE0FAA3E0FB900D12E0FC8C0684
:10530E001CEE6040B2092009150ABA00010B8A8210
:10531E008B83E0FEC4540FFE900CFFF0800E8A8249
:10532E008B83E0FE53060F900CFFEEF0900CFFE027
:10533E00FEF582C002C003C004124BB9D004D003E4
:10534E00D00280BA200103024C8B900D10E0FA8A35
:10535E00031AEB7003024C8B758220C002124B7144
:10536E00D00280EB8D82124B71024C8B900D00E0BF
:08537E00FAA3E08A82F5832204
:0B5A0F003C4E4F20464C4F41543E00DF
:10538600AAF0AB83E582900D1CF0A3EBF0A3EAF044
:105396007A007B00900D1CE0FCA3E0FDA3E0FE8CF0
:1053A600828D838EF01253D9FFA3AC82AD83900D0C
:1053B6001CECF0A3EDF0A3EEF0EF60070ABA00DFF5
:1053C6000B80DC900D1CECF0A3EDF0A3EEF08A82CE
:0353D6008B8322A4
:0D30030075815D1253F5E582600302305FB8
:1053D90020F71430F6148883A88220F507E6A883FD
:1053E90075830022E280F7E49322E022758200228D
:1053F900E582900D1FF0900D1FE0FABA6100400997
:0D540900EA2485400475820122758200228C
:00000001FF
