:0C00AA00E582900007F0900007E0FA905B
:0700B6000003F012022B12FF
:0700BD0001D2D2A0D2A22261
:0E00C400C2A490000A12016FD2A4900000E4C2
:0C00D200F0900001F09000027442F01267
:0800DE0001A2900000E4F09083
:0A00E6000001F09000027443F012D4
:0800F00001A2900000E4F09071
:0A00F8000001F09000027440F012C5
:0901020001A29000007414F090B9
:0B010B000001E4F09000027441F012CB
:0601160001A21201D290CB
:09011C0000027480F012021412BA
:0601250001D21201D2908C
:09012B00000274A0F0120214128B
:0601340001D21201D2907D
:09013A0000027494F01202141288
:0901430001D290019012024290D9
:09014C000000E4F0900001F090C5
:0901550000027424F01201A21250
:09015E0001D290000274B0F0120D
:0801670002141201D2D2A222FF
:0E016F00AA83E582900008F0A3EAF090000851
:09017D00E0FAA3E0FB7C007D0028
:0B018600C3EC9AED9B50147E647F00D8
:050191001EBEFF011F6E
:0B019600EE4F70F70CBC00E80D80E598
:0101A100223B
:0901A2001201D2900000E0FA9075
:0701AB000003F012022B1209
:0801B20001D2900001E0FA9077
:0701BA000003F012022B12FA
:0E01C10001D2D2A3C2A2D2A1900002E0F5802A
:0301CF00C2A022A9
:0E01D200D2A3C2A2D2A0C2A17580FF900001EC
:0C01E00012016F90000112016FD2A122E9
:0E01EC00D2A3C2A2D2A0C2A17580FF900001D2
:0601FA0012016FD2A122E8
:0E020000C2A3C2A27580FFD2A0C2A1900004CA
:06020E00E580F0D2A12200
:0E021400D2A3C2A2D2A1C2A0900002E0F58047
:0902220090000112016FD2A0222C
:0E022B00C2A3C2A2D2A1C2A0900003E0F5803F
:0902390090000112016FD2A02215
:0E024200AA83E58290000AF0A3EAF090000083
:0D025000E4F0900001F09000027424F01220
:06025D0001A21201D29083
:09026300000274B0F01202141242
:08026C0001D2900005E4F090BE
:0B02740000067420F0900003E4F090FE
:0B027F00000AE0FAA3E0FB7C007D0019
:0E028A00C3EC9AED64808BF063F08095F05029
:0E0298002DC002C003C004C0051201ECD00549
:0E02A600D004D003D002C002C003C004C005C3
:0E02B40012022BD005D004D003D0020CBC00E7
:0402C200C70D80C420
:0A02C6001201D290000274B2F0128F
:0502D00002140201D23E
:0C02D500E58290000DF0900000E4F09035
:0A02E1000001F09000027440F012DA
:0602EB0001A21201D290F5
:0902F100000DE0FA900000F0900D
:0902FA00000CE0FA900001F09004
:0903030000027421F01201A202B3
:02030C0001D21C
:0E030E00AAF0AB83E58290000EF0A3EBF0A303
:0E031C00EAF090000EE0FAA3E0FBA3E0FC7D07
:03032A00007E0052
:0E032D00ED2AFFEE3BF88C018F82888389F069
:0E033B001226DAFF60518D078E000DBD000105
:010349000EA5
:0E034A00EF2AFFE83BF88C018F82888389F050
:0E0358001226DAFFF582C002C003C004C00501
:0E036600C006120393AF82D006D005D004D09B
:0E03740003D0028F82C002C003C004C005C0C7
:0E038200061200AAD006D005D004D003D00287
:02039000809B50
:010392002248
:0E039300E582900011F0900011E0FAC3648042
:0E03A10094C1401574DA8AF063F08095F04044
:0B03AF000AEA24E0900012F002044172
:0E03BA00900011E0FAC3648094E1401574FADB
:0D03C8008AF063F08095F0400AEA24E0908E
:0603D5000012F0020441D9
:0E03DB00900011E0FAC3648094B0401474B92D
:0D03E9008AF063F08095F04009EA24E0906E
:0503F6000012F080463A
:0E03FB00900011E0FAC3648094A0401474AF27
:0D0409008AF063F08095F04009EA24E0904D
:050416000012F0802639
:0E041B00900011E0FAC3648094BA401474C0DB
:0D0429008AF063F08095F04009EA24E0902D
:050436000012F0800639
:06043B00900012745FF056
:07044100900012E0F5822299
:0400000002004E327A
:01000B0032C2
:0100130032BA
:01001B0032B2
:0100230032AA
:01002B0032A2
:01003300329A
:01003B003292
:01004300328A
:03004B0002097F28
:0300A70002044808
:0504480012045780FEC4
:0A044D00538EFD438EC09000012283
:070457001209F6121A2A1225
:0E045E0000C4D2AFD2A8C28912111475A0FF3B
:04046C00D2A2D2A0A6
:090470007413C0E07427C0E0120F
:0B0479001BAB158115817454C0E074AA
:0B04840027C0E0121BAB15811581742E
:08048F0093C0E07427C0E012E5
:0B0497001BAB1581158174D2C0E0740E
:0B04A20027C0E0121BAB158115817410
:0804AD00E8C0E07427C0E01272
:0B04B5001BAB158115817401C0E074C1
:0B04C00028C0E0121BAB1581158174F1
:0804CB0029C0E07428C0E01212
:0B04D3001BAB158115817451C0E07453
:0B04DE0028C0E0121BAB1581158174D3
:0804E90063C0E07428C0E012BA
:0B04F1001BAB15811581748BC0E074FB
:0B04FC0028C0E0121BAB158115811217
:090507001ABAAA82BA310280205E
:05051000BA3202807800
:06051500BA330302062DBB
:06051B00BA34030207A43C
:06052100BA35030206E1F9
:06052700BA36030209359B
:03052D0002047055
:0905300074A9C0E07428C0E012B7
:0B0539001BAB1581158174C8C0E07475
:0B05440028C0E0121BAB1581158112CE
:0A054F000A02AA82900018EAF012D6
:0A0559000A02AA82900017EAF012CD
:0A0563000A02AA82900016EAF012C4
:0E056D000A02AA82900015EAF0E0FAA3E0FB71
:0D057B00A3E0FCA3E0FD8A828B838CF012CC
:05058800136402047081
:09058D0074FAC0E07428C0E01209
:0B0596001BAB158115817413C0E074CD
:0B05A10029C0E0121BAB158115811270
:0A05AC000A02AA8290001CEAF01275
:0A05B6000A02AA8290001BEAF0126C
:0A05C0000A02AA8290001AEAF01263
:0A05CA000A02AA82900019EAF074F8
:0805D4004BC0E07429C0E012E5
:0E05DC001BAB15811581121ABAAA82C00274D7
:0805EA0079C0E07429C0E012A1
:0E05F2001BAB15811581D002900019E0FBA310
:0E060000E0FCA3E0FDA3E0FE900064EBF0A39D
:0E060E00ECF0A3EDF0A3EEF08A8212159C74BE
:08061C008CC0E07429C0E0125B
:090624001BAB1581158102047065
:09062D0074A1C0E07429C0E012C0
:0B0636001BAB1581158174CCC0E07473
:0B06410029C0E0121BAB1581158112CF
:0A064C000A02AA82900020EAF012D0
:0A0656000A02AA8290001FEAF012C7
:0A0660000A02AA8290001EEAF012BE
:0A066A000A02AA8290001DEAF07453
:08067400EBC0E07429C0E012A4
:0C067C001BAB15811581120A02AA8290A6
:0A0688000024EAF0120A02AA829090
:0A0692000023EAF0120A02AA829087
:0A069C000022EAF0120A02AA82907E
:0E06A6000021EAF090001DE0FAA3E0FBA3E0C3
:0E06B400FCA3E0FD900021E0FEA3E0FFA3E028
:0E06C200F8A3E0F9900075EEF0A3EFF0A3E8C6
:0E06D000F0A3E9F08A828B838CF0ED12173BC9
:0306DE00020470A3
:0906E1007408C0E0742AC0E012A4
:0B06EA001BAB158115817427C0E07464
:0B06F5002AC0E0121BAB15811581121A
:0A0700000A02AA82900028EAF01213
:0A070A000A02AA82900027EAF0120A
:0A0714000A02AA82900026EAF01201
:0A071E000A02AA82900025EAF07496
:0807280048C0E0742AC0E01291
:0C0730001BAB15811581120A02AA8290F1
:0A073C00002CEAF0120A02AA8290D3
:0A074600002BEAF0120A02AA8290CA
:0A075000002AEAF0120A02AA8290C1
:09075A000029EAF0746EC0E0749D
:0B0763002AC0E0121BAB15811581902D
:0E076E000025E0FAA3E0FBA3E0FCA3E0FD9071
:0E077C000029E0FEA3E0FFA3E0F8A3E0F9905F
:0E078A000048EEF0A3EFF0A3E8F0A3E9F08A38
:0C079800828B838CF0ED1210A102047023
:0907A4007483C0E0742AC0E01265
:0B07AD001BAB1581158174A0C0E07427
:0B07B8002AC0E0121BAB1581158174F4
:0807C300C8C0E0742AC0E01276
:0B07CB001BAB1581158174D9C0E074D0
:0B07D6002AC0E0121BAB1581158174D6
:0807E100E9C0E0742AC0E01237
:0E07E9001BAB15811581121ABAAA82BA310211
:0207F700800E72
:0507F900BA3202806F1E
:0607FE00BA33030208CF2C
:030804000204707B
:040807007A007B00F8
:0E080B00C3EA9405EB648094804003020470FD
:0E08190090009C7440F0A37401F08A828B83DF
:0E082700C002C003121CB3AC82AD83D003D05C
:0E08350002ED3395E0FEFF74402DFD74043E8D
:0E084300FEE43FFF8C828D838EF0C002C00366
:07085100121277D003D00260
:0E0858003089FDC002C0031200C4D003D002DC
:070866000ABA00A10B809EFD
:04086D007A007B0092
:0E087100C3EA9401EB6480948040030204709B
:0E087F0090009C7440F0A37401F08A828B8379
:0E088D00C002C003121CB3AC82AD83D003D0F6
:0E089B0002ED3395E0FEFF74052EFEE43FFFF4
:0E08A9008C828D838EF0C002C003121277D0B5
:0308B70003D00269
:0E08BA003089FDC002C0031200C4D003D0027A
:0708C8000ABA00A50B80A293
:0408CF007A007B0030
:0E08D300C3EA9403EB64809480400302047037
:0E08E10090009C7440F0A37401F08A828B8317
:0E08EF00C002C003121CB3AC82AD83D003D094
:0E08FD0002ED3395E0FEFF74C02DFD74043E45
:0E090B00FEE43FFF8C828D838EF0C002C0039D
:07091900121277D003D00297
:0E0920003089FDC002C0031200C4D003D00213
:07092E000ABA00A10B809E34
:0909350074FAC0E0742AC0E0125B
:0D093E001BAB15811581900013E4F0A3F0B0
:0E094B00900013E0FAA3E0FBC3EA9403EB6410
:08095900809480400302047049
:050961000ABA00010BC1
:0E0966008A828B83C002C003120E00D003D021
:0B09740002900013EAF0A3EBF080CC2F
:0E097F00C0E0C0F0C082C083C002C003C0044C
:0E098D00C005C006C007C000C001C0D075D0B4
:08099B0000AAC4BA1002801882
:0509A300BA40028024AF
:0C09A800BA8030900032E5C5F0D200901B
:0709B40000641219F7802016
:0909BB00741EC0E0742BC0E012B0
:0809C4001BAB15811581800FAA
:0909CC00742BC0E0742BC0E01292
:0609D5001BAB158115812A
:0E09DB00D0D0D001D000D007D006D005D00477
:0D09E900D003D002D083D082D0F0D0E03215
:0C09F600E5C375C30043C31043B10422E5
:0E0A0200900095E4F09000967402F0E4A3F0EA
:0A0A100090003075F000121B3A90C0
:0A0A1A00002DE4F0A3F07A007B0049
:0E0A2400C3EA9402EB648094804003020AD47B
:0E0A3200C002C003121ABAAC82D003D002C3B5
:0E0A400074AF8CF063F08095F0E433FD600835
:080A4E00C3EC648094BB402E50
:0E0A5600C374E08CF063F08095F0E433FE6032
:090A640008C3EC648094E740171C
:0E0A6D00C374C08CF063F08095F0E433FF603A
:090A7B0016C3EC648094C7500E10
:0A0A8400EA2430F582EB3400F5831C
:040A8E00ECF08032D6
:0B0A9200ED6008C3EC648094BB4027BB
:0B0A9D00EE6008C3EC648094E7401C8E
:0B0AA800EF6008C3EC648094C74011AD
:090AB300743DC0E0742BC0E01298
:080ABC001BAB158115818010B0
:050AC4000ABA00010B5D
:0B0AC90090002DEAF0A3EBF0020A24DD
:0E0AD40090002DE0FAA3E0FBC3EA9402EB646D
:080AE2008094805003020A0217
:090AEA0090002FE4F07A007B007B
:0E0AF300C3EA9402EB648094804003020DF984
:0A0B0100EA2430FCEB3400FD8C8286
:0E0B0B008D83E0FEC3648094B0404F74B98EB9
:0E0B1900F063F08095F04044EE24D0FE8C8214
:0E0B27008D83F0EA4B70188C828D83E0FEC443
:0E0B350054F0FE90002FE0FF90002FEE2FF006
:030B4300020DF1AF
:080B4600BA0105BB00028003A7
:030B4E00020DF1A4
:0E0B51008C828D83E0FC90002FE0FD90002F41
:060B5F00EC2DF0020DF187
:0A0B6500EA2430F582EB3400F5833A
:0C0B6F00E0FCC3648094C15003020CBC85
:0D0B7B00C374C68CF063F08095F050030247
:020B88000CBCA3
:050B8A00BC4102801FC8
:050B8F00BC420280479A
:050B9400BC4302806F6C
:060B9900BC4403020C3510
:060B9F00BC4503020C62DC
:060BA500BC4603020C8FA8
:030BAB00020DF147
:0E0BAE00EA4B700F90002FE0FD90002F74A016
:050BBC002DF0020DF117
:080BC100BA0105BB000280032C
:030BC900020DF129
:0D0BCC0090002FE0FD90002F740A2DF00224
:020BD9000DF11C
:0E0BDB00EA4B700F90002FE0FD90002F74B0D9
:050BE9002DF0020DF1EA
:080BEE00BA0105BB00028003FF
:030BF600020DF1FC
:0D0BF90090002FE0FD90002F740B2DF002F6
:020C06000DF1EE
:0E0C0800EA4B700F90002FE0FD90002F74C09B
:050C16002DF0020DF1BC
:080C1B00BA0105BB00028003D1
:030C2300020DF1CE
:0D0C260090002FE0FD90002F740C2DF002C7
:020C33000DF1C1
:0E0C3500EA4B700F90002FE0FD90002F74D05E
:050C43002DF0020DF18F
:080C4800BA0105BB00028003A4
:030C5000020DF1A1
:0D0C530090002FE0FD90002F740D2DF00299
:020C60000DF194
:0E0C6200EA4B700F90002FE0FD90002F74E021
:050C70002DF0020DF162
:080C7500BA0105BB0002800377
:030C7D00020DF174
:0D0C800090002FE0FD90002F740E2DF0026B
:020C8D000DF167
:0E0C8F00EA4B700F90002FE0FD90002F74F0E4
:050C9D002DF0020DF135
:080CA200BA0105BB000280034A
:030CAA00020DF147
:0D0CAD0090002FE0FD90002F740F2DF0023D
:020CBA000DF13A
:0B0CBC00C3EC648094E15003020DF1D2
:0D0CC700C374E68CF063F08095F0500302DA
:020CD4000DF120
:050CD600BC6102801F5B
:050CDB00BC620280472D
:050CE000BC6302806FFF
:060CE500BC6403020D8156
:060CEB00BC6503020DA729
:060CF100BC6603020DCDFC
:030CF700020DF1FA
:0E0CFA00EA4B700F90002FE0FC90002F74A0CA
:050D08002CF0020DF1CA
:080D0D00BA0105BB00028003DE
:030D1500020DF1DB
:0D0D180090002FE0FC90002F740A2CF002D8
:020D25000DF1CE
:0E0D2700EA4B700F90002FE0FC90002F74B08C
:050D35002CF0020DF19D
:080D3A00BA0105BB00028003B1
:030D4200020DF1AE
:0D0D450090002FE0FC90002F740B2CF002AA
:020D52000DF1A1
:0E0D5400EA4B700F90002FE0FC90002F74C04F
:050D62002CF0020DF170
:080D6700BA0105BB0002800384
:030D6F00020DF181
:0D0D720090002FE0FC90002F740C2CF0027C
:020D7F000DF174
:0E0D8100EA4B700E90002FE0FC90002F74D013
:040D8F002CF0805E66
:0E0D9300BA015BBB005890002FE0FC90002FCF
:060DA100740D2CF0804AE5
:0E0DA700EA4B700E90002FE0FC90002F74E0DD
:040DB5002CF0803866
:0E0DB900BA0135BB003290002FE0FC90002FF5
:060DC700740E2CF08024E4
:0E0DCD00EA4B700E90002FE0FC90002F74F0A7
:040DDB002CF0801266
:0E0DDF00BA010FBB000C90002FE0FC90002F1B
:040DED00740F2CF063
:050DF1000ABA00010B2D
:030DF600020AF3FB
:070DF90090002FE0F58222BB
:0E2713000A0D2D2D2D2D2D2D2D2D2D2D2D2D85
:0E2721002D2D2D2D2D2D2D2D2D2D2D2D2D2D34
:0E272F002D2D2D2D2D2D2D2D2D2D2D2D2D2D26
:0E273D002D2D2D2D2D2D2D2D2D2D2D2D2D2D18
:09274B002D2D2D2D2D2D0A0D0060
:0E2754002D2D2D2D2D2D2D2D2D2D2D2D2D2D01
:0E2762002D2D2D2D2D2D2D2D2D2D2D2D2D2DF3
:0E2770002D2D2D2D2D2D2D2D2D2D2D2D2D2DE5
:0E277E002D2D2D2D2D2D2D2D2D2D2D2D2D2DD7
:07278C002D2D2D2D0A0D007B
:0E2793002D2D2D2D2D2D2D2D2D2D2D2D2D2DC2
:0E27A1002D4D454D4F52592043415244205278
:0E27AF004541444552204150504C494341544D
:0E27BD00494F4E2D2D2D2D2D2D2D2D2D2D2D39
:0727CB002D2D2D2D0A0D003C
:0E27D2000A0D53656C65637420616E206F7094
:0827E00074696F6E3A0A0D00E6
:0E27E8000A0D31202D204D656D6F7279204352
:0B27F60061726420526561640A0D00EE
:0E2801000A0D32202D20536563746F7220463D
:0E280F00696C6C202D204D656D6F7279204331
:0C281D006172642057726974650A0D0036
:0E2829000A0D33202D204865782044756D700F
:0E283700202D204D756C7469706C65207365E2
:0C28450063746F7220726561640A0D00FC
:0E2851000A0D34202D2046696C652052656109
:04285F00640A0D00FA
:0E2863000A0D35202D20436F707920646174BA
:0E287100612062797465732062657477656515
:0C287F006E20736563746F72730A0D00A5
:0E288B000A0D36202D2046696C6520696E66A8
:0E2899006F726D6174696F6E206D656E750AE9
:0228A7000D0022
:0E28A9000A0D456E7465726564204D656D6F95
:0E28B70072792052656164206F7074696F6ED3
:0328C5000A0D00F9
:0E28C8000A0D456E74657220736563746F723D
:0E28D600206164647265737320283420627977
:0E28E4007465732920746F207265616420662C
:0828F200726F6D3A200A0D001F
:0E28FA000A0D456E7465726564205365637443
:0B2908006F722046696C6C200A0D0005
:0E2913000A0D456E74657220736563746F72F1
:0E292100206164647265737320746F206265B8
:0E292F00207772697474656E20746F206D6578
:0E293D006D6F727920636172643A200A0D009A
:0E294B000A0D456E746572206461746120741B
:0E2959006F206265207772697474656E207459
:0E2967006F206D656D6F727920636172643A46
:04297500200A0D0027
:0E2979000A0D57726974696E672044617461BB
:052987002E2E2E2E0093
:0E298C000A0D577269746520636F6D706C657B
:07299A0074652E2E2E2E00A5
:0E29A1000A0D4865782064756D70202D204D5C
:0E29AF00756C7469706C6520736563746F726B
:0E29BD002072656164206F7074696F6E0A0D80
:0129CB00000B
:0E29CC000A0D456E746572207374617274207A
:0E29DA00736563746F72206164647265737359
:0329E8000A0D00D5
:0E29EB000A0D456E74657220656E642073657A
:0E29F90063746F7220616464726573730A0DFB
:012A070000CE
:0E2A08000A0D456E7465726564204D656D6F34
:0E2A1600727920636F7079206F7074696F6E33
:032A24000A0D0098
:0E2A27000A0D456E74657220736F75726365DB
:0E2A350020736563746F722061646472657350
:052A4300733A0A0D00CA
:0E2A48000A0D456E7465722064657374696EC4
:0E2A56006174696F6E20736563746F72206126
:0A2A64006464726573733A0A0D0092
:0E2A6E000A0D436F7079696E672064617461B0
:072A7C002E2E2E3A0A0D0078
:0E2A83000A0D456E74657265642046696C65C7
:0E2A91002052656164206F7074696F6E0A0DCB
:012A9F000036
:0E2AA0000A0D53656C65637420612066696CD5
:0E2AAE006520746F20726561642066726F6D22
:0C2ABC0020534420436172643A0A0D006C
:0E2AC80031202D20616E696B65742E74787458
:032AD6000A0D00E6
:0E2AD90032202D204C696E6B732E7478740AB7
:022AE7000D00E0
:0E2AE90033202D207075726475652E7478741C
:032AF7000A0D00C5
:0E2AFA000A0D456E74657265642046696C6550
:0E2B080020496E666F726D6174696F6E206F8A
:082B16007074696F6E0A0D0076
:0D2B1E004D6F6465206661756C740A0D00D2
:0E2B2B004F76657272756E207461736B696E01
:042B3900670A0D001A
:0E2B3D000A0D506C6561736520656E746572DB
:0E2B4B002068657861646563696D616C20695E
:0E2B59006E7075742E205370656369616C2078
:0E2B67006368617261637465727320617265E8
:0E2B7500206E6F7420616C6C6F7765642E0AA1
:022B83000D0043
:0E0E0000AA83E582900042F0A3EAF09000423F
:0D0E0E00E0FAA3E0FB8A828B83120F91743F
:080E1B0085C0E0742BC0E01259
:0A0E23001BAB158115817A007B00DE
:0E0E2D00C3EA940BEB6480948050459000342F
:0E0E3B00E0FCA3E0FDA3E0FEEA2CFCEB3DFD95
:0E0E49008C828D838EF01226DAFC7D00C002B2
:0B0E5700C003C004C0057493C0E07429
:0C0E62002BC0E07480C0E0121E3BE58154
:0E0E6E0024FBF581D003D0020ABA00B30B803A
:010E7C00B0C5
:090E7D007496C0E0742BC0E01271
:0B0E86001BAB158115817499C0E0744E
:0C0E91002BC0E07480C0E0121E3B1581F5
:080E9D00158115817A007B002C
:0E0EA500C3EA9404EB648094805041900037BF
:0E0EB300E0FCA3E0FDA3E0FEEA2CFCEB3DFD1D
:0E0EC1008C828D838EF01226DAFC7D00C0023A
:0B0ECF00C003C004C00574A6C0E0749E
:0C0EDA002BC0E0121BABE58124FCF5816D
:0B0EE600D003D0020ABA00B70B80B4A2
:090EF1007496C0E0742BC0E012FD
:070EFA001BAB1581158122DD
:0E0F0100AA83E582900044F0A3EAF090004439
:0E0F0F00E0FAA3E0FBEA2A25E0FB7A00339526
:0E0F1D00E0FCFD74042CFCE43DFD8A828B8315
:0A0F2B008CF012136474A9C0E07486
:0C0F35002BC0E07480C0E0121E3B158150
:080F4100158115817A007B0087
:0E0F4900C3EA9440EB64809481503C90003ADF
:0E0F5700E0FCA3E0FDEA2CF582EB3DF583E023
:0C0F6500FC7D00C002C003C004C0057485
:0A0F710093C0E0742BC0E07480C050
:0E0F7B00E0121E3BE58124FBF581D003D0027D
:070F89000ABA00BC0B80B99D
:010F9000223E
:0E0F9100AA83E582900046F0A3EAF0900046A5
:0D0F9F00E0FAA3E0FBBA0105BB00028010E0
:080FAC00BA0205BB000280251A
:080FB400BA035ABB0057803A52
:0E0FBC00900075745FF0A374C0F0A37403F08E
:0E0FCA00A3E4F090C04075F003E412173B80E2
:010FD80038E0
:0E0FD90090007574FFF0A374C0F0A37403F0D1
:0E0FE700A3E4F090C0E075F003E412173B8025
:010FF5001BE0
:0E0FF600900075747FF0A374C1F0A37403F033
:0D100400A3E4F090C16075F003E412173B07
:041011007A007B00E6
:0E101500C3EA940BEB64809480503390003457
:0E102300E0FCA3E0FDA3E0FEEA2CFCEB3DFDAB
:0E10310090003AE0FFA3E0F8EA2FF582EB38DA
:0E103F00F583E0FF8C828D838EF0121B920AE7
:06104D00BA00C50B80C2D1
:041053007A007B00A4
:0E105700C3EA9404EB64809480503E9000370E
:0E106500E0FCA3E0FDA3E0FEEA2CFCEB3DFD69
:0A107300741C2AF508E43BF509900F
:0C107D00003AE0F9A3E0FFE50829F58245
:0C108900E5093FF583E0FF8C828D838E2B
:0B109500F0121B920ABA00BA0B80B7E1
:0110A000222D
:0E10A100AA82AB83ACF0FD90004CEAF0A3EB0A
:0E10AF00F0A3ECF0A3EDF090004CE0FAA3E00B
:0E10BD00FBA3E0FCA3E0FD8A828B838CF01283
:0D10CB00136490003CE0FAA3E0FB7C009071
:0E10D800003AE0FDA3E0FE90008DEDF0A3EEE7
:0E10E600F0A37400F0900090E4F0A37402F008
:0E10F4008A828B838CF0121AC4900048E0FAB6
:0E110200A3E0FBA3E0FCA3E0FD8A828B838CBC
:04111000F002165F74
:0711140043C3407A087B0091
:0E111B00C002C0031219EED003D0021ABAFFB0
:02112900011BA8
:0A112B00EA4B70ECC2947A027B00DC
:0E113500C002C0031219EED003D0021ABAFF96
:02114300011B8E
:0E114500EA4B70EC1219EEC2941219EE75C549
:01115300405B
:0511540010000280FB09
:041159007A007B009D
:0E115D00C374039A74808BF063F08095F040A9
:09116B000F75C5000ABA00010B62
:0511740010000280FBE9
:0211790080E212
:03117B0075C595A2
:05117E0010000280FBDF
:061183001219EE1219EE34
:0A118900900033E0FA604A75C5419A
:0511930010000280FBCA
:041198007A007B005E
:0E119C00C374039A74808BF063F08095F0406A
:0911AA000F75C5000ABA00010B23
:0511B30010000280FBAA
:0211B80080E2D3
:0411BA007A037B0039
:0E11BE00C002C0031219EED003D0021ABAFF0D
:0211CC00011B05
:0C11CE00EA4B70EC9000051219F780AF9E
:0311DA0075C57A5E
:0511DD0010000280FB80
:0411E2007A007B0014
:0E11E600C374039A74808BF063F08095F04020
:0911F4000F75C5000ABA00010BD9
:0511FD0010000280FB60
:0212020080E288
:071204001219EE7A067B00CF
:0E120B00C002C0031219EED003D002900032D0
:0B121900E0FC900033F01ABAFF011B4C
:07122400EA4B70E375C54DB4
:05122B0010000280FB31
:041230007A007B00C5
:0E123400C374039A74808BF063F08095F040D1
:091242000F75C5000ABA00010B8A
:05124B0010000280FB11
:0212500080E23A
:041252007A047B009F
:0E125600C002C0031219EED003D0021ABAFF74
:02126400011B6C
:0E126600EA4B70EC900032E0FA900033F0900A
:0312740000002255
:0E127700AA82AB83ACF0FD900050EAF0A3EB2E
:0E128500F0A3ECF0A3EDF0900050E0FAA3E02F
:0E129300FBA3E0FCA3E0FD900054EAF0A3EB07
:0D12A100F0A3ECF0A3EDF01219EE75C551AD
:0512AE0010000280FBAE
:0412B3007A037B003F
:0B12B700EB20E719EA2454F582EB3429
:0B12C20000F583E0F5C51ABAFF011B20
:0512CD0010000280FB8F
:0212D20080E3B7
:0A12D4001219EE1219EE7A047B00E5
:0E12DE00C002C0031219EED003D0021ABAFFEC
:0212EC00011BE4
:0812EE00EA4B70EC7A407B0131
:0E12F600C002C0031219EED003D002ACC57DB9
:0C13040000C002C003C004C00574BDC0DE
:0C131000E0742BC0E0121BABE58124FC54
:0E131C00F581D003D002ACC58C82C002C003A4
:0E132A00120393AC82D003D0028C82C002C0AA
:0D133800031200AAD003D0021ABAFF011B55
:07134500EA4B70AD7A04FBD6
:0E134C00C002C0031219EED003D0021ABAFF7D
:02135A00011B75
:08135C00EA4B70EC75820122DE
:0E136400AA82AB83ACF0FD900058EAF0A3EB38
:0E137200F0A3ECF0A3EDF0900058E0FAA3E039
:0E138000FBA3E0FCA3E0FD900060EAF0A3EB0D
:0D138E00F0A3ECF0A3EDF01219EE75C551BF
:05139B0010000280FBC0
:0413A0007A037B0051
:0B13A400EB20E719EA2460F582EB342F
:0B13AF0000F583E0F5C51ABAFF011B32
:0513BA0010000280FBA1
:0213BF0080E3C9
:0413C1007A067B002D
:0E13C500C002C0031219EED003D0021ABAFF04
:0213D300011BFC
:0E13D500EA4B70EC900061E0FA7B001ABAFF60
:0213E300011BEC
:0E13E50090005CEAF0A3EBF0900061E0FA905B
:0B13F300005EF0A3E4F0900062E090C8
:0B13FE000063E0900060E0FA7B0090CC
:0E1409000061E0FC7D00900062E0FE7F00903C
:0E1417000063E0F87900C002C003C004C00505
:0C142500C006C007C000C00174C8C0E0D1
:0C143100742BC0E07480C0E0121E3BE58C
:0E143D008124F5F58190005EE0FAA3E0FB7CCF
:03144B00007D0021
:0B144E00C3ED6480948240030215800F
:0E145900C002C003C004C0051219EED005D0B9
:0E14670004D003D002AEC5900005C002C00341
:0E147500C004C005C0061219F7D006D005D07D
:0E14830004D003D00290003AE0FFA3E0F8ECA2
:0E1491002FF582ED38F583EEF090005CE0FE62
:0E149F00A3E0FF90005C74012EF0E43FA3F088
:0B14AD00BC000FBD010C0ABA00010BCF
:0714B80090005CE4F0A3F0DA
:0E14BF0090009E7410F0E4A3F08C828D83C028
:0E14CD0002C003C004C005121CD3E582858353
:0E14DB00F0D005D004D003D00245F07063BC01
:0714E9000005BD0002805B5D
:0E14F00075820AC002C003C004C005121AA80B
:0E14FE00D005D004D003D00275820DC002C00C
:0E150C0003C004C005121AA8D005D004D003F5
:0E151A00D002AEC57F00C002C003C004C005F1
:0A152800C006C00774DFC0E0742B9A
:0E153200C0E07480C0E0121E3BE58124FBF592
:0B15400081D005D004D003D002802D24
:0E154B00AEC57F00C002C003C004C005C006CC
:0A155900C00774DFC0E0742BC0E08F
:0E1563007480C0E0121E3BE58124FBF581D0B0
:0715710005D004D003D002F5
:051578000CBC00010D98
:03157D0002144E07
:041580007A047B006E
:0E158400C002C0031219EED003D0021ABAFF43
:02159200011B3B
:08159400EA4B70EC75820122A4
:0E159C00E582900068F0900064E0FAA3E0FBA6
:0E15AA00A3E0FCA3E0FD900069EAF0A3EBF0E3
:0C15B800A3ECF0A3EDF01219EE75C5587D
:0515C40010000280FB95
:0415C9007A037B0026
:0B15CD00EB20E719EA2469F582EB34FB
:0B15D80000F583E0F5C51ABAFF011B07
:0515E30010000280FB76
:0215E80080E39E
:0415EA007A047B0004
:0E15EE00C002C0031219EED003D0021ABAFFD9
:0215FC00011BD1
:0D15FE00EA4B70EC900068E0FA7B007C0086
:0A160B00C3EC64809482500E8AC57F
:0516150010000280FB43
:07161A000BBB00ED0C80EAA0
:031621001219EEAD
:0C1624001219EEAAC5C00274E8C0E07400
:0C1630002BC0E0121BAB15811581D0020D
:06163C00530201BA01E2B5
:081642001219EE74F0C0E0740F
:0C164A002BC0E0121BAB15811581E5C51B
:0916560060EA1219EE758201220E
:0E165F00AA82AB83ACF0FD90006DEAF0A3EB25
:0E166D00F0A3ECF0A3EDF090006DE0FAA3E026
:0E167B00FBA3E0FCA3E0FD900071EAF0A3EBFE
:0D168900F0A3ECF0A3EDF01219EE75C558BA
:0516960010000280FBC2
:04169B007A037B0053
:0B169F00EB20E719EA2471F582EB3420
:0B16AA0000F583E0F5C51ABAFF011B34
:0516B50010000280FBA3
:0216BA0080E3CB
:0416BC007A047B0031
:0E16C000C002C0031219EED003D0021ABAFF06
:0216CE00011BFE
:0616D000EA4B70ECFAFB8E
:0E16D600C3EB64809482501F90003CE0FCA3A4
:0D16E400E0FDEA2CF582EB3DF583E0F5C555
:0516F10010000280FB67
:0716F6000ABA00DC0B80D9E9
:0316FD001219EED1
:0C1700001219EEAAC5C00274E8C0E07423
:0C170C002BC0E0121BAB15811581D00230
:06171800530201BA01E2D8
:08171E001219EE74F0C0E07432
:0C1726002BC0E0121BAB15811581E5C53E
:0917320060EA1219EE7582012231
:0E173B00AA82AB83ACF0FD900079EAF0A3EB3C
:0E174900F0A3ECF0A3EDF0900079E0FAA3E03D
:0E175700FBA3E0FCA3E0FD90007FEAF0A3EB13
:0E176500F0A3ECF0A3EDF0900075E0FEA3E021
:0E177300FFA3E0F8A3E0F9900083EEF0A3EFEF
:0C178100F0A3E8F0A3E9F0EEC39AF50A2B
:0A178D00EF9BF50BE89CF50CE99DBD
:05179700F50D75C550C1
:05179C0010000280FBBB
:0717A10090007DE4F0A3F0CD
:0E17A80090007DE0FEA3E0FFC374039E7480FA
:0E17B6008FF063F08095F04030BE0218BF0047
:0E17C4001575C50290007D74012EF0E43FA360
:0117D200F026
:0517D30010000280FB84
:0217D80080CEC1
:0E17DA0075C50090007D74012EF0E43FA3F071
:0517E80010000280FB6F
:0217ED0080B9C1
:0417EF007E037F00F6
:0E17F300C006C0071219EED007D0061EBEFFBA
:02180100011FC5
:0A180300EE4F70EC1219EE75C5529D
:05180D0010000280FB49
:041812007E037F00D2
:0B181600EF20E719EE247FF582EF348D
:0B18210000F583E0F5C51EBEFF011FAF
:05182C0010000280FB2A
:0218310080E352
:0A1833001219EE1219EE7E047F0078
:0E183D00C006C0071219EED007D0061EBEFF6F
:02184B00011F7B
:0D184D00EE4F70EC900081E0900082E09082
:0E185A00007FE0FE7F00900080E0F8790090B3
:0E1868000081E0FA7B00900082E0FC7D00C071
:0E18760006C007C000C001C002C003C004C00D
:0A1884000574C8C0E0742BC0E074C6
:0E188E0080C0E0121E3BE58124F5F5817E004E
:02189C007F00CB
:0C189E008E00EFF93395E0FAFBC3E895EB
:0618AA000AE9950BEA9526
:0718B0000CEB950D40030253
:0218B700198393
:0E18B900C006C0071219EED007D006AAC590CF
:0E18C7000005C002C006C0071219F7D007D0F6
:0E18D50006D00290003AE0FBA3E0FCEE2BF5FB
:0E18E30082EF3CF583EAF090009E7410F0E472
:0E18F100A3F08E828F83C006C007121CD3E5C1
:0E18FF00828583F0D007D00645F0704BBE0006
:06190D0005BF000280434B
:0E19130075820AC006C007121AA8D007D006B7
:0E19210075820DC006C007121AA8D007D006A6
:0D192F00AAC57B00C006C007C002C003743B
:0A193C00DFC0E0742BC0E07480C02F
:0E194600E0121E3BE58124FBF581D007D006A0
:021954008025EC
:0D195600AAC57B00C006C007C002C0037414
:0A196300DFC0E0742BC0E07480C008
:0E196D00E0121E3BE58124FBF581D007D00679
:05197B000EBE00010F8B
:0319800002189EAC
:071983001219A27A047B0097
:0E198A00C002C0031219EED003D0021ABAFF39
:02199800011B31
:08199A00EA4B70EC758201229A
:0319A20075C54CBC
:0519A50010000280FBB0
:0419AA007A007B0044
:0E19AE00C374039A74808BF063F08095F04050
:0919BC000F75C5000ABA00010B09
:0519C50010000280FB90
:0219CA0080E2B9
:0419CC007A037B001F
:0E19D000C002C0031219EED003D0021ABAFFF3
:0219DE00011BEB
:0E19E000EA4B70EC900032E0FA900033F022F7
:0319EE0075C5FFBD
:0519F10010000280FB64
:0119F60022CE
:0E19F700AA83E582900087F0A3EAF0900087B3
:091A0500E0FAA3E0FB7C007D0087
:0B1A0E00C3EC9AED9B50147E647F0037
:051A19001EBEFF011FCD
:0B1A1E00EE4F70F70CBC00E80D80E5F7
:011A2900229A
:0E2B85000A0D46696C65204E616D653A2000B0
:032B9300256300B7
:032B96000A0D0025
:0D2B99000A0D46696C652053697A653A00A3
:032BA6002578008F
:0E2BA9000A0D4461746120726563656976658A
:062BB700643A200A0D0043
:0B2BBD00446174613A2025780A0D0085
:0E2BC8000A0D253032782530327825303278EB
:092BD600253032783A200A0D0086
:092BDF0030782530327820200006
:082BE80030784646300A0D006A
:082BF00030784646310A0D0061
:0E1A2A00759850438920758DFDD28ED2992279
:0E1A3800AAF0AB83E582900089F0A3EBF0A347
:0E1A4600EAF0900089E0FAA3E0FBA3E0FC7D4B
:031A5400007E0011
:0E1A57008A828B838CF01226DAFF60300ABA86
:031A650000010B72
:0E1A6800900089EAF0A3EBF0A3ECF08F82C0AF
:0E1A760002C003C004C005C006121AA8D006A4
:0E1A8400D005D004D003D0020DBD00C70E80E7
:011A9200C48F
:0E1A9300900089EAF0A3EBF0A3ECF00DBD008B
:021AA100010E34
:051AA3008D828E8322FC
:061AA800E58290008CF0C5
:0C1AAE003099FD90008CE0F599C299225F
:051ABA0010980280FB02
:051ABF00AA998A8222B1
:06007D00E478FFF6D8FD57
:0E1AC400AAF0AB83E582900092F0A3EBF0A3B2
:0B1AD200EAF0900092E0F517A3E0F5A9
:061ADD0018A3E0F51990CA
:0C1AE300008DE0FDA3E0FEA3E0FF8517EE
:031AEF0014851843
:031AF2001585193E
:091AF50016900090E0F8A3E0F95E
:091AFE008802890318B8FF0119E0
:0E1B0700EA4B60258D828E838FF01226DAFA6B
:0A1B1500A3AD82AE8385148285150E
:0B1B1F00838516F0EA121B92A385825A
:061B2A001485831580CE36
:071B300085178285188385EB
:031B370019F02280
:0E1B3A00AAF0AB83E582900098F0A3EBF0A335
:0E1B4800EAF0900098E0FAA3E0FBA3E0FC9026
:0C1B56000095E0FD900096E0FEA3E0FF8B
:091B62008E008F011EBEFF011F61
:0E1B6B00E84960118A828B838CF0ED121B9288
:071B7900A3AA82AB8380E206
:0E1B8000900098E0FAA3E0FBA3E0FC8A828BC1
:041B8E00838CF02232
:08005B007900E94400601B7A02
:0500630000902C037861
:03006800D575A0AB
:0A006B0000E493F2A308B8000205B8
:08007500A0D9F4DAF275A0FF36
:0E1B920020F71030F6118883A88220F507F6A0
:051BA000A8837583001D
:011BA500221D
:031BA600F280F7D3
:021BA900F02228
:051BAB00C00E85810E53
:0B1BB000E50E24FDF8868318868218DD
:0E1BBB00E493A324DB600C24256005121C9823
:021BC90080F0AA
:031BCB00021CB049
:091BCE00D2D5E493A3C083C082C8
:031BD700B47314D0
:091BDA0086F01886831886821833
:0B1BE3001226DA6053A3121C9880F554
:0A1BEE00B46307E618121C98804348
:0E1BF800B46417E630E74618E6F42401F60858
:0C1C0600E6F43400F6742D121C988033B4
:0A1C1200B4782D868318868218E44A
:0B1C1C00121C89E583121C88E583126E
:0A1C27001C89E582121C88E5821278
:0A1C31001C8930D5057430121C9890
:071C3B00D082D083021BBB25
:031C4200B475F680
:061C4500E6FA18E6F918AA
:0D1C4B007C107D27121C73FF7CE87D0312C6
:0E1C58001C73C4F5837C647D00121C734283F0
:0D1C6600E975F00A84C445F0F582EF80A90D
:021C73007B00F4
:0E1C75000BC3E99CF9EA9DFA50F61BE92CF925
:051C8300EA3DFAEB222E
:011C8800C497
:071C8900540F700320D51F6A
:081C9000C2D52490D43440D4E5
:0E1C9800C083C082C0F0F582E8C0E0121AA836
:091CA600D0E0F8D0F0D082D08328
:011CAF002212
:031CB000D00E2231
:0E1CB300AA83AB828BF090009CE0A4F8A9F00D
:0E1CC1008AF0E0A429F98BF0A3E0A429F583B2
:041CCF0088822222C3
:0E1CD300AA83E5829000A0F0A3EAF09000A0A2
:0E1CE100E0FAA3E0FB30E709C3E49AFCE49BC1
:031CEF00FD800471
:041CF2008A048B05D0
:0E1CF6008C028D0390009EE0FCA3E0FD30E721
:0A1D040009C3E49CFEE49DFF800487
:041D0E008C068D07AB
:0D1D12009000A2EEF0A3EFF08A828B831206
:0E1D1F001D41AA82AB839000A0E0FCA3E0FD72
:0E1D2D0030E70CC3E49AFCE49BFD8C828D83AE
:011D3B002285
:051D3C008A828B832266
:0E1D4100AA83E5829000A4F0A3EAF09000A629
:0C1D4F00E4F09000A4E0FAA3E0FB7C00AC
:0E1D5B009000A2E0FDA3E0FE235401FF7037CC
:0E1D6900EECD25E0CD33FE9000A2EDF0A3EE0E
:0E1D7700F09000A2E0FDA3E0FEC3EA9DEB9E0B
:0E1D85005011EEC313CD13CDFE9000A2EDF071
:051D9300A3EEF0800842
:081D98000C9000A6ECF080BBEA
:051DA0009000A6E0FA2E
:0E1DA5009000A4E0FBA3E0FC9000A2E0FDA3F0
:0E1DB300E0FEC3EB9DEC9E400B9000A4EBC342
:061DC1009DF0EC9EA3F072
:0E1DC7009000A2E0FBA3E0FCC313CB13CBFC07
:0E1DD5009000A2EBF0A3ECF08A031AEB70C2B0
:0C1DE3009000A4E0FAA3E08A82F58322BD
:080083007800E84400600A79EE
:03008B000075A05D
:06008E0000E4F309D8FCB8
:0800940078D5E84400600C7906
:0B009C0001900000E4F0A3D8FCD9FAAA
:081DEF00C00E85810EAA8212CC
:051DF7001AA8D00E2225
:0E1DFC00AAF0AB83E5829000A8F0A3EBF0A361
:0E1E0A00EAF09000A8E0FAA3E0FBA3E0FC9051
:0E1E180000A7E0FD9000BBE4F0A3F0A3F09063
:0E1E260000BEEAF0A3EBF0A3ECF09000C1EDDB
:071E3400F0901DEF021F54A6
:061E3B00C00E85810EE5DA
:0C1E41000E24FBFA9000BBE4F0A3F0A319
:0C1E4D00F0E50E24FBF89000BEE6F00863
:0D1E5900A3E6F008A3E6F09000C1EAF090C7
:0A1E66001DEF121F54AA82AB83D0B7
:021E70000E2240
:0C1E7200E5829000B7F09000B7E0FA9015
:0E1E7E0000ADE0C0E0A3E0C0E0A3E0C0E0746F
:081E8C00A0C0E0741EC0E0904C
:0C1E940000ABE0C0E0A3E0C0E08A8222C6
:0E1EA0001581158115819000B5E0FAA3E0FBD5
:0C1EAE009000B574012AF0E43BA3F02280
:0E1EBA00E5829000B8F09000B8E0FA74302A8B
:0C1EC800FA24C6500A74072AFA300103FD
:031ED400430220A6
:051ED7008A82021E7268
:0E1EDC00E5829000B9F09000B9E0FAC4540F0E
:0E1EEA00FBF582C002121EBAD00253020F8A0C
:041EF80082021EBA8A
:0E1EFC00E5829000BAF09000B0E0FAA3E0FB9F
:0E1F0A00A3E0FCA3E0FD9000B4E0FE9000BA5E
:041F1800E0FF78204E
:0E1F1C00EE2EFEED235401F94206EA2AFAEBFE
:0E1F2A0033FBEC33FCED33FDC3EE9F4007EEBE
:061F3800C39FFE430201FD
:0E1F3E00D8DC9000B0EAF0A3EBF0A3ECF0A327
:081F4C00EDF09000B4EEF0226C
:0E1F5400AA83E5829000C2F0A3EAF09000C2DA
:0E1F6200E0FAA3E0FB9000ABEAF0A3EBF090F6
:0E1F700000BBE0FAA3E0FBA3E0FC9000ADEAAA
:0E1F7E00F0A3EBF0A3ECF09000B5E4F0A3F0BC
:0E1F8C009000BEE0FAA3E0FBA3E0FC8A828B8B
:0E1F9A00838CF01226DAFD9000BE74012AF04E
:0D1FA800E43BA3F0A3ECF0ED700302267BF8
:051FB500BD25028003C0
:031FBA0002267389
:051FBD00C202C203C2D4
:041FC20004C205C28E
:041FC60006C207C286
:041FCA0008C20990B0
:091FCE0000C4E4F09000C5F0909D
:0E1FD70000C674FFF09000BEE0FAA3E0FBA38A
:021FE500E0FC1E
:0E1FE7008A828B838CF01226DAFEA3AA82ABCC
:0D1FF500839000BEEAF0A3EBF0A3ECF090A7
:0D20020000C8EEF0BE25088E82121E72028C
:02200F001F8C24
:052011008E07BF300046
:0E20160040498E07EF24C640429000C6E0FF0E
:0E202400BFFF29C002C003C0049000C5E0FA4F
:0E20320075F00AA4FAEE24D09000C52AF090B2
:0D20400000C5E0FAD004D003D002709BD29E
:03204D0003809776
:0E205000EF75F00AA4FFEE24D09000C62FF02A
:03205E00021FE777
:0E2061009000C8E0FEBE2E089000C6E4F0021B
:02206F001FE769
:0E2071008E82C002C003C004C0061226F6E52F
:0C207F008224FF9201D006D004D003D0D0
:0B208B00023001079000C874DF5EF017
:0A2096009000C8E0FEBE2002805555
:0520A000BE2B02804B85
:0520A500BE2D02804188
:0520AA00BE4202804B64
:0520AF00BE4302805059
:0620B400BE44030222E815
:0620BA00BE460302230AEA
:0620C000BE49030222E804
:0520C600BE4C02803455
:0620CB00BE4F030222F2E9
:0620D100BE500302224A8A
:0520D700BE530280422F
:0620DC00BE55030222FACA
:0620E200BE5803022302B8
:0320E80002230EC2
:0520EB00D202021FE714
:0520F000D204021FE70D
:0520F500D205021FE707
:0520FA00D207021FE700
:0520FF00D208021FE7FA
:0E2104009000C1E0FA24FEF89000C1F08602BF
:0C211200088603188A82121E7202231A2B
:0E211E009000C1E0FA24FDF89000C1F08602A6
:0E212C0008860308860418189000B0EAF0A395
:0E213A00EBF0A3ECF09000B0E0FAA3E0FBA302
:0E214800E0FC8A828B838CF0122687AA82AB81
:0E215600839000C6E0FBBBFF059000C6EAF0D8
:0C2164002002389000C5E0FBC3EA9B504D
:0D2170002E9000C5EBC39AF09000C5E0FB77
:0D217D008B041B9000C5EBF0BC000280102D
:0E218A00758220C002C003121E72D003D00264
:0221980080E3E2
:05219A009000C5EBF010
:05219F009000C6E0FD08
:0E21A400C0029000B0E0FCA3E0FFA3E0FA8CC4
:0E21B200828F838AF01226DAD00260538D04E9
:0E21C0001DC374808CF063F08095F05044C015
:0A21CE00029000B0E0F50FA3E0F569
:0821D80010A3E0F511740125CC
:0721E0000FFBE43510FAAC1F
:0C21E700119000B0EBF0A3EAF0A3ECF0C4
:0721F300850F828510838532
:0C21FA0011F01226DAFAF582C002C005CE
:0B220600121E72D005D002D00280939F
:0622110020020302231A63
:0D2217009000C5E0FBC3EA9B400302231AC0
:0C2224009000C5EBC39AF09000C5E0FAF2
:0E2230008A031A9000C5EAF0BB0003022315D2
:0C223E00758220C002121E72D00280E6E1
:0E224A009000C1E0FB24FDF89000C1F0860377
:0E22580008860408860718189000B0EBF0A363
:0E226600ECF0A3EFF09000B2E0FB247F5008F4
:082274009000C87443F08020C3
:0D227C00EB249F50089000C87450F08013B0
:0D228900EB24BF50089000C87449F0800697
:062296009000C87458F02E
:0E229C009000C8E0FBF582C003121E72D00352
:0E22AA0075823AC003121E72D003758230C0D6
:0E22B80003121E72D003758278C003121E72CC
:0722C600D003BB4902800FA9
:0522CD00BB5002800A75
:0A22D2009000B1E0FBF582121EDC63
:0C22DC009000B0E0FBF582121EDC8032A6
:0A22E800D2069000C4740AF08028AA
:0822F2009000C47408F0802084
:0822FA009000C4740AF0801882
:082302009000C47410F080107B
:04230A00D209800C68
:07230E008E82121E72800591
:052315009000C5EAF094
:0C231A0030096B9000C1E0FA24FCF89040
:0E23260000C1F08602088603088604088606B9
:0E2334001818189000B0EAF0A3EBF0A3ECF03C
:0B234200A3EEF09000B074F8F0A3745C
:06234D002BF0A37480F0E8
:0E2353009000B0E0FBA3E0FCA3E0FD74012BC2
:0E236100FEE43CFF8D029000B0EEF0A3EFF022
:0E236F00A3EAF08B828C838DF01226DAFA70CE
:04237D0003021F8CAC
:072381008A82121E7280CB5C
:0B2388009000C4E0FABA0003021F8CB2
:082393009000CF74CEF0A3749A
:06239B0000F030074C9039
:0E23A10000C1E0FA14F89000C1F08602EA33A1
:0E23AF0095E0FBFCFE9000B0EAF0A3EBF0A37B
:0B23BD00ECF0A3EEF0300603022462F7
:0E23C8009000B0E0FAA3E0FBA3E0FCA3E0FE6F
:0E23D6007B007C007E009000B0EAF0A3EBF0EC
:0823E400A3ECF0A3EEF08076FB
:0C23EC0030082A9000C1E0FA24FCF890B0
:0E23F80000C1F08602088603088604088606E7
:0E2406001818189000B0EAF0A3EBF0A3ECF069
:05241400A3EEF0804979
:0E2419009000C1E0FA24FEF89000C1F08602A7
:0E24270008860318EB3395E0FCFE9000B0EA47
:0C243500F0A3EBF0A3ECF0A3EEF0200607
:0E244100209000B0E0FAA3E0FBA3E0FCA3E0D3
:0E244F00FE7C007E009000B0EAF0A3EBF0A34C
:05245D00ECF0A3EEF01D
:0C24620030063E9000B0E0FAA3E0FBA3BF
:0E246E00E0FCA3E0FE30E72B9000B0E0FAA304
:0E247C00E0FBA3E0FCA3E0FEC3E49AFAE49BBD
:0E248A00FBE49CFCE49EFE9000B0EAF0A3EBA5
:09249800F0A3ECF0A3EEF08002C9
:0224A100C20671
:0824A300D20A9000C4E0FC75B0
:0324AB0012CE75D9
:0424AE0013007D009A
:0E24B2009000B4E4F08C82C004C005121EFC41
:0C24C000D005D004200A32C0049000B403
:0A24CC00E0FFC4FF85128285138330
:0A24D600E0FA4207851282851383A5
:0A24E000EFF0151274FFB51202159B
:0124EA0013DE
:0824EB009000CFE512F0A3E51B
:0624F30013F0D004800C80
:0924F9009000B4E0FF8512828519
:032502001383F050
:092505000D9000C7EDF0B20A9040
:0E250E0000B0E0FFA3E0FAA3E0FEA3E0FBEFC5
:0C251C004A4E4B70919000CFE512F0A3E6
:09252800E513F09000C7EDF090FE
:0C25310000C5E0FA70069000C57401F0CF
:0A253D0020032720022474012DFA68
:052547009000C5E0FB5F
:0D254C00C3EA9B5011758220C002C003122B
:092559001E72D003D0021B80EABF
:052562009000C5EBF044
:0A25670030061275822D121E7290CC
:0B25710000C5E0FA149000C5F0802FB8
:0C257C009000C7E0FA602830041275825D
:0B2588002B121E729000C5E0FA1490A8
:0525930000C5F08013FB
:0A259800300510758220121E7290AB
:0925A20000C5E0FA149000C5F038
:0925AB0020022F9000C7E0FA9015
:0425B40000C5E0FB83
:0E25B8008B041B9000C5EBF0C3EA9C5036303C
:0625C60003047C308002DA
:0225CC007C2071
:0E25CE008C82C002C003121E72D003D00280A5
:0125DC00DB23
:0E25DD009000C5E0FA9000C7E0FCC39A5009D8
:0925EB009000C5EAC39CF0800CCD
:0725F4009000C5E4F0800532
:0525FB009000C5EBF0AB
:0D2600009000CFE0FAA3E0FB9000C7E0FCE3
:0A260D008C061CEE6040B20A200AA1
:06261700150ABA00010BD8
:0E261D008A828B83E0FEC4540FFE9000B4F05E
:02262B00800E1F
:0E262D008A828B83E0FE53060F9000B4EEF01D
:0E263B009000B4E0FEF582C002C003C004129D
:0A2649001EBAD004D003D00280BAFC
:06265300200203021F8CAF
:052659009000C5E0FA4D
:09265E008A031AEB7003021F8CC1
:0C266700758220C002121E72D00280EBAF
:082673008D82121E72021F8C01
:0C267B009000B5E0FAA3E08A82F583220B
:0B2BF8003C4E4F20464C4F41543E0025
:0E268700AAF0AB83E5829000D1F0A3EBF0A3A4
:0E269500EAF07A007B009000D1E0FCA3E0FDAB
:0326A300A3E0FEB3
:0E26A6008C828D838EF01226DAFFA3AC82ADFB
:0E26B400839000D1ECF0A3EDF0A3EEF0EF6008
:0826C200070ABA00DF0B80DCFF
:0E26CA009000D1ECF0A3EDF0A3EEF08A828B2D
:0226D80083225B
:03004E0075812198
:0A00510012044DE58260030204482A
:0E26DA0020F71430F6148883A88220F507E656
:0626E800A88375830022A7
:0326EE00E280F790
:0326F100E493224D
:0226F400E022E2
:0E26F600E5829000D4F09000D4E0FABA6100C2
:0B2704004009EA248540047582012290
:04270F0075820022AD
:00000001FF
