:06300000023036023446E6
:01300B003292
:01301300328A
:01301B003282
:01302300327A
:01302B003272
:033033000234BFA5
:03308F000230927A
:0530920012309780FEE2
:0830970012348F743FC0E07495
:0B309F003FC0E012350F158115817451
:0830AA0052C0E0743FC0E012C7
:0B30B200350F15811581745EC0E074BD
:0B30BD003FC0E012350F158115817433
:0830C8007CC0E0743FC0E0127F
:0B30D000350F158115817496C0E07467
:0B30DB003FC0E012350F158115811277
:0930E60034A3AA82E4BA620104D9
:0630EF00FBE4BA630104DA
:0630F500FCE4BA640104D2
:0630FB00FDE4BA610104CE
:01310100FAD3
:09310200EA7014EB6003023234A0
:06310B00EC600302326DCE
:06311100ED60030233052E
:0231170080E94D
:0C311900C002C003C004C00574ADC0E0DB
:0C312500743FC0E012350F15811581D0F9
:0D31310005D004D003D002EA70030232344E
:09313E0074C2C0E0743FC0E0124D
:0B314700350F1581158174E5C0E074A0
:0B3152003FC0E012350F15811581749D
:08315D00F0C0E0743FC0E01275
:0B316500350F1581158174FFC0E07468
:0C3170003FC0E07480C0E012366315819F
:0A317C0015811581741DC0E0744038
:0E318600C0E07480C0E012366315811581151B
:0A31940081743BC0E07440C0E07499
:0D319E0080C0E01236631581158115817423
:0A31AB0051C0E07440C0E07480C021
:0E31B500E01236631581158115811234A3E5F1
:0531C30082900000F005
:0C31C800900000E0FEBE310E12333E12FB
:0A31D40034A3E582900000F080EAC9
:0C31DE00BE320E12335A1234A3E5829068
:0531EA000000F080D997
:0C31EF00BE330E1233A21234A3E582900E
:0531FB000000F080C897
:0C320000BE340E1233761234A3E5829027
:05320C000000F080B796
:0C321100BE350E1233CE1234A3E58290BD
:05321D000000F080A696
:0C322200BE36A31233E11234A3E5829003
:06322E000000F00231C8AF
:0C323400C002C003C004C005746DC0E0FF
:0C3240007440C0E012350F15811581D0DC
:0E324C0005D004D003D002B290C002C003C06F
:0E325A0004C0051233F4D005D004D003D00216
:05326800B290023102EA
:0C326D00C002C003C004C0057494C0E09F
:0C3279007440C0E012350F15811581D0A3
:0732850005D004D003D002C4
:06328C00EC7003023102A8
:0E329200C002C003C004C005123439D005D0FC
:0732A00004D003D002D2DECE
:0C32A70020DA27C002C003C004C0057478
:0A32B300B7C0E07440C0E07480C0B2
:0E32BD00E0123663158115811581D005D0040D
:0632CB00D003D00280D602
:0C32D100C002C003C004C00574C2C0E00D
:0C32DD007440C0E07480C0E0123663153D
:0E32E9008115811581D005D004D003D002B22A
:0E32F7009075E900743025ECF5ECD2DE80878E
:0C330500C002C003C004C00574CDC0E0CD
:0C3311007440C0E012350F15811581D00A
:0E331D0005D004D003D002B290C002C003C09D
:0E332B0004C00512344AD005D004D003D002ED
:05333900B29002310218
:09333E0074EEC0E07440C0E0121E
:0E334700350F1581158175D90075D84075DADE
:053355004275FAC022E0
:09335A0074FAC0E07440C0E012F6
:0E336300350F1581158175D90075D80075DA02
:053371000075FA0022C6
:093376007407C0E07441C0E012CC
:0E337F00350F15811581741025FA4007740C66
:05338D0025FAF5FA220B
:093392007423C0E07441C0E01294
:07339B00350F158115812299
:0933A2007450C0E07441C0E01257
:0E33AB00350F15811581E5FA24F35007E5FA78
:0533B90024F4F5FA22E6
:0933BE00746CC0E07441C0E0121F
:0733C700350F15811581226D
:0933CE00749AC0E07441C0E012E1
:0A33D700350F15811581438701228F
:0933E10074B0C0E07441C0E012B8
:0A33EA00350F15811581438702227B
:0E33F40075D90175D84075DB4975EBFF75FB87
:013402008049
:0A34030020D91774B7C0E07440C070
:0E340D00E07480C0E0123663158115811581D0
:02341B0080E649
:0A341D0074C2C0E07440C0E0748087
:0E342700C0E012366315811581158175F9001C
:0434350075E9002213
:0D34390075D90175EC0075FC1075DC4D2295
:043446005387FE3278
:0E344A0075D90175D84075DE4975EEFF75FE27
:0134580080F3
:0A34590020DC1774CCC0E07441C001
:0E346300E07480C0E01236631581158115817A
:0234710080E6F3
:0A34730074D9C0E07441C0E0748019
:0E347D00C0E012366315811581158175F900C6
:04348B0075E90022BD
:0E348F00759850758920758DFDD28ED299D218
:06349D00AFD2A8D2AE225E
:0534A30010980280FBFF
:0534A800AA998A8222AE
:0634AD00E582900001F031
:0C34B3003099FD900001E0F599C29922CB
:0E34BF00C0E0C0F0C082C083C002C003C004E1
:0E34CD00C005C006C007C000C001C0D075D049
:0A34DB000074E6C0E07441C0E07424
:0E34E50080C0E012366315811581158175F9DE
:0E34F30000D0D0D001D000D007D006D005D038
:0E35010004D003D002D083D082D0F0D0E032CC
:0E3F3F000A0D53656C65637420504341206D7C
:053F4D006F64653A00FD
:0C3F52000A0D50574D202D20610A0D0073
:0E3F5E000A0D31362D62697420736F66747718
:0E3F6C006172652074696D6572202D20620AF5
:023F7A000D0038
:0E3F7C000A0D48696768207370656564206FE0
:0C3F8A007574707574202D20630A0D0002
:0E3F96000A0D5761746368646F672074696D6B
:093FA4006572202D20640A0D0055
:0E3FAD000A0D456E74657265642050574D20F4
:073FBB006D6F64650A0D0043
:0E3FC20043686F6F7365206F6E65206F662019
:0E3FD000746865206F7074696F6E732062658F
:073FDE006C6F773A0A0D0039
:0B3FE5000A50574D202D20310A0D001E
:0E3FF00053746F702050574D202D20320A0D53
:013FFE0000C2
:0E3FFF00496E6372656173652050574D2064F2
:0E400D00757479206379636C65202D20330A69
:02401B000D0096
:0E401D0044656372656173652050574D2064E1
:0E402B00757479206379636C65202D20340A4A
:024039000D0078
:0E403B00456E7465722049646C65204D6F649B
:0840490065202D20350A0D0051
:0E405100456E74657220506F77657220446F63
:0E405F00776E204D6F6465202D20360A0D000F
:0E406D000A0D456E746572656420313620625E
:0E407B00697420736F667477617265207469D2
:0B4089006D6572206D6F64650A0D000C
:0E4094000A0D456E7465726564206869676880
:0E40A200207370656564206F757470757420EE
:0740B0006D6F64650A0D004D
:0B40B7000A0D4346203D20300A0D009A
:0B40C2000A0D4346203D20310A0D008E
:0E40CD000A0D456E7465726564207761746338
:0E40DB006820646F672074696D6572206D6FD8
:0540E90064650A0D00F2
:0C40EE000A0D52756E2050574D0A0D004F
:0D40FA000A0D53746F702050574D0A0D00D1
:0E4107000A0D4465637265617365206475740A
:0E41150079206379636C652050574D0A0D00C8
:0E4123000A0D2044757479204379636C652081
:0E41310063616E6E6F74206265206465637258
:0E413F0065617365642062656C6F77203525BD
:03414D000A0D0058
:0E4150000A0D496E63726561736520647574B3
:0E415E0079206379636C652050574D0A0D007F
:0E416C000A0D2044757479204379636C652038
:0E417A0063616E6E6F7420626520696E637201
:0E41880065617365642061626F76652039356C
:04419600250A0D00E9
:0E419A000A0D456E74657265642049646C659B
:0841A800206D6F64650A0D0033
:0E41B0000A0D456E746572656420506F776568
:0E41BE007220446F776E206D6F64650A0D00ED
:0D41CC000A0D43434634203D20300A0D000B
:0D41D9000A0D43434634203D20310A0D00FD
:0E41E600496E20504341206D6F64650A0D0044
:06306500E478FFF6D8FD3F
:083043007900E94400601B7AEA
:05304B00009041FF7838
:033050003075A038
:0A30530000E493F2A308B8000205A0
:08305D00A0D9F4DAF275A0FF1E
:05350F00C008858108E1
:0B351400E50824FDF886831886821865
:0E351F00E493A324DB600C242560051235FC28
:02352D0080F02C
:03352F000236144D
:09353200D2D5E493A3C083C0824A
:03353B00B4731452
:09353E0086F018868318868218B5
:0B354700123F026053A31235FC80F518
:0A355200B46307E6181235FC80434D
:0E355C00B46417E630E74618E6F42401F608DA
:0C356A00E6F43400F6742D1235FC8033BA
:0A357600B4782D868318868218E4CD
:0B3580001235EDE5831235ECE58312F7
:0A358B0035EDE5821235ECE5821201
:0A35950035ED30D50574301235FC19
:07359F00D082D08302351F2A
:0335A600B475F603
:0635A900E6FA18E6F9182D
:0D35AF007C107D271235D7FF7CE87D0312CC
:0E35BC0035D7C4F5837C647D001235D7428379
:0D35CA00E975F00A84C445F0F582EF80A990
:0235D7007B0077
:0E35D9000BC3E99CF9EA9DFA50F61BE92CF9A8
:0535E700EA3DFAEB22B1
:0135EC00C41A
:0735ED00540F700320D51FED
:0835F400C2D52490D43440D468
:0E35FC00C083C082C0F0F582E8C0E01234AD9A
:09360A00D0E0F8D0F0D082D083AA
:013613002294
:03361400D00822B9
:08306B007800E84400600A79D6
:033073000075A045
:0630760000E4F309D8FCA0
:08307C007830E84400600C7993
:0B30840001900000E4F0A3D8FCD9FA92
:08361700C008858108AA821297
:05361F0034ADD00822CB
:0E362400AAF0AB83E582900003F0A3EBF0A3C5
:0E363200EAF0900003E0FAA3E0FBA3E0FC90B6
:0E3640000002E0FD900016E4F0A3F0A3F0906D
:0E364E000019EAF0A3EBF0A3ECF090001CEDE5
:07365C00F090361702377CE5
:06366300C008858108E5A6
:0C3669000824FBFA900016E4F0A3F0A384
:0C367500F0E50824FBF8900019E6F008CE
:0D368100A3E6F008A3E6F090001CEAF0902C
:0A368E00361712377CAA82AB83D0F6
:02369800082206
:0C369A00E582900012F0900012E0FA901F
:0E36A6000008E0C0E0A3E0C0E0A3E0C0E074D4
:0836B400C8C0E07436C0E090CC
:0C36BC000006E0C0E0A3E0C0E08A82222B
:0E36C800158115811581900010E0FAA3E0FB3A
:0C36D60090001074012AF0E43BA3F022E5
:0E36E200E582900013F0900013E0FA74302A95
:0C36F000FA24C6500A74072AFA300003BE
:0336FC0043022066
:0536FF008A8202369AE8
:0E370400E582900014F0900014E0FAC4540F17
:0E371200FBF582C0021236E2D00253020F8A8B
:04372000820236E209
:0E372400E582900015F090000BE0FAA3E0FBA8
:0E373200A3E0FCA3E0FD90000FE0FE90001568
:04374000E0FF78200E
:0E374400EE2EFEED235401F94206EA2AFAEBBE
:0E37520033FBEC33FCED33FDC3EE9F4007EE7E
:06376000C39FFE430201BD
:0E376600D8DC90000BEAF0A3EBF0A3ECF0A38C
:08377400EDF090000FEEF022D1
:0E377C00AA83E58290001DF0A3EAF090001DE4
:0E378A00E0FAA3E0FB900006EAF0A3EBF0905B
:0E3798000016E0FAA3E0FBA3E0FC900008EAB4
:0E37A600F0A3EBF0A3ECF0900010E4F0A3F021
:0E37B400900019E0FAA3E0FBA3E0FC8A828BF0
:0E37C200838CF0123F02FD90001974012AF072
:0D37D000E43BA3F0A3ECF0ED7003023EA378
:0537DD00BD2502800380
:0337E200023E9B09
:0537E500C201C202C296
:0437EA0003C204C250
:0437EE0005C206C248
:0437F20007C2089072
:0937F600001FE4F0900020F090A7
:0E37FF00002174FFF0900019E0FAA3E0FBA394
:02380D00E0FCDD
:0E380F008A828B838CF0123F02FEA3AA82AB4A
:0D381D0083900019EAF0A3EBF0A3ECF0900B
:0D382A000023EEF0BE25088E8212369A02B1
:0238370037B4A4
:053839008E07BF300006
:0E383E0040498E07EF24C64042900021E0FF73
:0E384C00BFFF29C002C003C004900020E0FAB4
:0E385A0075F00AA4FAEE24D09000202AF09017
:0D3868000020E0FAD004D003D002709BD203
:0338750002809737
:0E387800EF75F00AA4FFEE24D09000212FF08F
:0338860002380FF6
:0E388900900023E0FEBE2E08900021E4F00225
:02389700380FE8
:0E3899008E82C002C003C004C006123F22E5AA
:0C38A7008224FF9200D006D004D003D091
:0B38B3000230000790002374DF5EF07D
:0A38BE00900023E0FEBE20028055BA
:0538C800BE2B02804B45
:0538CD00BE2D02804148
:0538D200BE4202804B24
:0538D700BE4302805019
:0638DC00BE4403023B1094
:0638E200BE4603023B326A
:0638E800BE4903023B1083
:0538EE00BE4C02803415
:0638F300BE4F03023B1A68
:0638F900BE5003023A720A
:0538FF00BE53028042EF
:06390400BE5503023B2248
:06390A00BE5803023B2A37
:03391000023B3641
:05391300D20102380F93
:05391800D20302380F8C
:05391D00D20402380F86
:05392200D20602380F7F
:05392700D20702380F79
:0E392C0090001CE0FA24FEF890001CF08602C9
:0C393A00088603188A8212369A023B426B
:0E39460090001CE0FA24FDF890001CF08602B0
:0E395400088603088604181890000BEAF0A3FA
:0E396200EBF0A3ECF090000BE0FAA3E0FBA367
:0E397000E0FC8A828B838CF0123EAFAA82AB01
:0E397E0083900021E0FBBBFF05900021EAF0E2
:0C398C00200138900020E0FBC3EA9B50B3
:0D3998002E900020EBC39AF0900020E0FB81
:0D39A5008B041B900020EBF0BC0002801092
:0E39B200758220C002C00312369AD003D002E4
:0239C00080E3A2
:0539C200900020EBF075
:0539C700900021E0FD6D
:0E39CC00C00290000BE0FCA3E0FFA3E0FA8C29
:0E39DA00828F838AF0123F02D00260538D0468
:0E39E8001DC374808CF063F08095F05044C0D5
:0A39F6000290000BE0F509A3E0F5D4
:083A00000AA3E0F50B74012597
:073A080009FBE4350AFAACEA
:0C3A0F000B90000BEBF0A3EAF0A3ECF02E
:073A1B00850982850A8385FD
:0C3A22000BF0123F02FAF582C002C00552
:0B3A2E0012369AD005D002D00280931F
:063A3900200103023B42E4
:0D3A3F00900020E0FBC3EA9B4003023B42E5
:0C3A4C00900020EBC39AF0900020E0FAFC
:0E3A58008A031A900020EAF0BB0003023B3DF7
:0C3A6600758220C00212369AD00280E661
:0E3A720090001CE0FB24FDF890001CF0860381
:0E3A8000088604088607181890000BEBF0A3C8
:0E3A8E00ECF0A3EFF090000DE0FB247F500859
:083A9C009000237443F0802028
:0D3AA400EB249F50089000237450F0801315
:0D3AB100EB24BF50089000237449F08006FC
:063ABE009000237458F093
:0E3AC400900023E0FBF582C00312369AD00377
:0E3AD20075823AC00312369AD003758230C056
:0E3AE0000312369AD003758278C00312369A0C
:073AEE00D003BB4902800F69
:053AF500BB5002800A35
:0A3AFA0090000CE0FBF58212370487
:0C3B040090000BE0FBF5821237048032C9
:0A3B1000D20590001F740AF080280F
:083B1A0090001F7408F08020E8
:083B220090001F740AF08018E6
:083B2A0090001F7410F08010E0
:043B3200D208800C29
:073B36008E8212369A800511
:053B3D00900020EAF0F9
:0C3B420030086B90001CE0FA24FCF890A6
:0E3B4E00001CF086020886030886040886061E
:0E3B5C0018181890000BEAF0A3EBF0A3ECF0A1
:0B3B6A00A3EEF090000B74F4F0A374C5
:063B750041F0A37480F092
:0E3B7B0090000BE0FBA3E0FCA3E0FD74012B27
:0E3B8900FEE43CFF8D0290000BEEF0A3EFF087
:0E3B9700A3EAF08B828C838DF0123F02FA704D
:043BA500030237B42C
:073BA9008A8212369A80CBDC
:0B3BB00090001FE0FABA00030237B4D7
:083BBB0090002A7429F0A374A4
:063BC30000F030064C90FA
:0E3BC900001CE0FA14F890001CF08602EA33AB
:0E3BD70095E0FBFCFE90000BEAF0A3EBF0A3E0
:0B3BE500ECF0A3EEF0300503023C8A78
:0E3BF00090000BE0FAA3E0FBA3E0FCA3E0FED4
:0E3BFE007B007C007E0090000BEAF0A3EBF051
:083C0C00A3ECF0A3EEF08076BA
:0C3C140030072A90001CE0FA24FCF89015
:0E3C2000001CF086020886030886040886064B
:0E3C2E0018181890000BEAF0A3EBF0A3ECF0CE
:053C3C00A3EEF0804939
:0E3C410090001CE0FA24FEF890001CF08602B1
:0E3C4F0008860318EB3395E0FCFE90000BEAAC
:0C3C5D00F0A3EBF0A3ECF0A3EEF02005C8
:0E3C69002090000BE0FAA3E0FBA3E0FCA3E038
:0E3C7700FE7C007E0090000BEAF0A3EBF0A3B1
:053C8500ECF0A3EEF0DD
:0C3C8A0030053E90000BE0FAA3E0FBA325
:0E3C9600E0FCA3E0FE30E72B90000BE0FAA369
:0E3CA400E0FBA3E0FCA3E0FEC3E49AFAE49B7D
:0E3CB200FBE49CFCE49EFE90000BEAF0A3EB0A
:093CC000F0A3ECF0A3EEF0800289
:023CC900C20532
:083CCB00D20990001FE0FC7516
:033CD3000C297544
:043CD6000D007D0060
:0E3CDA0090000FE4F08C82C004C00512372465
:0C3CE800D005D004200932C00490000F69
:0A3CF400E0FFC4FF850C82850D83FC
:0A3CFE00E0FA4207850C82850D8371
:0A3D0800EFF0150C74FFB50C021566
:013D12000DA3
:083D130090002AE50CF0A3E585
:063D1B000DF0D004800C45
:093D210090000FE0FF850C828583
:033D2A000D83F016
:093D2D000D900022EDF0B20990A6
:0E3D3600000BE0FFA3E0FAA3E0FEA3E0FBEF2A
:0C3D44004A4E4B709190002AE50CF0A351
:093D5000E50DF0900022EDF09069
:0C3D59000020E0FA70069000207401F0D9
:0A3D650020022720012474012DFA2A
:053D6F00900020E0FBC4
:0D3D7400C3EA9B5011758220C002C00312EB
:093D8100369AD003D0021B80EA3F
:053D8A00900020EBF0A9
:0A3D8F0030051275822D12369A904D
:0B3D99000020E0FA14900020F0802FC2
:0C3DA400900022E0FA60283003127582C3
:0B3DB0002B12369A900020E0FA1490CD
:053DBB000020F0801360
:0A3DC00030041075822012369A902C
:093DCA000020E0FA14900020F042
:093DD30020012F900022E0FA907B
:043DDC000020E0FBE8
:0E3DE0008B041B900020EBF0C3EA9C503630A1
:063DEE0002047C3080029B
:023DF4007C2031
:0E3DF6008C82C002C00312369AD003D0028025
:013E0400DBE2
:0E3E0500900020E0FA900022E0FCC39A5009E1
:093E1300900020EAC39CF0800C31
:073E1C00900020E4F0800596
:053E2300900020EBF00F
:0D3E280090002AE0FAA3E0FB900022E0FCED
:0A3E35008C061CEE6040B209200963
:063E3F00150ABA00010B98
:0E3E45008A828B83E0FEC4540FFE90000FF0C3
:023E5300800EDF
:0E3E55008A828B83E0FE53060F90000FEEF082
:0E3E630090000FE0FEF582C002C003C0041202
:0A3E710036E2D004D003D00280BA7C
:063E7B002001030237B430
:053E8100900020E0FAB2
:093E86008A031AEB70030237B441
:0C3E8F00758220C00212369AD00280EB2F
:083E9B008D8212369A0237B441
:0C3EA300900010E0FAA3E08A82F5832270
:0B41F4003C4E4F20464C4F41543E0013
:0E3EAF00AAF0AB83E58290002CF0A3EBF0A309
:0E3EBD00EAF07A007B0090002CE0FCA3E0FD10
:033ECB00A3E0FE73
:0E3ECE008C828D838EF0123F02FFA3AC82AD7A
:0E3EDC008390002CECF0A3EDF0A3EEF0EF606D
:083EEA00070ABA00DF0B80DCBF
:0E3EF20090002CECF0A3EDF0A3EEF08A828B92
:023F000083221A
:0330360075812180
:0A303900123F1EE582600302309290
:0E3F020020F71430F6148883A88220F507E615
:063F1000A8837583002266
:033F1600E280F74F
:033F1900E493220C
:023F1C00E022A1
:043F1E007582002286
:0E3F2200E58290002FF090002FE0FABA6100C7
:0B3F30004009EA24854004758201224C
:043F3B007582002269
:00000001FF
