:100091009000F9E0FAF58212022212023290001465
:1000A10012043D9000F9E0FAF582120222120232A6
:1000B10090001412043D9000F9E0FAF58212022238
:1000C10012023290001412043D9000F2E0FAF5821F
:1000D10012022212023290001412043D9000F7E045
:1000E100FAF58212022212023290001412043D909B
:1000F10000F8E0FAF5821202221202329000141284
:10010100043D9000F3E0FAF58212022212023290CD
:10011100001412043D9000F5E0FAF5821202221259
:10012100023290001412043D9000F4E0FAF58212BC
:10013100022212023290001412043D75821412023E
:100141002212023290001412043D9000F6E0FAF5FA
:1001510082020222AAF0AB83E582900002F0A3EBB7
:10016100F0A3EAF075820612022290002812043DE3
:10017100900002E0FAA3E0FBA3E0FC7D007E00ED2D
:100181002AFFEE3BF88C018F82888389F01244E4C8
:10019100FF60208F82C002C003C004C005C00612E8
:1001A10001B5D006D005D004D003D0020DBD00CFDB
:1001B1000E80CC22E582900005F0900005E0FA90D7
:1001C100A000F090000112043D900000E0FAA3E0CD
:1001D100FBBA8F0EBB000B900007E4F075820102A1
:1001E1000246BACF0EBB000B900007E4F075820205
:1001F100020246BA9F0EBB000B900007E4F0758225
:1002010003020246BADF0EBB000B900007E4F07553
:10021100820002024690000074012AF0E43BA3F040
:1002210022E582900006F0900006E0FA908000F04E
:100231002290C000E580F090C000E0FA530280BA3D
:10024100010280F322E582900008F0900009E4F0B9
:10025100900008E0FA24FC4061EA2A2A90026173C6
:1002610002026D0202810202950202A99000087445
:1002710080F0900007E0FA90000974802AF0803A3B
:1002810090000874C0F0900007E0FA90000974C073
:100291002AF080269000087490F0900007E0FA9010
:1002A100000974902AF0801290000874D0F0900038
:1002B10007E0FA90000974D02AF0900009E0FA9062
:1002C1000000F0A3E4F08A82020222E58290000D90
:1002D100F090000DE0FAC40354F8FA90000DF0908C
:1002E100000DE0FA9000FAE0FB4AF090000AE0FA13
:1002F100A3E0FBA3E0FC7D007E00C3ED9408EE6467
:10030100809480400122900007E4F0758200C002D1
:10031100C003C004C005C006120246D006D005D0F5
:1003210004D003D002900001C002C003C004C00584
:10033100C00612043DD006D005D004D003D0028DF2
:10034100079000FAE0F8EF28FFF582C002C003C071
:1003510004C005C006120222D006D005D004D00385
:10036100D002900001C002C003C004C005C0061243
:10037100043DD006D005D004D003D002ED2AFFEE13
:100381003BF88C018F82888389F01244E4FFF58267
:10039100C002C003C004C005C0061201B5D006D01A
:1003A10005D004D003D0020DBD00010E0202FBE511
:1003B1008290000EF090000EE0FAC36480948A40AF
:1003C10059748F8AF063F08095F0404EBA0A02802A
:1003D10019BA0B02801CBA0C02801FBA0D028022CE
:1003E100BA0E028025BA0F4D802890000E7441F09C
:1003F100804390000E7442F0803B90000E7443F0F5
:10040100803390000E7444F0802B90000E7445F000
:10041100802390000E7446F0801B90000EE0FA20BD
:10042100E713C374898AF063F08095F04007900068
:100431000E74302AF090000EE0F58222AA83E58244
:1004410090000FF0A3EAF090000FE0FAA3E0FB7C2C
:10045100007D00C3EC9AED9B50147E647F001EBEAC
:0F046100FF011FEE4F70F70CBC00E80D80E52285
:094FA900380E010602080C30402C
:0600000002002E02048143
:03000B0002317E41
:0100130032BA
:01001B0032B2
:0100230032AA
:03002B00023A3C5A
:0A00870090003EE4F0A3F0020470C4
:100470001204E480FED2AFD2A8D2A9D288900001A3
:1004800022C0E0C0F0C082C083C002C003C004C06C
:1004900005C006C007C000C001C0D075D0009000E4
:1004A0006412043D2089FD9000FBE0FAA3E0FB907C
:1004B00000FB74012AF0E43BA3F0122EBBAA829049
:1004C0000014EAF08A82122F8BD0D0D001D000D055
:1004D00007D006D005D004D003D002D083D082D07C
:1004E000F0D0E032900017E4F090001BF0A3F09001
:1004F00000BD7430F09000BE7408F0E4A3F09000EA
:100500001D75F000123A801230BB1200911230219A
:100510001222617421C0E07445C0E0123AF11581E5
:100520001581745BC0E07445C0E0123AF115811585
:1005300081747FC0E07445C0E0123AF115811581E5
:1005400074A9C0E07445C0E0123AF11581158174B8
:10055000BBC0E07445C0E0123AF11581158174D337
:10056000C0E07445C0E0123AF11581158174E6C00F
:10057000E07445C0E0123AF11581158174FDC0E0C8
:100580007445C0E0123AF115811581740DC0E07414
:1005900046C0E0123AF1158115817424C0E074461A
:1005A000C0E0123AF1158115817443C0E07446C071
:1005B000E0123AF115811581745FC0E07446C0E025
:1005C000123AF1158115817473C0E07446C0E012CF
:1005D0003AF115811581748BC0E07446C0E0123A7F
:1005E000F11581158174ADC0E07446C0E0123AF196
:1005F000158115811230B1AA82C3EA648094B1E4F6
:1006000033FB6046C374B98AF063F08095F0E4333D
:10061000FC6037C3EA648094C1E433FD602CC3748A
:10062000C38AF063F08095F0E433FE601DEB60C494
:10063000EC60C1ED60BEEE60BB74C2C0E07446C049
:10064000E0123AF11581158180AAEB6003020531B1
:10065000C374C38AF063F08095F05003020531EA59
:1006600024CFFA240983C0E0EA241683C0E022954F
:10067000C0593B9E2E8D3E44B0B0B0B0B0B0B0DBA0
:10068000209806080A0B11121417171D1D1D1D1D99
:100690001D1D171A1C90001BE0FAA3E0FBC002C04E
:1006A000037400C0E07447C0E0123AF1158115816F
:1006B000D003D002C002C0037439C0E07447C0E068
:1006C000123AF115811581D003D002C002C0031285
:1006D00024DAAC82D003D002900011E0FD53050F64
:1006E000900015EDF0ED3395E0FEC002C003C004AC
:1006F000C005C0067451C0E07447C0E0123AF1E58D
:100700008124FCF581D004D003D0028C057E00C08A
:1007100002C003C004C005C006746FC0E07447C0C7
:10072000E07480C0E0123C45E58124FBF581D004F3
:10073000D003D002C002C003C0047400C0E07447FC
:10074000C0E0123AF115811581D004D003D002C067
:1007500002C003C004122946AD82D004D003D002E7
:100760008D067F00C002C003C004C005C006C007DC
:100770007493C0E07447C0E07480C0E0123C45E56B
:100780008124FBF581D005D004D003D00290001560
:10079000E0FE900029F090002AEDF08C82C002C0AB
:1007A00003C004C006121DE1D006D004D003D0025D
:1007B000C002C003C004C00674B6C0E07447C0E005
:1007C000123AF115811581D006D004D003D00290E1
:1007D000000AC002C003C004C00612043DD006D007
:1007E00004D003D00290002CEEF08C82C002C00333
:1007F000121E0FAC82D003D002C002C003C004742A
:10080000CEC0E07447C0E0123AF115811581D004E2
:10081000D003D0027D00C002C003C004C00574E54F
:10082000C0E07447C0E07480C0E0123C45E581241C
:10083000FBF581D003D002C002C0037400C0E07495
:1008400047C0E0123AF115811581D003D0020ABAEF
:1008500000010B90001BEAF0A3EBF0C002C0037490
:10086000FAC0E07447C0E0123AF115811581D00357
:10087000D002C002C0037416C0E07448C0E0123A4F
:10088000F115811581D003D002C002C0037400C0ED
:10089000E07447C0E0123AF115811581D003D0020F
:1008A000C002C0031230B1AC82D003D002BC7102CE
:1008B000800302069D90001BEAF0A3EBF0020531D5
:1008C00090001BE0FAA3E0FBC002C0037400C0E08C
:1008D0007447C0E0123AF115811581D003D002C0EF
:1008E00002C003742AC0E07448C0E0123AF11581D6
:1008F0001581D003D002C002C0031224DAAC82D02A
:1009000003D002900011E0FD53050F900015EDF0AB
:10091000ED3395E0FEC002C003C004C005C00674FC
:1009200051C0E07447C0E0123AF1E58124FCF58142
:10093000D004D003D0028C057E00C002C003C004E6
:10094000C005C0067438C0E07448C0E07480C0E0E0
:10095000123C45E58124FBF581D004D003D002C0D0
:1009600002C003C0047400C0E07447C0E0123AF152
:1009700015811581D004D003D002900015E0FD90C0
:10098000002CF08C82C002C003121E0FAC82D00378
:10099000D002C002C003C00474CEC0E07447C0E0FF
:1009A000123AF115811581D004D003D0027D00C028
:1009B00002C003C004C00574E5C0E07447C0E07421
:1009C00080C0E0123C45E58124FBF581D003D002D4
:1009D000C002C0037400C0E07447C0E0123AF115D1
:1009E000811581D003D0020ABA00010B90001BEAE6
:1009F000F0A3EBF0C002C00374FAC0E07447C0E09B
:100A0000123AF115811581D003D002C002C00374DF
:100A100016C0E07448C0E0123AF115811581D00388
:100A2000D002C002C0037400C0E07447C0E0123AB4
:100A3000F115811581D003D002C002C0031230B17C
:100A4000AC82D003D002BC710280030208C89000BF
:100A50001BEAF0A3EBF00205317400C0E07447C05C
:100A6000E0123AF1158115817400C0E07447C0E0CE
:100A7000123AF115811581745BC0E07448C0E01230
:100A80003AF1158115811224DAAA82900011E0FB57
:100A900053030F900015EBF0EB3395E0FCC002C060
:100AA00003C004746BC0E07448C0E0123AF1E58101
:100AB00024FCF581D0028A037C00C002C003C0047C
:100AC0007487C0E07448C0E07480C0E0123C45E523
:100AD0008124FBF581D002900015E0FB90002CF002
:100AE0008A82C002C003121E0FAC82D003D00290D3
:100AF000003BEBF090003CECF08A821222B674FAD4
:100B0000C0E07447C0E0123AF1158115817416C037
:100B1000E07448C0E0123AF1158115817400C0E01C
:100B20007447C0E0123AF1158115811230B1AA82E2
:100B3000BA71028003020A590205317400C0E074E0
:100B400047C0E0123AF11581158174A5C0E07448E0
:100B5000C0E0123AF11581158174BFC0E07448C03D
:100B6000E0123AF1158115811224DAE582FAFB339D
:100B700095E0FCC002C003C004C003C00474EAC016
:100B8000E07448C0E0123AF1E58124FCF581D0041C
:100B9000D003D002900011E0FD900015740F5DF0BD
:100BA000C002C003C00474FEC0E07448C0E0123A42
:100BB000F115811581D004D003D002C002C003C05A
:100BC000041224DAAD82D004D003D002EDFE3395B6
:100BD000E0FFC002C003C004C005C006C007742700
:100BE000C0E07449C0E0123AF1E58124FCF581D0FF
:100BF00005D004D003D002900011E0FE90001674DE
:100C00000F5EF08D067F008A007900EEC398FEEF3C
:100C100099FFC002C003C004C005C006C0077439F4
:100C2000C0E07449C0E0123AF1E58124FCF581D0BE
:100C300005D004D003D002900019E4F0A3F0900096
:100C400015E0FE900016E0FFEEB507028003020DEE
:100C5000F0C0058A00790053060F7D00C002C00372
:100C6000C004C005C007C000C001C006C00574456F
:100C7000C0E07449C0E07480C0E0123C45E58124C6
:100C8000F9F581D007D005D004D003D002D0058F6C
:100C90000B740F5FF50F8D078A08E4F509F50A8FCD
:100CA000057800A9087E00EDC399F9E89EFEC3E926
:100CB0009509EE6480850AF063F08095F050030298
:100CC0001152AE09EE2AFE90002CE50BF08E82C088
:100CD00002C003C004C007121E0FAE82D007D004AA
:100CE000D003D002900019E0F9A3E0F89000197445
:100CF0000129F0E438A3F0900019E0F8A3E0F9C36B
:100D0000E89411E96480948050308E017800C0022C
:100D1000C003C004C007C001C0007451C0E07449E2
:100D2000C0E07480C0E0123C45E58124FBF581D031
:100D300007D004D003D002020DE5C00275820AC0BC
:100D400002C003C004C006C00712309FD007D006FF
:100D5000D004D003D00275820DC002C003C004C00D
:100D600006C00712309FD007D006D004D003D002AF
:100D70009000197401F0E4A3F0E5092BF9E50A3CB1
:100D8000FA7D00A80F7A00C002C003C004C006C0EC
:100D900007C001C005C000C0027445C0E07449C06E
:100DA000E07480C0E0123C45E58124F9F581D0076C
:100DB000D006D004D003D0027A00C002C003C00421
:100DC000C007C006C0027451C0E07449C0E074801E
:100DD000C0E0123C45E58124FBF581D007D004D06A
:100DE00003D002D0020509E4B50902050A020C9FEE
:100DF000C0058A068E0D750E00900017E0F9740F7D
:100E000059FD7E00C002C003C004C005C007C00178
:100E1000C00DC00EC005C0067445C0E07449C0E0F6
:100E20007480C0E0123C45E58124F9F581D001D001
:100E300007D005D004D003D002D0058F10740F5F07
:100E4000F5088D118A0FC3EF648089F063F08095F7
:100E5000F0500302114DC3E964808FF063F0809578
:100E6000F04003020FC4890D740F59F50CE4F50925
:100E7000F50AC3E50A648094814003021144C00767
:100E8000AF09EF2AFF90002CE50DF08F82C002C061
:100E900003C004C007C001121E0F85820BD001D011
:100EA00007D004D003D002900019E0FFA3E0F8902F
:100EB000001974012FF0E438A3F0900019E0FFA3AB
:100EC000E0F8C3EF9411E864809480E433D00760C5
:100ED00038C007A80B7F00C002C003C004C007C011
:100EE00001C000C0077451C0E07449C0E07480C004
:100EF000E0123C45E58124FBF581D001D007D00408
:100F0000D003D002D007020FB9C00775820AC00211
:100F1000C003C004C007C00112309FD001D007D069
:100F200004D003D00275820DC002C003C004C00704
:100F3000C00112309FD001D007D004D003D002905E
:100F400000197401F0E4A3F0E5092BF8E50A3C7FF1
:100F500000AE0C7D00C002C003C004C007C001C0C9
:100F600000C007C006C0057445C0E07449C0E07405
:100F700080C0E0123C45E58124F9F581D001D0071D
:100F8000D004D003D002AD0B7E00C002C003C00469
:100F9000C007C001C005C0067451C0E07449C0E07C
:100FA0007480C0E0123C45E58124FBF581D001D07E
:100FB00007D004D003D002D0070509E4B509020523
:100FC0000A020E72E9B507028003021144E4F50D2E
:100FD000F50EC007A8117F00AD0F7E00E8C39DF895
:100FE000EF9EFFC3E8950DEF6480850EF063F080FF
:100FF00095F0E433D0076003021144AD0DED2AFDF6
:1010000090002CE510F08D82C002C003C004C00720
:10101000C001121E0FAD82D001D007D004D003D082
:1010200002900019E0FEA3E0F890001974012EF080
:10103000E438A3F0900019E0FEA3E0F8C3EE9411A9
:10104000E86480948050348D067800C002C003C0EC
:1010500004C007C001C006C0007451C0E07449C09C
:10106000E07480C0E0123C45E58124FBF581D001AD
:10107000D007D004D003D002021139C00775820A0C
:10108000C002C003C004C005C007C00112309FD019
:1010900001D007D005D004D003D00275820DC00264
:1010A000C003C004C005C007C00112309FD001D0EA
:1010B00007D005D004D003D0029000197401F0E4E9
:1010C000A3F0E50D2BFEE50E3CF88E09750A00AF86
:1010D000087E00C002C003C004C005C007C001C034
:1010E00009C00AC007C0067445C0E07449C0E07476
:1010F00080C0E0123C45E58124F9F581D001D0079C
:10110000D005D004D003D0027E00C002C003C004CA
:10111000C007C001C005C0067451C0E07449C0E0FA
:101120007480C0E0123C45E58124FBF581D001D0FC
:1011300007D004D003D002D007050DE4B50D020599
:101140000E020FD209900017E9F0020E4690001728
:10115000E9F0745AC0E07449C0E0123AF115811503
:10116000817416C0E07448C0E0123AF1158115810F
:101170007400C0E07447C0E0123AF1158115811285
:1011800030B1AA82BA71028003020B3B7400C0E046
:101190007447C0E0123AF115811581020531C28C05
:1011A000900007E4F075820012024690000A1204D3
:1011B0003D900007740AF075820212024690000A00
:1011C00012043D90000A12043D7582411201B5904F
:1011D000000A12043D9000077402F07582001202AA
:1011E0004690000A12043D90497A75F0801201552C
:1011F00090000A12043D900007740BF075820112F2
:10120000024690498175F0801201557582011201E4
:10121000B590000A12043D9000077409F07582032E
:1012200012024690000A12043DD28C02053174006D
:10123000C0E07447C0E0123AF115811581748DC089
:10124000E07449C0E0123AF11581158174A1C0E043
:101250007449C0E0123AF1158115811224DAAA828C
:10126000900011E0FB53030F900015EBF0EB33956A
:10127000E0FCC002C003C0047451C0E07447C0E089
:10128000123AF1E58124FCF581D0028A037C00C08A
:1012900002C003C00474BAC0E07449C0E07480C0E6
:1012A000E0123C45E58124FBF581D002C00274D1F7
:1012B000C0E07449C0E0123AF115811581D002C036
:1012C000021224DAAB82D002900011E0FC53040F2A
:1012D000900016ECF0EC3395E0FDC002C003C004B2
:1012E000C0057451C0E07447C0E0123AF1E58124B2
:1012F000FCF581D003D0028B047D00C002C003C086
:1013000004C00574EFC0E07449C0E07480C0E0120E
:101310003C45E58124FBF581D003D002C002C00327
:10132000740BC0E0744AC0E0123AF115811581D007
:1013300003D002C002C003122946AC82D003D002FF
:10134000EC3395E0FDC002C003C004C005C004C07A
:10135000057432C0E0744AC0E0123AF1E58124FC21
:10136000F581D005D004D003D002900015E0F5102F
:10137000900016E0F51178007900C3E89CE96480DC
:101380008DF063F08095F04003020531C004C00584
:10139000E8FC2AFD90002CE510F08D82C002C0030D
:1013A000C004C000C001121E0FAD82D001D000D019
:1013B00004D003D002C002C003C004C005C000C0F6
:1013C0000174CEC0E07447C0E0123AF11581158176
:1013D000D001D000D005D004D003D0028D077E000C
:1013E000C002C003C004C005C000C001C007C006E1
:1013F000743DC0E0744AC0E07480C0E0123C45E532
:101400008124FBF581D001D000D005D004D003D0D9
:1014100002EC2BFC900029E511F090002AEDF08CF5
:1014200082C002C003C004C005C000C001121DE19B
:10143000D001D000D005D004D003D002C002C00338
:10144000C004C005C000C00174B6C0E07447C0E06D
:10145000123AF115811581D001D000D005D004D009
:1014600003D00290000AC002C003C004C005C0003F
:10147000C00112043DD001D000D005D004D003D06B
:101480000208B8000109D005D00402137A7400C024
:10149000E07447C0E0123AF1158115817451C0E043
:1014A000744AC0E0123AF115811581746DC0E07480
:1014B0004AC0E0123AF115811581122946AA82C06C
:1014C000027491C0E0744AC0E0123AF115811581AE
:1014D000D002E4F509F50AC3E5099408E50A648039
:1014E000948040030216D7C002C009C00A74BFC06E
:1014F000E0744AC0E0123AF1E58124FCF581D002A3
:10150000AD09AE0AAF09A80A750D04E4F50EE50EA3
:1015100030E7030215F3C002C005C006C007C000D3
:101520001230B1A982D000D007D006D005D00290E9
:101530000018E9F0B93002802AB931028025C002D2
:10154000C005C006C007C00074E4C0E0744AC0E033
:10155000123AF115811581D000D007D006D005D000
:101560000280B3900018E0F9B930028003B931A6C7
:10157000900018E0F924D0900018F0900018E0F9DD
:10158000B90133C002850DF005F07A017B008006B9
:10159000EA2AFAEB33FBD5F0F78A01EF241DFBE8CA
:1015A0003400FC8B828C83E0FAE942028B828C83CC
:1015B000EAF0D0028031E9702EC002850DF005F00E
:1015C0007BFE7CFF8006EB2BFBEC33FCD5F0F7EDCC
:1015D000241DFCEE3400F98C828983E0FA52038CDE
:1015E000828983EBF0D002150D74FFB50D02150E44
:1015F00002150EC0027412C0E0744BC0E07480C0CB
:10160000E0123C45158115811581D002AB09AC0A69
:101610007D007E00C3EB9DEC64808EF063F08095CE
:10162000F050030216CB8D078E00750D04E4F50E05
:10163000E50E20E76BC002EF241DF582E83400F5CB
:1016400083E0F93395E0FA850DF005F0EA3392D2A4
:101650008008A2D2EA13FAE913F9D5F0F553010193
:101660007A00C002C003C004C005C006C007C000A5
:10167000C001C0027415C0E0744BC0E0123AF1E53D
:101680008124FCF581D000D007D006D005D004D04D
:1016900003D002150D74FFB50D02150ED002809017
:1016A000C002C003C004C005C0067412C0E0744B81
:1016B000C0E0123AF115811581D006D005D004D0D2
:1016C00003D0020DBD00010E02161474012BF509A2
:1016D000E43CF50A0214D790000A741DF0A37400CC
:1016E000F0A37400F08A821202CCC28C900007E44E
:1016F000F075820012024690000112043D758200CE
:101700001201B590000112043D9000077401F075BC
:10171000820012024690000112043D7582011201FE
:10172000B590000112043D9000077409F075820322
:1017300012024690000112043DD28C020531123A89
:10174000770205317419C0E0744BC0E0123AF1150C
:10175000811581742AC0E0744BC0E0123AF1158102
:1017600015817450C0E0744BC0E0123AF115811538
:10177000817467C0E0744BC0E0123AF115811581A5
:101780001230B1AA82BA3102802FBA32028003022B
:101790000531122EBBAA82900014EAF0EA3395E0DC
:1017A000FBC002C003747FC0E0744BC0E0123AF18A
:1017B000E58124FCF5810205317490C0E0744BC0D2
:1017C000E0123AF115811581122946AA829000484B
:1017D000EAF0758200122D53020531C29074B9C02F
:1017E000E0744BC0E0123AF11581158174CEC0E06F
:1017F000744BC0E0123AF1158115811224DA85820A
:1018000011900011E0FB53030F900015EBF0EB3348
:1018100095E0FCC003C0047451C0E07447C0E012FE
:101820003AF1E58124FCF581AB117C00C003C004D2
:1018300074F5C0E0744BC0E07480C0E0123C45E534
:101840008124FBF581740BC0E0744CC0E0123AF1C6
:10185000158115811224DAAB82900011E0FC53044B
:101860000F900016ECF0EC3395E0FDC003C004C00F
:10187000057451C0E07447C0E0123AF1E58124FCE0
:10188000F581D0038B047D00C003C004C005743013
:10189000C0E0744CC0E07480C0E0123C45E5812497
:1018A000FBF581D003C0037444C0E0744CC0E01267
:1018B0003AF115811581D003C003122946AC82D0BC
:1018C00003D290900015E0FD900016E0FEEDB50605
:1018D000628E057F007800C005EBFE3395E0F9AA23
:1018E00011E5113395E0FDEEC39AFAE99DFDC3EAD7
:1018F0009FED648088F063F08095F0E433D005605C
:1019000003021A1BEFFA2511FA900029EDF090005E
:101910002AECF08A82C003C004C005C007C00012D0
:101920001DE1D000D007D005D004D0030FBF00A721
:101930000880A48E108E05900017E0FEC3ED648031
:101940008EF063F08095F05003021A16C3EE6480A7
:101950008DF063F08095F0504C8E0778007900C3CD
:10196000E9648094814003021A0DC005E8FD251149
:10197000FD900029EFF090002AECF08D82C003C0AA
:1019800004C005C006C007C000C001121DE1D0019F
:10199000D000D007D006D005D004D00308B800018D
:1019A00009D00580BAEEB505647F007800C005EB6C
:1019B000F50D3395E0F50EAA11E5113395E0FDE53F
:1019C0000DC39AFAE50E9DFDC3EA9FED648088F091
:1019D00063F08095F0D0054034EFFA2511FA9000BD
:1019E00029E510F090002AECF08A82C003C004C000
:1019F00005C006C007C000121DE1D000D007D00608
:101A0000D005D004D0030FBF00A30880A00E900023
:101A100017EEF002193C900017EEF0C2900205316B
:101A20007467C0E0744CC0E0123AF11581158174FE
:101A300086C0E0744CC0E0123AF115811581749AA9
:101A4000C0E0744CC0E0123AF1158115811224DA1D
:101A5000AA82900011E0FB53030F900015EBF0EB0E
:101A60003395E0FCC002C003C0047451C0E0744769
:101A7000C0E0123AF1E58124FCF581D0028A037CB2
:101A800000C002C003C00474F5C0E0744BC0E07431
:101A900080C0E0123C45E58124FBF581D002C00204
:101AA00074C2C0E0744CC0E0123AF115811581D0C7
:101AB00002C0021224DAAB82D002C002C00374EB6F
:101AC000C0E0744CC0E0123AF115811581D003D00A
:101AD00002C002C003122946AC82D003D002ECFD42
:101AE0003395E0FEC002C003C004C005C006740DFB
:101AF000C0E0744DC0E0123AF1E58124FCF581D0DC
:101B000004D003D002C293900015E0FD7E007F0058
:101B1000EBF83395E0F9C3E89EE964808FF063F059
:101B20008095F04039EEF82AF8900029EDF0900009
:101B30002AECF08882C002C003C004C005C006C001
:101B400007121DE1D007D006D005D004D003D00283
:101B5000BE0004BF01010D0EBE00B50F80B2D293CE
:101B60007417C0E0744DC0E0123AF115811581740C
:101B70002BC0E0744DC0E0123AF11581158112249A
:101B8000DAAA82900011E0FB53030F900015EBF0EE
:101B9000EB3395E0FCC002C003C0047451C0E07494
:101BA00047C0E0123AF1E58124FCF581D0028A03B6
:101BB0007C00C002C003C00474F5C0E0744BC0E0F8
:101BC0007480C0E0123C45E58124FBF581D002C061
:101BD000027460C0E0744DC0E0123AF115811581C5
:101BE000D002C0021224DAAB82D002C002C0037459
:101BF00089C0E0744DC0E0123AF115811581D0031F
:101C0000D002C002C003122946AC82D003D002EC3D
:101C1000FD3395E0FEC002C003C004C005C00674D9
:101C2000ABC0E0744DC0E0123AF1E58124FCF581CF
:101C3000D004D003D002C294900015E0FD7E007F56
:101C400000EBF83395E0F9C3EE98EF648089F06318
:101C5000F08095F0503D8E00E8C454F02AF89000D2
:101C600026EDF0900027ECF08882C002C003C0048B
:101C7000C005C006C007121DB3D007D006D005D0DE
:101C800004D003D002BE1004BF00010D0EBE00B18F
:101C90000F80AED29402053174B7C0E0744DC0E03D
:101CA000123AF11581158174CEC0E0744DC0E01276
:101CB0003AF11581158174F2C0E0744DC0E0123A1A
:101CC000F1158115817403C0E0744EC0E0123AF141
:101CD000158115817417C0E0744EC0E0123AF115F9
:101CE0008115811230B1AA82900025EAF0BA310242
:101CF000801BBA32028016BA3302801174E4C0E04D
:101D0000744AC0E0123AF11581158180D690002501
:101D1000E0FABA31028008BA32028003BA33C490C2
:101D20000025E0FA24D0900025F0900025E0FABAD2
:101D30000102800ABA02028018BA033A8026C28CD5
:101D40007429C0E0744EC0E0123AF115811581800B
:101D500025D28C7439C0E0744EC0E0123AF115817E
:101D6000158180121230BB744BC0E0744EC0E0127B
:101D70003AF115811581745AC0E07449C0E0123AF5
:101D8000F1158115817416C0E07448C0E0123AF173
:101D9000158115817400C0E07447C0E0123AF11556
:101DA0008115811230B1AA82BA71028003021CA788
:101DB000020531E582900028F0121E37900028E0DD
:101DC000FA900026E0FB900027E0FC900036EBF054
:101DD000900037ECF08A821220FE121E579000000D
:101DE00022E58290002BF0121E3790002BE0FA9033
:101DF0000029E0FB90002AE0FC900032EBF090001C
:101E000033ECF08A82121FFD121E5790000022E56B
:101E10008290002DF0121E3790002DE0FA90002CD9
:101E2000E0FB90002EF08A82121E72AA82C002127B
:101E30001E57D0028A8222D29290000112043DD213
:101E40009190000112043DC29290000112043DC223
:101E50009190000102043DC29290000112043DD213
:101E60009190000112043DD29290000112043DC2F3
:101E70009122E58290002FF0900031E4F090002E46
:101E8000E025E0FA90002EF090002EE0FA9000306D
:101E900074A04AF07A007B00C3EA9408EB64809453
:101EA00080503A900030E0FC339292900001C002E2
:101EB000C003C00412043DD004D003D002D291EC80
:101EC0002CFC900030F0900001C002C00312043DD1
:101ED000D003D002C2910ABA00BE0B80BB122245C9
:101EE0007A007B00C3EA9408EB64809480503A90B7
:101EF000002FE0FC339292900001C002C003C004A6
:101F000012043DD004D003D002D291EC2CFC9000FE
:101F10002FF0900001C002C00312043DD003D00294
:101F2000C2910ABA00BE0B80BB122245121E379026
:101F3000003074A1F07A007B00C3EA9408EB64805F
:101F40009480503A900030E0FC339292900001C0AF
:101F500002C003C00412043DD004D003D002D291C9
:101F6000EC2CFC900030F0900001C002C003120481
:101F70003DD003D002C2910ABA00BE0B80BB9000D4
:101F80000112043D12224590000112043DD2927AC2
:101F9000077B00EB20E752D291900001C002C00302
:101FA00012043DD003D002E4A29233FC8AF005F083
:101FB0007D008006EC2CFCED33FDD5F0F790003170
:101FC000E0FE4CF0900001C002C00312043DD003BB
:101FD000D002C291900001C002C00312043DD003A0
:101FE000D0021ABAFF011B80AAD2919000011204FC
:101FF0003DC291121E57900031E0F58222E5829099
:102000000034F0900032E025E0FA900032F09000C9
:1020100032E0FA90003574A04AF07A007B00C3EAFF
:102020009408EB64809480503A900035E0FC339241
:1020300092900001C002C003C00412043DD004D03D
:1020400003D002D291EC2CFC900035F0900001C03E
:1020500002C00312043DD003D002C2910ABA00BEEE
:102060000B80BB1222457A007B00C3EA9408EB6424
:10207000809480503A900034E0FC339292900001BA
:10208000C002C003C00412043DD004D003D002D269
:1020900091EC2CFC900034F0900001C002C00312BF
:1020A000043DD003D002C2910ABA00BE0B80BB121D
:1020B00022457A007B00C3EA9408EB648094805048
:1020C0003A900033E0FC339292900001C002C003CA
:1020D000C00412043DD004D003D002D291EC2CFCF9
:1020E000900033F0900001C002C00312043DD00301
:1020F000D002C2910ABA00BE0B80BB022245E58223
:10210000900038F0900036E025E0FA900036F0902C
:102110000036E0FA90003974A04AF07A007B00C3E0
:10212000EA9408EB64809480503A900039E0FC33E4
:102130009292900001C002C003C00412043DD0047A
:10214000D003D002D291EC2CFC900039F090000129
:10215000C002C00312043DD003D002C2910ABA00EB
:10216000BE0B80BB1222457A007B00C3EA9408EBC9
:1021700064809480503A900038E0FC339292900052
:1021800001C002C003C00412043DD004D003D00239
:10219000D291EC2CFC900038F0900001C002C003FA
:1021A00012043DD003D002C2910ABA00BE0B80BB1C
:1021B000122245900037E0FA7B007C00C3EB9410BC
:1021C000EC6480948040012290003AEAF07D007E29
:1021D00000C3ED9408EE64809480505290003AE081
:1021E000FF339292900001C002C003C004C005C03A
:1021F00006C00712043DD007D006D005D004D00396
:10220000D002D291EF2FFF90003AF0900001C0026F
:10221000C003C004C005C00612043DD006D005D0DE
:1022200004D003D002C2910DBD00A60E80A3C0024F
:10223000C003C004122245D004D003D0020BBB005F
:10224000010C0221BCD29290000112043DD2919067
:10225000000112043D2092FD90000112043DC29144
:1022600022121E377A007B00C3EA9409EB64809443
:10227000805037D292900001C002C00312043DD0BA
:1022800003D002D291900001C002C00312043DD0DD
:1022900003D002C291900001C002C00312043DD0DD
:1022A00003D0020ABA00C10B80BE121E3790000193
:1022B00012043D021E57E58290003DF090003CE084
:1022C000FA740F5AFBF582C0021203B0AB82D0023F
:1022D000EAC4540F30E30244F0FA90003CF090005E
:1022E0003CE0FA53020F8A82C0031203B0AA82D0E4
:1022F0000390003DE0FC740F5CFDF582C002C0035A
:10230000C0041203B0AD82D004D003D002ECC45498
:102310000F30E30244F0FC90003DF090003DE0FC03
:1023200053040F8C82C002C003C0051203B0AC82FC
:10233000D005D003D00290003BE0FEF582C002C081
:1023400003C004C0051203B0AE82D005D004D00390
:10235000D00290003EE0FFA3E0F8BF040AB80007F7
:1023600090003EE4F0A3F0C002C003C004C005C06A
:102370000690003EE0C0E0A3E0C0E0745DC0E07401
:102380004EC0E0123AF1E58124FCF581D006D0057B
:10239000D004D003D002C28C90003EE0FFA3E0F84E
:1023A000900007E4F08F82C002C003C004C005C0E3
:1023B00006120246D006D005D004D003D002900009
:1023C0000AC002C003C004C005C00612043DD00606
:1023D000D005D004D003D002758230C002C003C043
:1023E00004C005C0061201B5D006D005D004D00344
:1023F000D00290000AC002C003C004C005C006128B
:10240000043DD006D005D004D003D0028E82C00295
:10241000C003C004C0051201B5D005D004D003D05C
:102420000290000AC002C003C004C00512043DD0DF
:1024300005D004D003D0028C82C002C003C00512B4
:1024400001B5D005D003D00290000AC002C003C07D
:102450000512043DD005D003D0028D82C002C00316
:102460001201B5D003D00290000AC002C0031204CA
:102470003DD003D002904E6975F080C002C00312B7
:102480000155D003D00290000AC002C00312043DDF
:10249000D003D0028A82C0031201B5D00390000A93
:1024A000C00312043DD0038B821201B590000A12C2
:1024B000043D9000077409F07582031202469000F3
:1024C0000A12043DD28C90003EE0FAA3E0FB90009B
:1024D0003E74012AF0E43BA3F022746CC0E0744E19
:1024E000C0E0123AF1158115817485C0E0744EC0C8
:1024F000E0123AF1158115819000BDE4F09000BE24
:102500007403F0E4A3F090001175F000123A80908B
:102510000040E4F0A3F07A007B00C3EA9403EB648C
:1025200080948040030225FDC002C0031230B1AC8C
:1025300082D003D002C374AF8CF063F08095F0E4D6
:1025400033FD6008C3EC648094BB402EC374E08C00
:10255000F063F08095F0E433FE6008C3EC6480948F
:10256000E74017C374C08CF063F08095F0E433FF4C
:102570006016C3EC648094C7500EEA2411F582EB18
:102580003400F583ECF08032ED6008C3EC64809495
:10259000BB4027EE6008C3EC648094E7401CEF600A
:1025A00008C3EC648094C7401174A3C0E0744EC0AB
:1025B000E0123AF1158115818043EA4B702FEA242D
:1025C00011F582EB3400F583E0FCC3648094B040E5
:1025D0000B74B78CF063F08095F0501174EBC0E091
:1025E000744EC0E0123AF11581158180100ABA00CC
:1025F000010B900040EAF0A3EBF002251A90004096
:10260000E0FAA3E0FBC3EA9403EB648094805003F8
:102610000224DA900042E4F07A017B00C3EA9403DA
:10262000EB64809480400302293FEA2411FCEB34E0
:1026300000FD8C828D83E0FEC3648094B0405174B1
:10264000B98EF063F08095F04046EE24D0FE8C8287
:102650008D83F0BA011BBB00188C828D83E0FEC411
:1026600054F0FE900042E0FF900042EE2FF002296D
:1026700037BA0205BB000280030229378C828D83A2
:10268000E0FC900042E0FD900042EC2DF002293782
:10269000EA2411F582EB3400F583E0FCC3648094F6
:1026A000C150030227F4C374C68CF063F08095F028
:1026B00050030227F4BC41028020BC4202804ABC85
:1026C0004303022738BC4403022767BC45030227A3
:1026D00096BC46030227C5022937BA0112BB000F78
:1026E000900042E0FD90004274A02DF0022937BA1C
:1026F0000205BB00028003022937900042E0FD90F2
:102700000042740A2DF0022937BA0112BB000F9063
:102710000042E0FD90004274B02DF0022937BA0269
:1027200005BB00028003022937900042E0FD9000C3
:1027300042740B2DF0022937BA0112BB000F900032
:1027400042E0FD90004274C02DF0022937BA020524
:10275000BB00028003022937900042E0FD90004256
:10276000740C2DF0022937BA0112BB000F90004201
:10277000E0FD90004274D02DF0022937BA0205BB6B
:1027800000028003022937900042E0FD900042746D
:102790000D2DF0022937BA0112BB000F900042E064
:1027A000FD90004274E02DF0022937BA0205BB000B
:1027B000028003022937900042E0FD900042740E2F
:1027C0002DF0022937BA0112BB000F900042E0FD44
:1027D00090004274F02DF0022937BA0205BB0002C6
:1027E0008003022937900042E0FD900042740F2DD3
:1027F000F0022937C3EC648094E15003022937C307
:1028000074E68CF063F08095F05003022937BC61C8
:10281000028020BC6202804ABC6303022891BC642F
:10282000030228C0BC65030228E9BC660302291123
:10283000022937BA0112BB000F900042E0FC900061
:102840004274A02CF0022937BA0205BB00028003B3
:10285000022937900042E0FC900042740A2CF002FA
:102860002937BA0112BB000F900042E0FC900042F1
:1028700074B02CF0022937BA0205BB0002800302B3
:102880002937900042E0FC900042740B2CF00229A2
:1028900037BA0112BB000F900042E0FC9000427476
:1028A000C02CF0022937BA0205BB000280030229BE
:1028B00037900042E0FC900042740C2CF002293763
:1028C000BA0112BB000F900042E0FC90004274D0AD
:1028D0002CF0022937BA025FBB005C900042E0FC9A
:1028E000900042740D2CF0804EBA0111BB000E9086
:1028F0000042E0FC90004274E02CF0803ABA0237CB
:10290000BB0034900042E0FC900042740E2CF0803A
:1029100026BA0111BB000E900042E0FC9000427408
:10292000F02CF08012BA020FBB000C900042E0FCC9
:10293000900042740F2CF00ABA00010B02261C9082
:102940000042E0F58222742EC0E0744FC0E0123ADB
:10295000F1158115819000BDE4F09000BE7403F084
:10296000E4A3F090004675F000123A80900043E432
:10297000F0A3F07A007B00C3EA9402EB64809480B9
:102980004003022A27C002C0031230B1AC82D00338
:10299000D002C374AF8CF063F08095F0E433FD6037
:1029A00008C3EC648094BB402EC374E08CF063F0E9
:1029B0008095F0E433FE6008C3EC648094E7401730
:1029C000C374C08CF063F08095F0E433FF6016C3ED
:1029D000EC648094C7500EEA2446F582EB3400F58F
:1029E00083ECF08032ED6008C3EC648094BB402738
:1029F000EE6008C3EC648094E7401CEF6008C3EC11
:102A0000648094C7401174A3C0E0744EC0E0123AD1
:102A1000F11581158180100ABA00010B900043EA7C
:102A2000F0A3EBF0022977900043E0FAA3E0FBC3A8
:102A3000EA9402EB6480948050030229469000459A
:102A4000E4F07A007B00C3EA9402EB648094804057
:102A500003022D4CEA2446FCEB3400FD8C828D836E
:102A6000E0FEC3648094B0404F74B98EF063F08090
:102A700095F04044EE24D0FE8C828D83F0EA4B70BA
:102A8000188C828D83E0FEC454F0FE900045E0FF78
:102A9000900045EE2FF0022D44BA0105BB000280E4
:102AA00003022D448C828D83E0FC900045E0FD9074
:102AB0000045EC2DF0022D44EA2446F582EB34006B
:102AC000F583E0FCC3648094C15003022C0FC374EF
:102AD000C68CF063F08095F05003022C0FBC4102CD
:102AE000801FBC42028047BC4302806FBC4403028B
:102AF0002B88BC4503022BB5BC4603022BE2022DFA
:102B000044EA4B700F900045E0FD90004574A02D05
:102B1000F0022D44BA0105BB00028003022D44904F
:102B20000045E0FD900045740A2DF0022D44EA4B6B
:102B3000700F900045E0FD90004574B02DF0022D1F
:102B400044BA0105BB00028003022D44900045E019
:102B5000FD900045740B2DF0022D44EA4B700F9050
:102B60000045E0FD90004574C02DF0022D44BA01EF
:102B700005BB00028003022D44900045E0FD90005B
:102B800045740C2DF0022D44EA4B700F900045E087
:102B9000FD90004574D02DF0022D44BA0105BB0014
:102BA000028003022D44900045E0FD900045740D25
:102BB0002DF0022D44EA4B700F900045E0FD90008F
:102BC0004574E02DF0022D44BA0105BB00028003DC
:102BD000022D44900045E0FD900045740E2DF0025A
:102BE0002D44EA4B700F900045E0FD90004574F0D5
:102BF0002DF0022D44BA0105BB00028003022D44D2
:102C0000900045E0FD900045740F2DF0022D44C367
:102C1000EC648094E15003022D44C374E68CF063AD
:102C2000F08095F05003022D44BC6102801FBC620D
:102C3000028047BC6302806FBC6403022CD4BC6575
:102C400003022CFABC6603022D20022D44EA4B70CD
:102C50000F900045E0FC90004574A02CF0022D443C
:102C6000BA0105BB00028003022D44900045E0FC40
:102C7000900045740A2CF0022D44EA4B700F90002E
:102C800045E0FC90004574B02CF0022D44BA0105DB
:102C9000BB00028003022D44900045E0FC900045FB
:102CA000740B2CF0022D44EA4B700F900045E0FCB1
:102CB00090004574C02CF0022D44BA0105BB0002FF
:102CC0008003022D44900045E0FC900045740C2CDC
:102CD000F0022D44EA4B700E900045E0FC90004558
:102CE00074D02CF0805EBA015BBB0058900045E0C8
:102CF000FC900045740D2CF0804AEA4B700E900059
:102D000045E0FC90004574E02CF08038BA0135BBFA
:102D10000032900045E0FC900045740E2CF08024B9
:102D2000EA4B700E900045E0FC90004574F02CF0EA
:102D30008012BA010FBB000C900045E0FC900045EA
:102D4000740F2CF00ABA00010B022A46900045E0ED
:102D5000F58222E582900049F0900049E0FA8A036A
:102D60003395E0FCC002C003C004745CC0E0744F43
:102D7000C0E0123AF1E58124FCF581D002900048D0
:102D8000E0FB8B043395E0FDC002C003C004C00526
:102D9000746AC0E0744FC0E0123AF1E58124FCF59A
:102DA00081D003D002C002C0037477C0E0744FC06A
:102DB000E0123AF115811581D003D002C002C003A0
:102DC000121E37D003D002EA2AFA900049F0900090
:102DD00049E0FA90004A74404AF07A007C00C3EA65
:102DE0009408EC64809480504290004AE0FD339255
:102DF00092900001C002C003C004C00512043DD07F
:102E000005D004D003D002D291ED2DFD90004AF000
:102E1000900001C002C003C00412043DD004D003DE
:102E2000D002C2910ABA00B60C80B3C00312224588
:102E3000D003900049E0FAA2E713FA900049F0901D
:102E40000049E0FA8AF005F0EB800225E0D5F0FBBE
:102E5000900048F07A007B00C3EA9408EB64809409
:102E6000805048900048E0FC339292900001C002EC
:102E7000C003C00412043DD004D003D002D291ECB0
:102E80002CFC900048F0900001C002C00312043DE9
:102E9000D003D002C291900001C002C00312043DD1
:102EA000D003D0020ABA00B00B80AD122245D291F5
:102EB00090000112043DC291021E5790004CE4F0B4
:102EC000121E3790004B7441F07A007B00C3EA94E5
:102ED00008EB64809480503A90004BE0FC3392926F
:102EE000900001C002C003C00412043DD004D0030E
:102EF000D002D291EC2CFC90004BF0900001C0026B
:102F0000C00312043DD003D002C2910ABA00BE0B26
:102F100080BB12224590000112043DD2927A077BB9
:102F200000EB20E752D291900001C002C0031204CE
:102F30003DD003D002E4A29233FC8AF005F07D007C
:102F40008006EC2CFCED33FDD5F0F790004CE0FE54
:102F50004CF0900001C002C00312043DD003D00227
:102F6000C291900001C002C00312043DD003D00200
:102F70001ABAFF011B80AAD29190000112043DC22F
:102F800091121E5790004CE0F58222E58290004D90
:102F9000F090004DE0FA90004EF0EA3395E0A3F097
:102FA0007A007B00C3EA9408EB64809480504E90D2
:102FB000004EE0FCA3E0FD5304017D00BC0120BDF8
:102FC000001DC002C003C002C0037485C0E0744F7E
:102FD000C0E0123AF1E58124FCF581D003D00290E3
:102FE000004EE0FCA3E0FDA2E713CC13CCFD900063
:102FF0004EECF0A3EDF00ABA00AA0B80A79000FBFC
:10300000E0FAA3E0FBC374019A74808BF063F08054
:1030100095F0500C1A1A9000B2E4F08A820238BC83
:01302000228D
:104521000A0D2D2D2D2D2D2D2D2D2D2D2D2D2D2DFD
:104531002D2D2D2D2D2D2D2D2D2D2D2D2D2D2D2DAA
:104541002D2D2D2D2D2D2D2D2D2D2D2D2D2D2D2D9A
:104551002D2D2D2D2D2D2D0A0D0055736572204DFC
:10456100656E7520666F722049324320616E64204A
:104571004C434420446973706C61790A0D000A0D43
:1045810053656C65637420616E206F7074696F6E22
:104591002066726F6D207468652062656C6F77208C
:1045A1006D656E753A0A0D000A0D313A2057726930
:1045B100746520627974650A0D000A0D323A205241
:1045C100656164206D656D6F727920627974650A29
:1045D1000D000A0D333A204C434420446973706C3A
:1045E10061790A0D000A0D343A20486578206D651D
:1045F1006D6F72792064756D700A0D000A0D353A80
:10460100204C434420746573740A0D000A0D363A38
:1046110020436F70792064617461206279746573DD
:104621000A0D000A0D373A204372656174652063F3
:104631007573746F6D206368617261637465720A6A
:104641000D000A0D383A205761746368646F672062
:1046510054696D65722052657365740A0D000A0D07
:10466100393A20492F4F20457870616E6465720A8E
:104671000D000A0D413A2054696D656420426C6F4A
:10468100636B2046696C6C0A0D000A0D423A204D9D
:1046910065617375726520454550524F4D207772A3
:1046A1006974652074696D65730A0D000A0D433ADA
:1046B10020436C6F636B206F7074696F6E730A0DAA
:1046C10000496E636F7272656374206F7074696FF5
:1046D1006E2E20506C6561736520656E7465722065
:1046E1006F6E65206F66207468652061626F766504
:1046F100206F7074696F6E7320312D390A0D000AB5
:104701000D2D2D2D2D2D2D2D2D2D2D2D2D2D2D2DF8
:104711002D2D2D2D2D2D2D2D2D2D2D2D2D2D2D2DC8
:104721002D2D2D2D2D2D2D2D2D2D2D2D2D2D2D2DB8
:104731002D2D2D2D2D0A0D000A0D4279746520575E
:104741007269746520616E6420526561640A0D00AE
:104751000A0D50616765626C6F636B2073656C65F0
:10476100637465642069733A2025780A0D004164F9
:10477100647265737320746F206265207772697447
:1047810074656E20746F2069733A20253032780A7F
:104791000D0044617461206279746520746F206238
:1047A10065207772697474656E2069733A202530CB
:1047B10032780A0D00446174612057726974652072
:1047C1007375636365737366756C0A0D0044617478
:1047D10061205265616420737563636573736675E7
:1047E1006C0A0D00446174612072657472696576AA
:1047F10065643A2025303278005072657373206108
:104801006E79206B657920746F20636F6E74696EA9
:1048110075650A0D00507265737320277127207426
:104821006F20717569740A0D000A0D427974652053
:10483100526561640A0D004164647265737320748A
:104841006F20626520726561642066726F6D2069F8
:10485100733A20253032780A0D000A0D4C4344206A
:10486100446973706C61790A0D0050616765626C0F
:104871006F636B2073656C65637465642069733A5B
:104881002025780A0D004164647265737320746F8A
:1048910020626520726561642069733A2025303297
:1048A100780A0D00454550524F4D20484558204447
:1048B100554D5020444953504C41590A0D00456E05
:1048C10074657220737461727420616464726573BB
:1048D1007320666F72206865782064756D7020643E
:1048E1006973706C61790A0D00537461727420618F
:1048F1006464726573733A2025780A0D00456E74FD
:10490100657220656E6420616464726573732066EC
:104911006F72206865782064756D702064697370AA
:104921006C61790A0D00456E64206164647265737F
:10493100733A2025780A0D0052616E67653A202589
:10494100780A0D000A0D302578253032783A20009A
:104951003078253032782020000A0D0A0D5072651A
:10496100737320616E79206B657920746F20636F9A
:104971006E74696E75650A0D00416E696B65740030
:104981004B756D6172204F4C535353000A0D436FA9
:10499100707920646174612062797465730A0D0015
:1049A1000A0D456E74657220536F757263652061DF
:1049B1006464726573730A0D00536F7572636520C9
:1049C100616464726573733A20253032780A0D0090
:1049D1000A0D456E7465722044657374696E617465
:1049E100696F6E20616464726573730A0D004465BA
:1049F1007374696E6174696F6E206164647265734A
:104A0100733A20253032780A0D000A0D456E74651F
:104A110072206E756D626572206F662062797465B1
:104A21007320746F20626520636F706965640A0D7D
:104A3100006E756D203D2025780A0D00536F75724B
:104A4100636520446174613A20253032780A0D0093
:104A51000A0D43726561746520637573746F6D200F
:104A61006368617261637465720A0D000A0D456EB7
:104A71007465722063686172616374657220636F2B
:104A810064652066726F6D2030302D30370A0D005D
:104A91000A0D456E74657220726F772076616C75B0
:104AA100657320666F722074686520637573746F17
:104AB1006D206368617261637465720A0D000A0D8D
:104AC100456E746572203520706978656C20766159
:104AD1006C75657320666F7220726F772025642074
:104AE1000A0D000A0D496E76616C696420696E7069
:104AF10075742E20506C6561736520656E746572E6
:104B01002062696E61727920696E7075742E0A0D6A
:104B1100000A0D00256420000A0D492F4F20457819
:104B210070616E6465720A0D00456E746572206F66
:104B31006E65206F662074686520666F6C6C6F7798
:104B4100696E67206F7074696F6E733A0A0D003178
:104B51002D577269746520746F20706F72742070A4
:104B6100696E730A0D00322D526561642066726FA1
:104B71006D20506F72742050696E730A0D000A0D1A
:104B8100494F42797465526561643A202578000A7B
:104B91000D456E746572206461746120746F2062CA
:104BA10065207772697474656E20746F20494F2097
:104BB100706F72743A0A0D000A0D54696D656420B4
:104BC100426C6F636B2046696C6C0A0D000A0D45DF
:104BD1006E746572205374617274206164647265CD
:104BE100737320666F7220626C6F636B2066696CF1
:104BF1006C0A0D0053746172742061646472657390
:104C0100733A20253032780A0D000A0D456E74651D
:104C11007220456E64206164647265737320666FEF
:104C21007220626C6F636B2066696C6C0A0D0045C3
:104C31006E6420616464726573733A202530327842
:104C41000A0D000A0D456E74657220746865207640
:104C5100616C756520666F7220626C6F636B206694
:104C6100696C6C0A0D000A0D4D65617375726520E2
:104C7100454550524F4D2077726974652074696DB6
:104C810065730A0D000A0D427974652077726974A3
:104C910065206D6F64650A0D000A0D456E746572BD
:104CA1002053746172742061646472657373206649
:104CB1006F7220627974652077726974653A0A0DA2
:104CC100000A0D456E746572206E756D6265722005
:104CD1006F6620627974657320746F206265207736
:104CE10072697474656E3A0A0D000A0D456E746539
:104CF1007220746865206461746120666F7220623D
:104D01007974652077726974650A0D006E756D3A64
:104D11002025780A0D000A0D5061676520777269B8
:104D21007465206D6F64650A0D000A0D456E74652A
:104D310072205374617274206164647265737320AC
:104D4100666F722070616765207772697465206F84
:104D51006620313032342062797465730A0D000A9D
:104D61000D456E746572206E756D626572206F6699
:104D710020706167657320746F20626520777269A6
:104D81007474656E3A0A0D000A0D456E74657220E1
:104D9100746865206461746120666F722070616758
:104DA100652077726974650A0D000A0D6E756D3A9A
:104DB1002025780A0D000A0D436C6F636B204D6549
:104DC1006E75206F7074696F6E730A0D000A0D4362
:104DD100686F6F7365206F6E65206F6620746865FC
:104DE1002062656C6F77206F7074696F6E730A0D46
:104DF1000031202D2053746F7020636C6F636B0A38
:104E01000D0032202D205265737461727420636C21
:104E11006F636B0A0D0033202D205265736574207A
:104E2100636C6F636B0A0D000A436C6F636B2073D5
:104E3100746F707065640D00436C6F636B207265F5
:104E4100737461727465640A0D000A436C6F636B5D
:104E51002072657365747465640A0D00726F7776EC
:104E6100616C3A25780A0D003A20000A456E746596
:104E71007220454550524F4D2061646472657373D1
:104E81003A0A0D000A416464726573732052616EBF
:104E910067653A2030303068202D20374646680A51
:104EA1000D000A0D506C6561736520656E74657245
:104EB1002068657861646563696D616C20696E70F5
:104EC10075742E205370656369616C20636861722B
:104ED10061637465727320617265206E6F74206105
:104EE1006C6C6F7765642E0A0D000A0D4164647263
:104EF100657373206F7574206F662072616E6765CC
:104F01002E20456E7465722061646472657373202E
:104F1100696E207468652072616E6765206F662016
:104F2100303030682D374646682E0A0D000A456E2E
:104F3100746572206461746120746F2062652077EA
:104F410072697474656E20746F20454550524F4DDF
:104F510020696E206865783A0A0D000A0D626C6F4F
:104F6100636B3A2025780A0D000A696F696E643A0D
:104F71002025780A0D000A0D436F6E66494F45786A
:104F8100700A0D000A0D496E746572727570742095
:0D4F91006F6E20506F72742025780A0D009D
:044FB20000000000FB
:10302100759850438920758DFDD28ED29922AAF0D0
:10303100AB83E582900050F0A3EBF0A3EAF090009F
:1030410050E0FAA3E0FBA3E0FC7D007E008A828BC6
:10305100838CF01244E4FF60300ABA00010B900047
:1030610050EAF0A3EBF0A3ECF08F82C002C003C0E2
:1030710004C005C00612309FD006D005D004D0038D
:10308100D0020DBD00C70E80C4900050EAF0A3EB42
:10309100F0A3ECF00DBD00010E8D828E8322E5823E
:1030A100900053F03099FD900053E0F599C29922B8
:1030B10010980280FBAA998A8222900062E4F0A310
:1030C100F090005AE4F0A3F090005EE4F0A3F090D9
:1030D100005CE4F0A3F0900060E4F0A3F0900064E1
:1030E100E4F0A3F0900066E4F0A3F0900068E4F04F
:1030F100A3F090006AE4F0A3F090006CE4F0A3F078
:1031010090006EE4F0A3F0900070E4F0A3F0900062
:1031110072E4F0A3F0900074E4F0A3F0900076E480
:10312100F0A3F0900096E4F0A3F0A3F0A3F09000D8
:103131009AE4F0A3F0A3F0A3F090009EE4F0A3F0D2
:10314100A3F0A3F09000A2E4F0A3F0A3F0A3F09009
:103151000054E4F0A3F0900056E4F0A3F043890199
:10316100758C3C758AB0D2AFD2A9D28CD2A875C960
:103171000175C80175CB3C75CAB0D2CA22C0E0C086
:10318100F0C082C083C002C003C004C005C006C035
:1031910007C000C001C0D075D000900054E0FAA370
:1031A100E0FB90005474012AF0E43BA3F0758C3CE1
:1031B100758AB09000FBE0FAA3E0FBC3E49A748047
:1031C1008BF063F08095F05013900056E0FAA3E085
:1031D100FB90005674012AF0E43BA3F0900054E008
:1031E100FAA3E0FBC374019AE49B40030232F1901D
:1031F1000054E4F0A3F0900062E0FAA3E0FB900039
:103201006274012AF0E43BA3F012397F900062E07E
:10321100FAA3E0FBC374099A74808BF063F0809584
:10322100F040030232F1900062E4F0A3F090005EFE
:10323100E0FAA3E0FB90005E74012AF0E43BA3F006
:1032410090005EE0FAA3E0FBC374099A74808BF0EE
:1032510063F08095F040030232F190005EE4F0A348
:10326100F0900060E0FAA3E0FB90006074012AF0A6
:10327100E43BA3F0900060E0FAA3E0FBBA0671BB67
:10328100006E90005EE4F0A3F0900060E4F0A3F023
:1032910090005AE0FAA3E0FB90005A74012AF0E48E
:1032A1003BA3F090005AE0FAA3E0FBC3740A9A74BE
:1032B100808BF063F08095F0503690005AE4F0A3D3
:1032C100F090005CE0FAA3E0FB90005C74012AF04E
:1032D100E43BA3F090005CE0FAA3E0FBBA0611BB6B
:1032E100000E90005AE4F0A3F090005CE4F0A3F02B
:1032F100900056E0FAA3E0FBC374019AE49B4003FB
:10330100023405900056E4F0A3F090006CE0FAA3BB
:10331100E0FB90006C74012AF0E43BA3F09000FB09
:10332100E0FAA3E0FBC3EA9406EB64809480500CBE
:103331009000AC7409F07582001237CD90006CE0FA
:10334100FAA3E0FBC374099A74808BF063F0809553
:10335100F0400302340590006CE4F0A3F0900068A3
:10336100E0FAA3E0FB90006874012AF0E43BA3F0CB
:10337100900068E0FAA3E0FBC374099A74808BF0B3
:1033810063F08095F04003023405900068E4F0A3F7
:10339100F090006AE0FAA3E0FB90006A74012AF061
:1033A100E43BA3F090006AE0FAA3E0FBBA0655BB48
:1033B1000052900068E4F0A3F090006AE4F0A3F0FA
:1033C100900064E0FAA3E0FB90006474012AF0E449
:1033D1003BA3F0900064E0FAA3E0FBC3740A9A7483
:1033E100808BF063F08095F0501A900064E4F0A3B4
:1033F100F0900066E0FAA3E0FB90006674012AF009
:10340100E43BA3F0D0D0D001D000D007D006D00546
:10341100D004D003D002D083D082D0F0D0E032AA41
:10342100F0AB83E5829000A6F0A3EBF0A3EAF09065
:1034310000A6E0FAA3E0FBA3E0FC90005AE0FDA3A4
:10344100E0FE8A828B838CF0ED123AD8A3EE123A19
:10345100D874022AFDE43BFE8C0790005CE0F8A3DF
:10346100E0F98D828E838FF0E8123AD8A3E9123AFF
:10347100D874042AFDE43BFE8C0790005EE0F8A3BB
:10348100E0F98D828E838FF0E8123AD8A3E9123ADF
:10349100D874062AFDE43BFE8C07900060E0F8A397
:1034A100E0F98D828E838FF0E8123AD8A3E9123ABF
:1034B100D874082AFAE43BFB900062E0FDA3E0FE29
:1034C1008A828B838CF0ED123AD8A3EE023AD8AA05
:1034D100F0AB83E5829000A9F0A3EBF0A3EAF090B2
:1034E10000A9E0FAA3E0FBA3E0FC900064E0FDA3E7
:1034F100E0FE8A828B838CF0ED123AD8A3EE123A69
:10350100D874022AFDE43BFE8C07900066E0F8A324
:10351100E0F98D828E838FF0E8123AD8A3E9123A4E
:10352100D874042AFDE43BFE8C07900068E0F8A300
:10353100E0F98D828E838FF0E8123AD8A3E9123A2E
:10354100D874062AFDE43BFE8C0790006AE0F8A3DC
:10355100E0F98D828E838FF0E8123AD8A3E9123A0E
:10356100D874082AFAE43BFB90006CE0FDA3E0FE6E
:103571008A828B838CF0ED123AD8A3EE023AD8906E
:103581000080E0FAA3E0FB90006CE0FCA3E0FDC347
:10359100EC9AED64808BF063F08095F0E433FE707B
:1035A1000D900076ECC39AF0ED9BA3F08012740AA3
:1035B1002CFCE43DFD900076ECC39AF0ED9BA3F06A
:1035C10090007CE0FAA3E0FB900068E0FCA3E0FD42
:1035D100C3EC9AED64808BF063F08095F0E433FFE7
:1035E1007025EE6015EC24FFF8ED34FFF9900072C0
:1035F100E8C39AF0E99BA3F08036900072ECC39A7D
:10360100F0ED9BA3F08029EE601474092CFEE43DDB
:10361100F8900072EEC39AF0E89BA3F08012740A4E
:103621002CFCE43DFD900072ECC39AF0ED9BA3F0FD
:1036310090007EE0FAA3E0FB90006AE0FCA3E0FDCD
:10364100C3EC9AED64808BF063F08095F0E433FE77
:103651007025EF6015EC24FFF8ED34FFF99000744C
:10366100E8C39AF0E99BA3F08036900074ECC39A0A
:10367100F0ED9BA3F08029EF601474092CFFE43D69
:10368100F8900074EFC39AF0E89BA3F08012740ADB
:103691002CFCE43DFD900074ECC39AF0ED9BA3F08B
:1036A100900078E0FAA3E0FB900064E0FCA3E0FD69
:1036B100C3EC9AED64808BF063F08095F0E433FF06
:1036C1007025EE6015EC24FFF8ED34FFF990006EE3
:1036D100E8C39AF0E99BA3F0803690006EECC39AA0
:1036E100F0ED9BA3F08029EE601474092CFEE43DFB
:1036F100F890006EEEC39AF0E89BA3F08012740A72
:103701002CFCE43DFD90006EECC39AF0ED9BA3F020
:1037110090007AE0FAA3E0FB900066E0FCA3E0FDF4
:10372100C3EC9AED64808BF063F08095F04023EF59
:103731006014EC24FFFEED34FFF8900070EEC39AA4
:10374100F0E89BA3F022900070ECC39AF0ED9BA3EC
:10375100F022EF601374092CFEE43DFF900070EE3F
:10376100C39AF0EF9BA3F022740A2CFCE43DFD9078
:103771000070ECC39AF0ED9BA3F022900064E0FA94
:10378100A3E0FB900078EAF0A3EBF0900066E0FA8A
:10379100A3E0FB90007AEAF0A3EBF0900068E0FA76
:1037A100A3E0FB90007CEAF0A3EBF090006AE0FA62
:1037B100A3E0FB90007EEAF0A3EBF090006CE0FA4E
:1037C100A3E0FB900080EAF0A3EBF022E5829000F9
:1037D100ADF090008C75F0001234D09000FBE0FA4F
:1037E100A3E0FBC3EA9406EB64809480400122BA13
:1037F100050EBB000B9000FB74012AF0E43BA3F023
:10380100900094E0FAA3E0FB900101E0FCA3E0FD4D
:10381100EAB50405EBB5050122900101EAF0A3EB3D
:10382100F09000ADE0FA9000ACE0FB900007F08A68
:103831008212024690000112043D900094E0FAA326
:10384100E0FB9000AE74302AF0900092E0FAA3E021
:10385100FB9000B074302AF0900090E0FAA3E0FBF6
:103861009000AF74302AF090008EE0FAA3E0FB7470
:10387100302AFA90008CE0FBA3E0FC9000B1743098
:103881002BF08A821201B59000B1E0FAF5821201A3
:10389100B575823A1201B59000B0E0FAF5821201D5
:1038A100B59000AFE0FAF5821201B575822E1201D2
:1038B100B59000AEE0FAF5820201B5E5829000B361
:1038C100F090008C75F0001234D012358012377CE4
:1038D1009000FBE0FAA3E0FBC3EA9406EB6480945A
:1038E100804001229000B3E0FA9000B2E0FB90002A
:1038F10007F08A8212024690000112043D90007680
:10390100E0FAA3E0FB9000B474302AF0900074E078
:10391100FAA3E0FB9000B674302AF0900072E0FA4E
:10392100A3E0FB9000B574302AF0900070E0FAA398
:10393100E0FB74302AFA90006EE0FBA3E0FC9000FB
:10394100B774302BF08A821201B59000B7E0FAF516
:10395100821201B575823A1201B59000B6E0FAF50E
:10396100821201B59000B5E0FAF5821201B57582B7
:103971002E1201B59000B4E0FAF5820201B5900073
:103981008275F00012342090008AE0FAA3E0FB90E7
:1039910000FFE0FCA3E0FDEAB50405EBB50501225B
:1039A1009000FFEAF0A3EBF09000B874302AF09099
:1039B1000088E0FAA3E0FB9000BA74302AF090008E
:1039C10086E0FAA3E0FB9000B974302AF0900084FD
:1039D100E0FAA3E0FB9000BC74302AF0900082E092
:1039E100FAA3E0FB9000BB74302AF0900007740941
:1039F100F075820312024690000112043D9000BC52
:103A0100E0FAF5821201B59000BBE0FAF5821201ED
:103A1100B575823A1201B59000BAE0FAF582120149
:103A2100B59000B9E0FAF5821201B575822E120146
:103A3100B59000B8E0FAF5820201B5C0E0C082C0DD
:103A410083C002C003C0D075D000900058E0FAA333
:103A5100E0FB90005874012AF0E43BA3F075CD3CE3
:103A610075CCB075A61E75A6E1D0D0D003D002D01A
:0F3A710083D082D0E032C2CA75A61E75A6E122AC
:044FB600FFFFFFFFFB
:06005D00E478FFF6D8FD77
:103A8000AAF0AB83E5829000C0F0A3EBF0A3EAF0CC
:103A90009000C0E0FAA3E0FBA3E0FC9000BDE0FDD5
:103AA0009000BEE0FEA3E0FF8E008F011EBEFF016E
:103AB0001FE84960118A828B838CF0ED123AD8A3FB
:103AC000AA82AB8380E29000C0E0FAA3E0FBA3E00F
:083AD000FC8A828B838CF0223A
:10003B007911E94400601B7A01904FA978F275A001
:10004B0000E493F2A308B8000205A0D9F4DAF27524
:02005B00A0FF04
:103AD80020F71030F6118883A88220F507F6A8830E
:103AE80075830022F280F7F022C012858112E51258
:103AF80024FDF8868318868218E493A324DB600CDF
:103B080024256005123BDE80F0023BF6D2D5E49313
:103B1800A3C083C082B4731486F018868318868283
:103B2800181244E46053A3123BDE80F5B46307E641
:103B380018123BDE8043B46417E630E74618E6F413
:103B48002401F608E6F43400F6742D123BDE8033C7
:103B5800B4782D868318868218E4123BCFE5831249
:103B68003BCEE583123BCFE582123BCEE582123B8A
:103B7800CF30D5057430123BDED082D083023B01B2
:103B8800B475F6E6FA18E6F9187C107D27123BB9E9
:103B9800FF7CE87D03123BB9C4F5837C647D001289
:103BA8003BB94283E975F00A84C445F0F582EF8099
:103BB800A97B000BC3E99CF9EA9DFA50F61BE92C96
:103BC800F9EA3DFAEB22C4540F700320D51FC2D581
:103BD8002490D43440D4C083C082C0F0F582E8C0B9
:103BE800E012309FD0E0F8D0F0D082D08322D012FB
:013BF80022AA
:100063007800E84400600A790075A000E4F309D839
:10007300FC78F2E84400600C7901900000E4F0A3FE
:04008300D8FCD9FAD2
:103BF900C012858112AA8212309FD01222AAF0AB7C
:103C090083E5829000C5F0A3EBF0A3EAF09000C52C
:103C1900E0FAA3E0FBA3E0FC9000C4E0FD9000D82B
:103C2900E4F0A3F0A3F09000DBEAF0A3EBF0A3EC3F
:103C3900F09000DEEDF0903BF9023D5EC012858107
:103C490012E51224FBFA9000D8E4F0A3F0A3F0E502
:103C59001224FBF89000DBE6F008A3E6F008A3E6DF
:103C6900F09000DEEAF0903BF9123D5EAA82AB8348
:103C7900D01222E5829000D4F09000D4E0FA9000AE
:103C8900CAE0C0E0A3E0C0E0A3E0C0E074AAC0E0DD
:103C9900743CC0E09000C8E0C0E0A3E0C0E08A82C4
:103CA900221581158115819000D2E0FAA3E0FB90DD
:103CB90000D274012AF0E43BA3F022E5829000D5FA
:103CC900F09000D5E0FA74302AFA24C6500A740735
:103CD9002AFA3000034302208A82023C7CE5829062
:103CE90000D6F09000D6E0FAC4540FFBF582C0026A
:103CF900123CC4D00253020F8A82023CC4E582906E
:103D090000D7F09000CDE0FAA3E0FBA3E0FCA3E02C
:103D1900FD9000D1E0FE9000D7E0FF7820EE2EFE66
:103D2900ED235401F94206EA2AFAEB33FBEC33FCA2
:103D3900ED33FDC3EE9F4007EEC39FFE430201D85A
:103D4900DC9000CDEAF0A3EBF0A3ECF0A3EDF0904A
:103D590000D1EEF022AA83E5829000DFF0A3EAF019
:103D69009000DFE0FAA3E0FB9000C8EAF0A3EBF0D3
:103D79009000D8E0FAA3E0FBA3E0FC9000CAEAF0C7
:103D8900A3EBF0A3ECF09000D2E4F0A3F09000DBF9
:103D9900E0FAA3E0FBA3E0FC8A828B838CF0124457
:103DA900E4FD9000DB74012AF0E43BA3F0A3ECF0FE
:103DB900ED7003024485BD2502800302447DC201E2
:103DC900C202C203C204C205C206C207C2089000E9
:103DD900E1E4F09000E2F09000E374FFF09000DB82
:103DE900E0FAA3E0FBA3E0FC8A828B838CF0124407
:103DF900E4FEA3AA82AB839000DBEAF0A3EBF0A375
:103E0900ECF09000E5EEF0BE25088E82123C7C02B3
:103E19003D968E07BF300040498E07EF24C64042C9
:103E29009000E3E0FFBFFF29C002C003C004900077
:103E3900E2E0FA75F00AA4FAEE24D09000E22AF042
:103E49009000E2E0FAD004D003D002709BD2028045
:103E590097EF75F00AA4FFEE24D09000E32FF0024B
:103E69003DF19000E5E0FEBE2E089000E3E4F0028B
:103E79003DF18E82C002C003C004C006124504E5AC
:103E89008224FF9200D006D004D003D0023000076C
:103E99009000E574DF5EF09000E5E0FEBE20028050
:103EA90055BE2B02804BBE2D028041BE4202804B83
:103EB900BE43028050BE44030240F2BE46030241A3
:103EC90014BE49030240F2BE4C028034BE4F0302C5
:103ED90040FCBE5003024054BE53028042BE55030B
:103EE900024104BE580302410C024118D201023DAD
:103EF900F1D203023DF1D204023DF1D206023DF1B5
:103F0900D207023DF19000DEE0FA24FEF89000DECF
:103F1900F08602088603188A82123C7C02412490AA
:103F290000DEE0FA24FDF89000DEF0860208860340
:103F390008860418189000CDEAF0A3EBF0A3ECF082
:103F49009000CDE0FAA3E0FBA3E0FC8A828B838C8E
:103F5900F0124491AA82AB839000E3E0FBBBFF051A
:103F69009000E3EAF02001389000E2E0FBC3EA9B0D
:103F7900502E9000E2EBC39AF09000E2E0FB8B0434
:103F89001B9000E2EBF0BC00028010758220C00299
:103F9900C003123C7CD003D00280E39000E2EBF036
:103FA9009000E3E0FDC0029000CDE0FCA3E0FFA398
:103FB900E0FA8C828F838AF01244E4D00260538D38
:103FC900041DC374808CF063F08095F05044C002E6
:103FD9009000CDE0F513A3E0F514A3E0F515740105
:103FE9002513FBE43514FAAC159000CDEBF0A3EAE8
:103FF900F0A3ECF08513828514838515F01244E44F
:10400900FAF582C002C005123C7CD005D002D0026C
:1040190080932001030241249000E2E0FBC3EA9B64
:1040290040030241249000E2EBC39AF09000E2E0E1
:10403900FA8A031A9000E2EAF0BB000302411F75F5
:104049008220C002123C7CD00280E69000DEE0FBB8
:1040590024FDF89000DEF086030886040886071818
:10406900189000CDEBF0A3ECF0A3EFF09000CFE0B7
:10407900FB247F50089000E57443F08020EB249FD7
:1040890050089000E57450F08013EB24BF5008905D
:1040990000E57449F080069000E57458F09000E559
:1040A900E0FBF582C003123C7CD00375823AC00361
:1040B900123C7CD003758230C003123C7CD003755E
:1040C9008278C003123C7CD003BB4902800FBB50ED
:1040D90002800A9000CEE0FBF582123CE69000CD0A
:1040E900E0FBF582123CE68032D2059000E1740AC9
:1040F900F080289000E17408F080209000E1740AB3
:10410900F080189000E17410F08010D208800C8EB5
:1041190082123C7C80059000E2EAF030086B900046
:10412900DEE0FA24FCF89000DEF086020886030837
:1041390086040886061818189000CDEAF0A3EBF05B
:10414900A3ECF0A3EEF09000CD749EF0A3744FF0B1
:10415900A37480F09000CDE0FBA3E0FCA3E0FD7424
:10416900012BFEE43CFF8D029000CDEEF0A3EFF0B1
:10417900A3EAF08B828C838DF01244E4FA70030277
:104189003D968A82123C7C80CB9000E1E0FABA002D
:1041990003023D969000EC74EBF0A37400F0300636
:1041A9004C9000DEE0FA14F89000DEF08602EA3363
:1041B90095E0FBFCFE9000CDEAF0A3EBF0A3ECF058
:1041C900A3EEF030050302426C9000CDE0FAA3E0C3
:1041D900FBA3E0FCA3E0FE7B007C007E009000CD09
:1041E900EAF0A3EBF0A3ECF0A3EEF0807630072A17
:1041F9009000DEE0FA24FCF89000DEF086020886E2
:10420900030886040886061818189000CDEAF0A35A
:10421900EBF0A3ECF0A3EEF080499000DEE0FA2485
:10422900FEF89000DEF0860208860318EB3395E06D
:10423900FCFE9000CDEAF0A3EBF0A3ECF0A3EEF0C6
:104249002005209000CDE0FAA3E0FBA3E0FCA3E069
:10425900FE7C007E009000CDEAF0A3EBF0A3ECF029
:10426900A3EEF030053E9000CDE0FAA3E0FBA3E019
:10427900FCA3E0FE30E72B9000CDE0FAA3E0FBA31E
:10428900E0FCA3E0FEC3E49AFAE49BFBE49CFCE4B3
:104299009EFE9000CDEAF0A3EBF0A3ECF0A3EEF0C4
:1042A9008002C205D2099000E1E0FC7516EB751792
:1042B900007D009000D1E4F08C82C004C005123D5D
:1042C90006D005D004200932C0049000D1E0FFC413
:1042D900FF851682851783E0FA42078516828517BE
:1042E90083EFF0151674FFB5160215179000ECE56B
:1042F90016F0A3E517F0D004800C9000D1E0FF85FB
:104309001682851783F00D9000E4EDF0B209900054
:10431900CDE0FFA3E0FAA3E0FEA3E0FBEF4A4E4B9A
:1043290070919000ECE516F0A3E517F09000E4ED2C
:10433900F09000E2E0FA70069000E27401F02002C9
:104349002720012474012DFA9000E2E0FBC3EA9BC7
:104359005011758220C002C003123C7CD003D002E8
:104369001B80EA9000E2EBF030051275822D123CB9
:104379007C9000E2E0FA149000E2F0802F9000E4D3
:10438900E0FA602830031275822B123C7C9000E21F
:10439900E0FA149000E2F0801330041075822012C4
:1043A9003C7C9000E2E0FA149000E2F020012F90AA
:1043B90000E4E0FA9000E2E0FB8B041B9000E2EBE2
:1043C900F0C3EA9C50363002047C3080027C208C99
:1043D90082C002C003123C7CD003D00280DB900073
:1043E900E2E0FA9000E4E0FCC39A50099000E2EAA6
:1043F900C39CF0800C9000E2E4F080059000E2EBB1
:10440900F09000ECE0FAA3E0FB9000E4E0FC8C06FD
:104419001CEE6040B2092009150ABA00010B8A8214
:104429008B83E0FEC4540FFE9000D1F0800E8A8287
:104439008B83E0FE53060F9000D1EEF09000D1E09F
:10444900FEF582C002C003C004123CC4D004D003EC
:10445900D00280BA200103023D969000E2E0FA8A78
:10446900031AEB7003023D96758220C002123C7C50
:10447900D00280EB8D82123C7C023D969000D2E006
:08448900FAA3E08A82F5832208
:0B4F9E003C4E4F20464C4F41543E005B
:10449100AAF0AB83E5829000EEF0A3EBF0A3EAF083
:1044A1007A007B009000EEE0FCA3E0FDA3E0FE8C2F
:1044B100828D838EF01244E4FFA3AC82AD83900021
:1044C100EEECF0A3EDF0A3EEF0EF60070ABA00DF27
:1044D1000B80DC9000EEECF0A3EDF0A3EEF08A820D
:0344E1008B8322A8
:0D002E00758121124500E582600302047017
:1044E40020F71430F6148883A88220F507E6A88301
:1044F40075830022E280F7E49322E0227582002291
:10450400E5829000F1F09000F1E0FABA6100400910
:0D451400EA24854004758201227582002290
:00000001FF
