:060000000200060203E20B
:10005F0002006212006780FE1203B8758DFDD28E0A
:10006F0074ADC0E0741EC0E07480C0E01211B6150C
:10007F008115811581900000E4F0A3F0A374C0F006
:10008F00A3743FF0900000E0FAA3E0FBA3E0FCA311
:10009F00E0FDC002C003C004C005E4C0E0C0E074CE
:1000AF00C8C0E07441C0E08A828B838CF0ED120CE3
:1000BF007DAE82E58124FCF581D005D004D003D03C
:1000CF0002EE70030201FAE590759000900FDB7558
:1000DF00F0497440C002C003C004C0051209B685C0
:1000EF00820885830985F00AF50BD005D004D0036B
:1000FF00D002900005E4F0A3F0A37480F0A3743F46
:10010F00F08A828B838CF0EDC002C003C004C0055F
:10011F00120CADAE82AF83A8F0F9D005D004D00396
:10012F00D002C002C003C004C005E4C0E0C0E0C0FC
:10013F00E07440C0E08E828F8388F0E91203FFAE37
:10014F0082AF83A8F0F9E58124FCF581D005D004B6
:10015F00D003D002C002C003C004C005C006C00750
:10016F00C000C001850882850983850AF0E50B125E
:10017F001A6FAE82AF83A8F0F9E58124FCF581D028
:10018F0005D004D003D002439001C002C003C004C5
:10019F00C005C006C007C000C00174C8C0E0741E0F
:1001AF00C0E01204A2E58124FAF581D005D004D075
:1001BF0003D00274CDC0E074CCC0E0744CC0E074C6
:1001CF003DC0E08A828B838CF0ED120E37AA82AB92
:1001DF0083ACF0FDE58124FCF581900000EAF0A3EB
:1001EF00EBF0A3ECF0A3EDF002009374E9C0E07420
:1001FF001EC0E07480C0E01211B615811581158103
:10020F003089FD1203D074ADC0E0741EC0E074805D
:10021F00C0E01211B6158115811581900000E4F030
:10022F00A3F0A374C0F0A3743FF0900000E0FAA312
:10023F00E0FBA3E0FCA3E0FDC002C003C004C005C7
:10024F00E4C0E0C0E074C8C0E07441C0E08A828BB3
:10025F00838CF0ED120C7DAE82E58124FCF581D00C
:10026F0005D004D003D002EE70030203A8438F0120
:10027F00E590759000900FDB75F0497440C002C097
:10028F0003C004C0051209B685820885830985F06D
:10029F000AF50BD005D004D003D002900005E4F08E
:1002AF00A3F0A37480F0A3743FF08A828B838CF049
:1002BF00EDC002C003C004C005120CADAE82AF8307
:1002CF00A8F0F9D005D004D003D002C002C003C0FB
:1002DF0004C005E4C0E0C0E0C0E07440C0E08E821E
:1002EF008F8388F0E91203FFAE82AF83A8F0F9E5A0
:1002FF008124FCF581D005D004D003D002C002C008
:10030F0003C004C005C006C007C000C00185088235
:10031F00850983850AF0E50B121A6FAE82AF83A8A9
:10032F00F0F9E58124FCF581D005D004D003D0028B
:10033F00439001758DFAD28EC002C003C004C00570
:10034F00C006C007C000C00174C8C0E0741EC0E082
:10035F001204A2E58124FAF581D005D004D003D090
:10036F000274CDC0E074CCC0E0744CC0E0743DC0EA
:10037F00E08A828B838CF0ED120E37AA82AB83ACAE
:10038F00F0FDE58124FCF581900000EAF0A3EBF08D
:10039F00A3ECF0A3EDF0020239741FC0E0741FC08C
:1003AF00E01204A215811581227598507589207568
:1003BF008DFDD28ED299D2AFD2A875A800538FFEE1
:1003CF0022759850758920758DFAD28ED299D2AF39
:1003DF00D2A8223210980280FBAA998A8222E58243
:1003EF00900004F03099FD900004E0F599C2992235
:101EAD00456E7465726564205831206D6F646520D0
:101EBD0061206E756D6265720A0D00546865206D46
:101ECD00617468206F7065726174696F6E206769E7
:101EDD007665732075732025660A0D0050726F7636
:101EED0069646520616E2065787465726E616C2021
:101EFD00696E7465727275707420494E5430207419
:101F0D006F20656E746572205832206D6F64650A9E
:101F1D000D00507265737320726573657420746F54
:101F2D002072657374617274207468652070726FAD
:071F3D006772616D0A0D00DF
:1003FF0012091CBC000302113CEF60FA30D502B2A7
:10040F00D1E583B4FF03021152E582B4FF03021159
:10041F0052258340072482400B02113C2483145041
:10042F0003021152F582EA8DF0A4A8F0EA8EF0A42F
:10043F0028F8E435F0F9EB8DF0A428E935F0F9E46C
:10044F0033CA8FF0A429F9EA35F0FAEBF88EF0A44D
:10045F0029F9EA35F0FAE433FBEC8DF0A429F9EA37
:10046F0035F0FAE43BFBE88FF0A42AFAEB35F0FB0A
:10047F00E433CCFD8EF0A42AFAEB35F0FBE43CFC20
:10048F00ED8FF0A42BFBEC35F0FC20E70312098D68
:10049F0002111BC016858116E51624FDF8868318F8
:1004AF00868218E493A3B42576C200C201C202C2A9
:1004BF0003C204C205790C7700C206E493A324C6D5
:1004CF004017240A50157005B50C02D205D204FA54
:1004DF00E775F00AA42AF780E2240A2430B46C04EA
:1004EF00D20080D7B46804D20180D0B47303020560
:1004FF0039B4640612080D020595B4750612080D7D
:10050F000205B5B46304E6188017B47803020574C6
:10051F00B466030206CAB42E06790D7700809C607C
:10052F00061208FF0204B2020919C083C08286F0C6
:10053F0018868318868218300419C205C082C083BA
:10054F00121B326007A3150CE50C70F41208EAD0E9
:10055F0083D082121B326006A31208FF80F5D0826F
:10056F00D0830204B212058C20010C12058C3000CE
:10057F000612058C12058C1209110204B2E612083C
:10058F00EFE6180208F0ED30E71CD203E9F424017E
:10059F00F9200112EAF43400FA30000AEBF43400C7
:1005AF00FBECF43400FC200110300008EB7025EC5C
:1005BF007022C200EA701DD201E97018300409E5FB
:1005CF000C6005150C1208EA74301208FF30060192
:1005DF00220204B2C082C083120827300460790A55
:1005EF0030001DEB54F0703619EB540F703019EAD0
:1005FF0054F0702A19EA540F702419EF54F0701E3A
:10060F00790520010BEF540F701419EE54F0700E92
:10061F007903EE540F700719ED54F0700119E50CC2
:10062F00A203994019F50CC003C002C007C006C051
:10063F00051208EAD005D006D007D002D003300348
:10064F0019C003C002C007C006C005742D1208FFF1
:10065F00D005D006D007D002D00320014030002CA7
:10066F00C005C006C0078A82EBF5831208EFE58349
:10067F001208F0E5821208EFE5821208F0D0E0F5DB
:10068F00821208EFE582D083D08280058D828E831F
:10069F00EF1208F0E5831208EFE58380038D82EEF9
:1006AF001208F0E5821208EFE5821208F012091124
:1006BF00D083D082300601220204B230040EE50C42
:1006CF00D3950DF50C5023750C00801E880119AEC3
:1006DF0082AF839021107D07E49327A3E4933650D4
:1006EF0003A3DDF48D0D8E828F83C0001207EFC040
:1006FF0082C083EFB47E02801940112482FDC3EAC9
:10070F0033FAEB33FBEC33FCDDF48006F4247F1279
:10071F00094A75F01BE4F8FFFEFD9020A4E933F9B8
:10072F00EA33FAEB33FBEC33FC5017E4932DD4FD93
:10073F007401933ED4FE7402933FD4FF7403933835
:10074F00D4F8A3A3A3A3D5F0D4E47C50FBFAF9E526
:10075F000D232354FC888312094AED29D4F511EE99
:10076F003AD4F510EF3BD4F50FE5833CD4F50E9258
:10077F00D5D083D082D0001207EFC000C3749E9FE4
:10078F0050030204CAC08212094AD08230D50FE941
:10079F002401F9E43AFAE43BFBE43CFC40E4D206E2
:1007AF001205B520040CE50D60081207DF7003D5A4
:1007BF000DF4E50D6015742E1208FF7800D20208B3
:1007CF00E81207DF1208F0E8B50DF4D0000204B20A
:1007DF0014C31392D5240EF9E720D501C4540F2268
:1007EF00E618F9E618FC33E9339203FF600343047C
:1007FF0080E618FBE618FA7900C201D20022E6F96A
:10080F00FD18200112AA01E6F91830000AAC02AB5C
:10081F0001E6FA18E6F91822E975F06484FE740A05
:10082F00C5F084C445F0FD30010122EA540FF99060
:10083F001F44932DD4FDE94410933ED4FEEAC454D3
:10084F000FF9901F64932DD4FDE94410933ED4FE0D
:10085F00E94420933400D4FF20000122EB540FF918
:10086F00901F94932DD4FDE94410933ED4FEE94498
:10087F0020933FD4FFE43400FAEBC4540FF9901FD8
:10088F00C4932DD4FDE94410933ED4FEE944209344
:10089F003FD4FFE94430933AD4FAEC540FF9902047
:1008AF00047B001208BDECC4540FF9902054932D13
:1008BF00D4FDE94410933ED4FEE94420933FD4FF86
:1008CF00E94430933AD4FAE94440933BD4FB227481
:1008DF002030050274301208FF150CE50C70F02261
:1008EF00C4540F7003300219D2022490D43440D470
:1008FF00C083C082C000F5821203EDD000D082D039
:0D090F0083222002FC74300208FFD0162263
:101F44000056126824803692480460167228844031
:101F540000020507101215172023252830333538C1
:101F64000096928884807672686460565248444031
:101F74000040812263044586276809509132731416
:101F84000000000101020202030304040405050623
:101F940000367208448016528824609632680440E1
:101FA40000551066217632874298530864197530BB
:101FB400000613192632394552586572788591986E
:101FC40000765228048056320884603612886440B1
:101FD40000857157432814008671574329140086DD
:101FE4000004091419242934384348535863687287
:101FF4000001020304050607080910111213141541
:102004000016324864809612284460769208244070
:10201400007244168860320577492193653810822E
:1020240000775533108866442199775432108865B7
:1020340000163350678300173450678401183451F5
:10204400000000000000010101010101020202027E
:102054000056126824803692480460167228844020
:102064000054096318722781369145005409631896
:102074000043873074176104489135792266095307
:102084000068360573421079471584522189582611
:10209400000205081013161821242629323437406B
:1020A400000000500000002500005012000025062A
:1020B40000501203002556015012780025063900FD
:1020C40012531900567609002888040014440200AB
:1020D40007220100046100005230000026150000B0
:1020E40063070000810300009101000095000000D7
:1020F4004800000024000000120000000600000058
:102104000300000001000000010000007DC5DDC3E4
:0A21140034C2E0BE38BD86BBE4B95A
:10091C00AA82AB83A2F73392D16002D2F7F582ACF4
:10092C00F0E58124F9F8E6FD08E6FE0886F008E615
:0E093C00A2F73392D56002D2F7F583AFF02216
:06003500E478FFF6D8FD9F
:10094A006040F82582500274FFF582E824F8501EB0
:10095A00CCCBCAF9E4CC24F85014CBCAF9E4CB24A2
:10096A00F8500BCAF9E4CA24F85003790022240883
:10097A006010F8C3EC13FCEB13FBEA13FAE913F962
:10098A00D8F1227804EC700DC9CACBFCE58224F8B0
:10099A00F582D8F122782020E7111582C3E933F9CC
:0C09AA00EA33FAEB33FBEC33FCD8EC2210
:100013007900E94400601B7A009021A1785D75A006
:1000230000E493F2A308B8000205A0D9F4DAF2754C
:02003300A0FF2C
:1009B600C016858116AA82AB83ACF0FDE581240EB4
:1009C600F581EA4B4C4D700A8A828B838CF0ED02DE
:1009D6000C77C002C003C004C005E4C0E0C0E074E8
:1009E60080C0E0743FC0E08A828B838CF0ED121CDD
:1009F60050AE82E58124FCF581D005D004D003D029
:100A060002EE600B90000075F080743F020C77C018
:100A160002C003C004C005E4C0E0C0E0C0E0C0E01E
:100A26008A828B838CF0ED120C7DAE82E58124FCEC
:100A3600F581D005D004D003D002EE6012900059A3
:100A46007421F0E4A3F0900000E4F5F0020C77E5E1
:100A5600162409FE900021F0A3E4F0A37440F08A66
:100A6600828B838CF0ED121042AA82AB83ACF0FD30
:100A7600A81608A60208A60308A60408A60574BABE
:100A8600C0E07414C0E07417C0E0743FC0E0A8165C
:100A96000886820886830886F008E61203FFAE827F
:100AA600AF83AAF0FBE58124FCF58174A8C0E0744D
:100AB600A9C0E074D5C0E0743EC0E08E828F838A00
:100AC600F0EB120E37AA82AB83ACF0FDE58124FC75
:100AD600F581E5162405F8A60208A60308A604086B
:100AE600A605E5162405F8E6C0E008E6C0E008E637
:100AF600C0E008E6C0E0A816088682088683088655
:100B0600F008E6121A6FAE82AF83AAF0FBE58124E5
:100B1600FCF581C006C007C002C003E5162405F82F
:100B260086820886830886F008E6120E37AA82AB0C
:100B360083ACF0FDE58124FCF581E5162405F8A6D5
:100B46000208A60308A60408A60590001774FEF07E
:100B5600A374FFF0E5162405F886820886830886C6
:100B6600F008E6120F2BC0E0E516240BF8D0E0A63D
:100B76008208A68308A6F008F6E5162405F8E6C05E
:100B8600E008E6C0E008E6C0E008E6C0E0A816080F
:100B960086820886830886F008E6121A6FAE82AF50
:100BA60083AAF0FBE58124FCF581C006C007C002DC
:100BB600C003E516240BF886820886830886F008AB
:100BC600E6120E37AA82AB83ACF0FDE58124FCF574
:100BD60081E5162405F8A60208A60308A60408A6B9
:100BE60005E5162409F8E630E04C74F3C0E0740419
:100BF600C0E07435C0E0743FC0E0E5162405F88611
:100C0600820886830886F008E61203FFAA82AB8371
:100C1600ACF0FDE58124FCF581E5162405F8A60275
:100C260008A60308A60408A605E5162409F8740113
:100C360026F6E40836F690000D7402F0E4A3F0E51B
:100C4600162409F88682088683120DBFAA82AB8312
:100C5600900017EAF0A3EBF0E5162405F886820863
:100C660086830886F008E6120F2BAA82AB83ACF0C7
:100C7600FD851681D01622FFA8811818121017D2EA
:100C8600D133E6400730E70B7582002220E7067570
:100C9600820122C2D1120FF9E97003F5822220D116
:100CA60001B3E433F58222AA82AB83ACF0FD900057
:100CB60009EAF0A3EBF0A3ECF0A3EDF0900005E059
:100CC600FAA3E0FBA3E0FCA3E0FDEA4B4C4D700960
:100CD60090000075F080743F22C002C003C004C0BB
:100CE60005E4C0E0C0E07480C0E0743FC0E08A82E2
:100CF6008B838CF0ED121C50AE82E58124FCF581CD
:100D0600D005D004D003D002EE6015900009E0FEB5
:100D1600A3E0FFA3E0F8A3E0F98E828F8388F02298
:100D2600900009E0F512A3E0F513A3E0F514A3E0A3
:100D3600F515C002C003C004C005E4C0E0C0E0C0B1
:100D4600E0C0E08512828513838514F0E515121C38
:100D560065AE82E58124FCF581D005D004D003D0B0
:100D660002EE7007900000E4F5F0228512828513EA
:100D7600838514F0E515C002C003C004C005121B2C
:100D86004EAE82AF83A8F0F9D005D004D003D002CE
:100D9600C002C003C004C0058E828F8388F0E912AA
:100DA60003FFAA82AB83ACF0FDE58124FCF5818AC2
:100DB600828B838CF0ED021C95AA83E58290000F4E
:100DC600F0A3EAF090000FE0FAA3E0FB30E709C3D6
:100DD600E49AFCE49BFD80048A048B058C028D0357
:100DE60090000DE0FCA3E0FD33E433FE6009C3E4AC
:100DF6009CFFE49DF880048C078D00900011EFF0B5
:100E0600A3E8F08A828B83C006120E90AA82AB8377
:100E1600D00690000FE0FCA3E0FD33E4336E600CD7
:100E2600C3E49AFCE49BFD8C828D83228A828B83A9
:010E36002299
:10003B007800E84400600A790075A000E4F309D861
:10004B00FC785DE84400600C7901900000E4F0A3BB
:04005B00D8FCD9FAFA
:100E370012091C7900E583B58202800D5003121A4E
:100E470002E583C3958212094AE5D0C465D020E143
:100E570017EA2DFAEB3EFBEC3FFC5009740112092F
:100E67004AEC4480FC02111BC3EA9DFAEB9EFBECA3
:100E77009FFC500FC3E499F9E49AFAE49BFBE49CC6
:100E8700FCB2D112098D02111BAA83E582900013CF
:100E9700F0A3EAF0900015E4F0A3F0900011E0FA57
:100EA700A3E0FB7C10900013E0FDA3E0FE33920764
:100EB700EECD25E0CD33FE900013EDF0A3EEF090DC
:100EC7000015E0FDA3E0FECD25E0CD33FE90001533
:100ED700EDF0A3EEF0300712900015E0FDA3E0FE61
:100EE70090001574014DF0A3EEF0900015E0FDA3FE
:100EF700E0FEC3ED9AEE9B401D900015EDC39AF0FE
:100F0700EE9BA3F0900013E0FDA3E0FE90001374A6
:100F1700014DF0A3EEF0DC8D900013E0FAA3E08A18
:100F270082F58322AA82AB83ACF0FD900019EAF028
:100F3700A3EBF0A3ECF0A3EDF0900019E0FAA3E027
:100F4700FBA3E0FCA3E0FD90001DEAF0A3EBF0A3F8
:100F5700ECF0A3EDF090001DE0FAA3E0FBA3E0FCAA
:100F6700A3E0FD8C02A2E7CA33CA33CA540130E0BA
:100F77000244FEFB3395E0FCFD7B007C007D009086
:100F87000017E0FEA3E0FF3395E0F8F9EE2AFAEF49
:100F97003BFBE83CFCE93DFD7B007C007D008A04CF
:100FA700EB5401A2E0CC13CC13CCFD7B007A00906C
:100FB700001DE0FEA3E0FFA3E0F8A3E0F953007FE4
:100FC700530180EE4202EF4203E84204E9420590F2
:100FD700001DEAF0A3EBF0A3ECF0A3EDF090001DE9
:100FE700E0FAA3E0FBA3E0FCA3E0FD8A828B838CFD
:100FF700F0227901AA82E68F82B5821318E6B5F04E
:101007000E18E6B5830918E68A82B58202790022AE
:10101700B4800FE5F0700AE5837006E58270027F01
:1010270000EFB6801518B6001018B6000B18B600FA
:101037000608080876002208080822AA82AB83ACB3
:10104700F0FD900024EAF0A3EBF0A3ECF0A3EDF0A1
:10105700900024E0FAA3E0FBA3E0FCA3E0FD9000EE
:1010670028EAF0A3EBF0A3ECF0A3EDF0900028E062
:10107700FAA3E0FBA3E0FCA3E0FD8C02A2E7CA33DE
:10108700CA33CA540130E00244FEFB3395E0FCFD4D
:10109700E4FBFCFDEA2482FAEB34FFFBEC34FFFCB3
:1010A700ED34FFFD900021E0FEA3E0FFA3E0F88E02
:1010B700828F8388F0EA121E2AA3EB121E2A900061
:1010C70028E0FAA3E0FBA3E0FCA3E0FD53047F5371
:1010D7000580900028EAF0A3EBF0A3ECF0A3EDF075
:1010E700900028E0FAA3E0FBA3E0FCA3E0FD4305A2
:1010F7003F900028EAF0A3EBF0A3ECF0A3EDF0900B
:101107000028E0FAA3E0FBA3E0FCA3E0FD8A828BC2
:10111700838CF022B98003EA13B34010EA2401FA62
:10112700E43BFBE43CFC50047C800582BC000EBB26
:10113700000BBA0008E4F5F0F583F58222A2D1E5A9
:1011470082138CF092F78B838A8222E4F583F582EF
:1011570075F080F4A2D11322E4F583F58275F0C00F
:10116700747F22C016858116AA821203EDD016223B
:10117700AAF0AB83E58290002DF0A3EBF0A3EAF091
:1011870090002DE0FAA3E0FBA3E0FC90002CE0FD2B
:10119700900040E4F0A3F0A3F0900043EAF0A3EB43
:1011A700F0A3ECF0900046EDF090116A0212CFC068
:1011B70016858116E51624FBFA900040E4F0A3F0AB
:1011C700A3F0E51624FBF8900043E6F008A3E6F049
:1011D70008A3E6F0900046EAF090116A1212CFAA2F
:1011E70082AB83D01622E58290003CF090003CE071
:1011F700FA900032E0C0E0A3E0C0E0A3E0C0E074F2
:101207001BC0E07412C0E0900030E0C0E0A3E0C073
:10121700E08A822215811581158190003AE0FAA3B0
:10122700E0FB90003A74012AF0E43BA3F022E58248
:1012370090003DF090003DE0FA74302AFA24C65041
:101247000A74072AFA3008034302208A820211ED42
:10125700E58290003EF090003EE0FAC4540FFBF5A3
:1012670082C002121235D00253020F8A820212354F
:10127700E58290003FF0900035E0FAA3E0FBA3E0A1
:10128700FCA3E0FD900039E0FE90003FE0FF7820EE
:10129700EE2EFEED235401F94206EA2AFAEB33FB60
:1012A700EC33FCED33FDC3EE9F4007EEC39FFE43D7
:1012B7000201D8DC900035EAF0A3EBF0A3ECF0A331
:1012C700EDF0900039EEF022AA83E582900047F016
:1012D700A3EAF0900047E0FAA3E0FB900030EAF0C1
:1012E700A3EBF0900040E0FAA3E0FBA3E0FC900042
:1012F70032EAF0A3EBF0A3ECF090003AE4F0A3F0AD
:10130700900043E0FAA3E0FBA3E0FC8A828B838C86
:10131700F0121B32FD90004374012AF0E43BA3F066
:10132700A3ECF0ED70030219F6BD25028003021944
:10133700EEC209C20AC20BC20CC20DC20EC20FC254
:1013470010900049E4F090004AF090004B74FFF0D1
:10135700900043E0FAA3E0FBA3E0FC8A828B838C36
:10136700F0121B32FEA3AA82AB83900043EAF0A3DC
:10137700EBF0A3ECF090004DEEF0BE25088E821244
:1013870011ED0213078E07BF300040498E07EF2487
:10139700C6404290004BE0FFBFFF29C002C003C018
:1013A7000490004AE0FA75F00AA4FAEE24D09000FF
:1013B7004A2AF090004AE0FAD004D003D002709B8A
:1013C700D20A8097EF75F00AA4FFEE24D090004B65
:1013D7002FF002136290004DE0FEBE2E0890004BE6
:1013E700E4F00213628E82C002C003C004C006127A
:1013F7001E43E58224FF9208D006D004D003D00212
:1014070030080790004D74DF5EF090004DE0FEBE9F
:1014170020028055BE2B02804BBE2D028041BE426A
:1014270002804BBE43028050BE4403021663BE4691
:1014370003021685BE4903021663BE4C028034BE02
:101447004F0302166DBE50030215C5BE53028042FC
:10145700BE5503021675BE580302167D021689D2C1
:1014670009021362D20B021362D20C021362D20E6C
:10147700021362D20F021362900046E0FA24FEF8CC
:10148700900046F08602088603188A821211ED0240
:101497001695900046E0FA24FDF8900046F0860283
:1014A7000886030886041818900035EAF0A3EBF0C5
:1014B700A3ECF0900035E0FAA3E0FBA3E0FC8A82FE
:1014C7008B838CF0121A1CAA82AB8390004BE0FB33
:1014D700BBFF0590004BEAF020093890004AE0FB7B
:1014E700C3EA9B502E90004AEBC39AF090004AE063
:1014F700FB8B041B90004AEBF0BC00028010758246
:1015070020C002C0031211EDD003D00280E3900087
:101517004AEBF090004BE0FDC002900035E0FCA3E1
:10152700E0FFA3E0FA8C828F838AF0121B32D0028D
:1015370060538D041DC374808CF063F08095F05068
:1015470044C002900035E0F517A3E0F518A3E0F5D5
:101557001974012517FBE43518FAAC19900035EB1F
:10156700F0A3EAF0A3ECF08517828518838519F0BC
:10157700121B32FAF582C002C0051211EDD005D058
:1015870002D002809320090302169590004AE0FBDF
:10159700C3EA9B400302169590004AEBC39AF0906A
:1015A700004AE0FA8A031A90004AEAF0BB000302F5
:1015B7001690758220C0021211EDD00280E69000CD
:1015C70046E0FB24FDF8900046F0860308860408F1
:1015D70086071818900035EBF0A3ECF0A3EFF09016
:1015E7000037E0FB247F500890004D7443F08020C3
:1015F700EB249F500890004D7450F08013EB24BFEC
:10160700500890004D7449F0800690004D7458F0D2
:1016170090004DE0FBF582C0031211EDD0037582F7
:101627003AC0031211EDD003758230C0031211EDD9
:10163700D003758278C0031211EDD003BB49028035
:101647000FBB5002800A900036E0FBF5821212575A
:10165700900035E0FBF5821212578032D20D9000D0
:1016670049740AF080289000497408F0802090009F
:1016770049740AF080189000497410F08010D21055
:10168700800C8E821211ED800590004AEAF030102E
:101697006B900046E0FA24FCF8900046F0860208BA
:1016A7008603088604088606181818900035EAF09D
:1016B700A3EBF0A3ECF0A3EEF0900035741EF0A3BB
:1016C7007421F0A37480F0900035E0FBA3E0FCA345
:1016D700E0FD74012BFEE43CFF8D02900035EEF037
:1016E700A3EFF0A3EAF08B828C838DF0121B32FA02
:1016F70070030213078A821211ED80CB900049E034
:10170700FABA00030213079000547453F0A374004D
:10171700F0300E4C900046E0FA14F8900046F08640
:1017270002EA3395E0FBFCFE900035EAF0A3EBF00C
:10173700A3ECF0A3EEF0300D030217DD900035E0C7
:10174700FAA3E0FBA3E0FCA3E0FE7B007C007E00A5
:10175700900035EAF0A3EBF0A3ECF0A3EEF080766F
:10176700300F2A900046E0FA24FCF8900046F086F5
:10177700020886030886040886061818189000359C
:10178700EAF0A3EBF0A3ECF0A3EEF080499000465B
:10179700E0FA24FEF8900046F0860208860318EB6C
:1017A7003395E0FCFE900035EAF0A3EBF0A3ECF0F4
:1017B700A3EEF0200D20900035E0FAA3E0FBA3E0B4
:1017C700FCA3E0FE7C007E00900035EAF0A3EBF07E
:1017D700A3ECF0A3EEF0300D3E900035E0FAA3E065
:1017E700FBA3E0FCA3E0FE30E72B900035E0FAA373
:1017F700E0FBA3E0FCA3E0FEC3E49AFAE49BFBE46E
:101807009CFCE49EFE900035EAF0A3EBF0A3ECF01D
:10181700A3EEF08002C20DD211900049E0FC751AC8
:1018270053751B007D00900039E4F08C82C004C022
:1018370005121277D005D004201132C00490003968
:10184700E0FFC4FF851A82851B83E0FA4207851AE9
:1018570082851B83EFF0151A74FFB51A02151B90CA
:101867000054E51AF0A3E51BF0D004800C90003972
:10187700E0FF851A82851B83F00D90004CEDF0B2D6
:1018870011900035E0FFA3E0FAA3E0FEA3E0FBEF31
:101897004A4E4B7091900054E51AF0A3E51BF09067
:1018A700004CEDF090004AE0FA700690004A74018F
:1018B700F0200A2720092474012DFA90004AE0FB42
:1018C700C3EA9B5011758220C002C0031211EDD0EC
:1018D70003D0021B80EA90004AEBF0300D127582AC
:1018E7002D1211ED90004AE0FA1490004AF0802F73
:1018F70090004CE0FA6028300B1275822B1211ED24
:1019070090004AE0FA1490004AF08013300C1075EA
:1019170082201211ED90004AE0FA1490004AF0205C
:10192700092F90004CE0FA90004AE0FB8B041B90D3
:10193700004AEBF0C3EA9C5036300A047C30800240
:101947007C208C82C002C0031211EDD003D002802C
:10195700DB90004AE0FA90004CE0FCC39A500990F3
:10196700004AEAC39CF0800C90004AE4F08005909E
:10197700004AEBF0900054E0FAA3E0FB90004CE043
:10198700FC8C061CEE6040B2112011150ABA00014A
:101997000B8A828B83E0FEC4540FFE900039F080DF
:1019A7000E8A828B83E0FE53060F900039EEF0908B
:1019B7000039E0FEF582C002C003C004121235D020
:1019C70004D003D00280BA20090302130790004A0B
:1019D700E0FA8A031AEB7003021307758220C0022C
:1019E7001211EDD00280EB8D821211ED02130790D8
:0B19F700003AE0FAA3E08A82F58322A8
:0B211E003C4E4F20464C4F41543E0009
:101A0200E582C583F582A2D133A2D592D11392D5B4
:101A1200ECCFFCEBCEFBEACDFA22AAF0AB83E58257
:101A2200900056F0A3EBF0A3EAF07A007B0090005E
:101A320056E0FCA3E0FDA3E0FE8C828D838EF012C3
:101A42001B32FFA3AC82AD83900056ECF0A3EDF005
:101A5200A3EEF0EF60070ABA00DF0B80DC900056BD
:101A6200ECF0A3EDF0A3EEF08A828B832212091C24
:101A720030D502B2D1BF0009BC000302115F0211CE
:101A820052BC000302113CE583B4FF0BE582B4FFB4
:101A92000302115F02113CE582B4FF03021152C33B
:101AA20095835007247F400B02113C24801450037D
:101AB200021152F582C3ED9AEE9BEF9C4011158202
:101AC200C3EA33F9EB33FAEC33FBE433FC8005E48D
:101AD200CCCBCAF9C08275F019C3E99DEA9EEB9F8F
:101AE200EC9400D5F002802D400EE99DF9EA9EFAB1
:101AF200EB9FFBEC9400FCC3B3E833F8E58233F5CB
:101B020082E58333F583C3E933F9EA33FAEB33FB36
:101B1200EC33FC80C4B3E4F938FAE43582FBE435F3
:101B220083FCD082500405827C8012098D0211331D
:0D000600758127121C61E582600302006213
:101B320020F71430F6148883A88220F507E6A883DC
:101B420075830022E280F7E49322E022121E18300D
:101B5200D10302115FBC0005D2D1021152C08274BE
:101B620003790012094AE4F51CF51DF51EF51F90D4
:101B72002129F88C078B068A0589F0E8121C0FE9E7
:101B820025F0EA3DEB3EEC3F54E07028E925F0F900
:101B9200EA3DFAEB3EFBEC3FFCE493251CF51C749A
:101BA2000193351DF51D740293351EF51E740393C2
:101BB200351FF51FA3A3A3A308B81EB7AC1FAB1E06
:101BC200AA1DA91C758281D2D112098DD0E0B47EE2
:101BD2000302113340062482C2D58005F4247FD249
:101BE200D5F8121A02741888F0A4F9AAF074B18810
:101BF200F0A4FBACF0747288F0A42AFAE5F03BFB87
:101C0200E43CFC75828612098D020E3A2224F850B9
:101C1200228DF0AD06AE077F0024F850168DF0AD90
:101C2200067E0024F8500C8DF07D0024F8500475D7
:101C3200F0002224086016C000F8C3EF13FFEE1371
:0E1C4200FEED13FDE5F013F5F0D8EFD0002213
:10212900FF422E16F691F90CF2FD2307EEE0C403E7
:102139000CA3F001D814FC00A3027F0055C03F0096
:102149000BF01F0001FC0F0000FF0700C0FF030098
:10215900F0FF0100FCFF0000FF7F000000400000CD
:10216900002000000010000000080000000400002A
:102179000002000000010000800000004000000093
:10218900200000001000000008000000040000000A
:0821990002000000010000003B
:101C5000FFA8811818121017120FF9E96401F58214
:101C60002275820022FFA8811818121017D2D133D2
:101C7000E6400730E70B7582012220E706758200F7
:101C800022C2D1120FF9E97003F5822230D101B3DB
:101C9000E433F58222A2E79212C2E7F8A2F73324D6
:101CA00099400990000075F080743F22752700E587
:101CB0008224E8E583348DE5F034CEE834C0E85082
:101CC0005585822385832485F025F526783BC00041
:101CD00078AAC00078B8C000783FC0001203FF1592
:101CE00081158115811581121E60E582F5272480FA
:101CF0005003021152780079807A317BBF121DC9DE
:101D000085822385832485F025F526788379807A5A
:101D10005E7B39121DC9A2F733D2F7A982AA83AB21
:101D2000F07C00B47902800F40072487121E0180E6
:101D300006F4247A12094AE4F523F524F5257526DC
:101D400020902129F8E493F5F0A3E493FDA3E49314
:101D5000FEA3E493FFA3C3E995F0EA9DEB9EEC9FFD
:101D60004030C3E995F0F9EA9DFAEB9EFBEC9FFC4D
:101D70008523F0AD24AE25AF26E8121C0FE5232500
:101D8000F0F523E5243DF524E5253EF525E5263F40
:101D9000F52608B81BAFAC26AB25AA24A923120947
:101DA0008D747F2527F58212111B30121BC082C053
:101DB00083C0F0C0E090000075F080743F121A6F8D
:101DC000158115811581158122C000C001C002C096
:101DD00003852782121E681203FF15811581158164
:101DE0001581C082C083C0F0C0E085238285248332
:101DF0008525F0E526120E3715811581158115818F
:101E0000226014C000F8C3E933F9EA33FAEB33FB7C
:101E1000EC33FCD8F1D00022AA82AB83A2F7339234
:101E2000D16002D2F7F582ACF02220F71030F61123
:101E30008883A88220F507F6A88375830022F280A4
:101E4000F7F022E58290005CF090005CE0FABA6165
:101E5000004009EA2485400475820122758200222F
:101E60007F86121E88F58222E4AC82FBFAF9748622
:101E7000021E7CFCABF0AA83A982749EC2D1F582BB
:101E800012098D02111B7F9E121E1830D103021100
:101E90003CC3EF9582500974FFF5F0F583F582227B
:0D1EA000790012094A89828A838BF0EC22B6
:00000001FF
