:04000000020854326C
:01000B0032C2
:0100130032BA
:01001B0032B2
:0100230032AA
:01002B0032A2
:0D0854007581071200F1E582600302003398
:0708610074004400602974DB
:05086800932400F97467
:05086D00083400FA90C0
:060872000893780075A058
:0D08780000E493F2A308B8000205A0E58299
:0B088500B501F1E583B502EC75A0FFA2
:0308900002003330
:0500330012006080FED8
:0D003800AA82AB83C002C00374B1C0E074A3
:0D00450000C0E07402C0E01200F5E5812467
:06005200FBF581900000A7
:010058002285
:040059008530441298
:02005D0000E0C1
:01005F00227E
:0A0060001200A3753006758202122B
:0E006A000059E5828583F0C0E0E5F0C0E07447
:0C007800B4C0E07400C0E07402C0E012EC
:0B00840000F5E58124FBF581900000F1
:01008F00224E
:030090003098FDA8
:05009300C2988599826E
:010098002245
:02009900AA8239
:03009B003099FD9C
:04009E008A99C299E0
:0100A200223B
:0D00A300759850758920758DFDD28ED2990B
:0100B000222D
:0300B100256400C3
:0E00B4000A0D4164646974696F6E206F6620E6
:0E00C2006E756D626572206120616E64206E45
:0E00D000756D62657220622069732025640AD6
:0200DE000D0013
:0D00E000C082120038D082E5822544F582EE
:0400ED0075830022F5
:0300F10075820015
:0100F40022E9
:0600F500C043858143E5D4
:0600FB004324FBF542E581
:0D0101004324FBF886820886830886F012EE
:06010E000779AA82AB8311
:06011400854381D0432267
:06011A00C043858143E5AE
:060120004324F8F53FE561
:080126004324F8F8863C08862A
:05012E003D08863EE5DE
:0D0133004324FBF886820886830886F012BC
:060140000215AA82AB8348
:06014600854381D0432235
:08014C00C043858143AA823003
:02015400001A8F
:05015600AB31AC32AD3D
:0C015B00338B828C838DF0EA1207B6050E
:0601670031E4B531020590
:01016D00325F
:02016E0080050A
:050170008A82120099D3
:07017500053AE4B53A02056A
:01017C003B47
:06017D00854381D04322FE
:0C018300C043858143AA82C374099AE43A
:05018F0033FBB4010088
:05019400E433FB6006EE
:0601990074302AFB800F08
:03019F0030010626
:0601A20074572AFC8004E2
:0401A80074372AFC82
:0201AC008C03C2
:0501AE008B8212014CE0
:0601B300854381D04322C8
:0C01B900C043858143AA82EAC4540FF5BC
:0E01C50082C002120183D002740F5AF582121A
:0201D3000183A6
:0601D500854381D04322A6
:0201DB007A2088
:0501DD00BA00028032AF
:0701E200C3E53433F534E5F9
:0501E9003533F535E59A
:0501EE003633F536E593
:0501F3003733F537E58C
:0601F8003833F538C3E5C1
:0501FE00389539400EA8
:06020300C3E5389539F552
:0702090038AB3474012BF542
:0102100034B9
:030211001A80C987
:0102140022C7
:0C021500AA82AB83ACF0E4F53BF53A8A1A
:04022100318B328C5F
:0602250033EA4B4C7004AB
:04022B00C20080028B
:02022F00D200FB
:05023100AA3CAB3DAC4E
:0D0236003E8A828B838CF0120829FD0ABAE3
:0302430000010BAC
:050246008A3C8B3D8C99
:07024B003E8D41ED7003023E
:02025200075B48
:07025400E541B4250280031F
:03025B0002075245
:05025E00C203C204C24E
:0402630005C206C208
:0502670007753900C21B
:04026C0008C209C2F9
:070270000A7D007540FF8AC2
:040277003C8B3D8CF3
:01027B003E44
:07027C00853C82853D83856E
:060283003EF0120829F50F
:0502890041053CE4B555
:04028E003C02053DEC
:05029200E541B4250D5B
:0B029700854182C00512014CD0050219
:0202A200023127
:0D02A400854182C0051207A0E582D00570DB
:0402B100030203132E
:0502B500E540B4FF2646
:0D02BA0075F00AEDA4F8A9F0E54124D0FF8D
:0E02C7003395E0FAEF28F8EA39F98805BD0012
:0302D500028003A1
:0302D80002027CA3
:0502DB00D20402027CC8
:0B02E000C2D5E54030E704D2D5F4049D
:0E02EB0075F00AA430D50AF42401C5F0F434ED
:0302F90000C5F04D
:0D02FC00FAABF0E54124D0FC3395E0FFECB7
:0A0309002AFAEF3BFB8A4002027C57
:05031300E541B42E06D7
:0603180075400002027CAA
:0D031E00854182C0051207EBE582D005C3C2
:03032B006001B3BB
:05032E00920130010303
:030333005341DF54
:08033600E541B420030203AD10
:07033E00E541B42B028063CE
:07034500E541B42D028057D1
:07034C00E541B44202805FAD
:07035300E541B443028062A2
:08035A00E541B444030205264D
:08036200E541B4460302053C2D
:08036A00E541B4490302052638
:07037200E541B44C02803E9E
:08037900E541B44F0302052D1C
:08038100E541B4500302049CA5
:07038900E541B45302804579
:08039000E541B45503020532FA
:08039800E541B45803020537EA
:0303A00002054013
:0503A300D20302027C00
:0503A800D20502027CF9
:0503AD00D20602027CF3
:0503B200D20802027CEC
:0503B700D20902027CE6
:0C03BC00E53F24FEF8883F860208860317
:0D03C800188A82C00512014CD00502054EB6
:0C03D500E53F24FDF8883F8602088603FF
:0A03E10008860418188A348B358C46
:0D03EB00368A828B838CF0C005120801AAAF
:0803F80082AB83D0052003292C
:05040000C3EA9D502439
:06040500C3ED9AFD8D031A
:0A040B008B041B8B05BC000280145B
:0E041500758220C002C003C00512014CD00544
:06042300D003D00280E2CC
:05042900AB34AC35AF5F
:0D042E00368B828C838FF0120829FB602E24
:05043B00AB34AC35AF4D
:0C0440003674012BF8E43CF98F06883478
:0B044C0089358E368B828C838FF01276
:0E0457000829FB8B82C002C00512014CD005A3
:04046500D00280C081
:0604690020030302054E12
:08046F00C3EA9D400302054EA3
:06047700C3ED9AFD8D03A8
:0B047D008B041B8B05BC000302054E26
:0E048800758220C002C003C00512014CD005D1
:06049600D003D00280E15A
:0C049C00E53F24FDF8883F860308860435
:0A04A80008860618188B348C358E78
:0804B20036C3740395365004B3
:0404BA007B0480023D
:0204BE00AB365B
:0D04C000EB90078F93FB8B82C002C00512EA
:0E04CD00014CD005D00275823AC002C0051263
:0E04DB00014CD005D002758230C002C005125F
:0E04E900014CD005D002758278C002C0051209
:0A04F700014CD005D002E536601577
:07050100E536B40302800E91
:0D050800853582C002C0051201B9D005D0B2
:0105150002E3
:0D051600853482C002C0051201B9D005D0A5
:030523000280282B
:07052600D20775390A80219C
:05052D00753908801C77
:0505320075390A801775
:0505370075391080126F
:04053C00D20A800E51
:0D054000854182C002C00512014CD005D0DB
:01054D0002AB
:06054E00200A030205B0C3
:0C055400E53F24FCF8883F86030886047D
:0C0560000886060886071818188B348CD3
:04056C00358E368F03
:03057000377534A8
:0305730095753546
:0405760007753602CD
:05057A00AB34AC35AE0E
:0C057F003674012BFFE43CF88E018F3431
:0B058B00883589368B828C838EF0123D
:080596000829FB8B41700302F0
:02059E00023128
:0D05A000854182C002C00512014CD005D07B
:0305AD000280CAFF
:0705B000E53970030202317E
:0305B700300828E1
:0C05BA00E53F14F8883F8603EB3395E022
:0805C600FCFEFF8B348C358E26
:0405CE00368F3730FD
:0505D2000703020628EA
:0705D7007535007536007553
:0405DE00370080461C
:0305E20030091FBE
:0C05E500E53F24FCF8883F8603088604EC
:0C05F1000886060886071818188B348C42
:0405FD00358E368F72
:030601003780241B
:0C060400E53F24FEF8883F8603088604CA
:0C06100018EC3395E0FEFF8B348C358E27
:04061C00368F3720BE
:020620000706CB
:060622007536007537007B
:0306280030072276
:05062B00E53730E71B7C
:0B063000C3E49534FBE49535FCE49531
:07063B0036FEE49537FF8B4A
:04064200348C358E31
:05064600368F37800231
:02064B00C207E4
:04064D00D2027B005A
:0D065100753800C002C003C0051201DBD0E7
:0C065E0005D003D00220020BD0F0E538DC
:07066A00C442F0C0F080045F
:04067100E538C0E0C8
:070675000BB202E534600244
:02067C0080D329
:04067E00E5356002FC
:0206820080CD29
:04068400E5366002F5
:0206880080C729
:08068A00E537700474018001E2
:01069200E483
:06069300FC8B02EC60B8D4
:03069900BD00029F
:02069C007D01DE
:03069E002004260F
:0606A10074012AFB8D0428
:0B06A700C3EB9CE433FB8C05EB6015FB
:0E06B200758220C002C004C00512014CD005A4
:0706C000D004D0021C80E011
:0306C700300711E8
:0E06CA0075822DC002C00512014CD005D00271
:0306D8001D802B57
:0506DB00BA00028026B8
:0306E000300511D1
:0E06E30075822BC002C00512014CD005D0025A
:0306F1001D801257
:0306F40030060FBE
:0E06F700758220C002C00512014CD005D00251
:010705001DD6
:020706008D0361
:080708008B041BC3EA9C50188E
:03071000300404AE
:040713007C308002B4
:020717007C2044
:0E0719008C82C002C00312014CD003D00280BB
:01072700E0F1
:090728008A031AEB70030202318E
:0C073100B20220020AD0E000C0E0C45474
:03073D000F800426
:04074000D0E0540FA2
:08074400F538853882C002126D
:06074C000183D00280D6FB
:0707520085418212014C02F7
:0207590002316B
:03075B0030001457
:0D075E0075820012014CE53A24FFF582E59A
:07076B003B34FFF58380061B
:06077200853A82853B83FD
:01077800225E
:0807790085823C85833D85F07B
:030781003E854270
:0A0784003F90000075F0001202150E
:01078E002248
:06078F00495843502D0003
:0B0795003C4E4F20464C4F41543E00AC
:0507A000AA82BA30003E
:0207A500400B07
:0607A700C374399A4005FD
:0507AD007582018003CC
:0307B2007582004D
:0107B5002221
:0E07B600C8C0E0C8C0E0E5F060111460151482
:0D07C400601714601814146004D0E0801554
:0707D100D0E0A882F6800EC3
:0507D800D0E0F08009F3
:0407DD00D0E08005E3
:0507E100D0E0A882F247
:0407E600C8D0E0C8CF
:0107EA0022EC
:0507EB00AA82BA6100C2
:0207F000400BBC
:0607F200C3747A9A400571
:0507F800758201800381
:0307FD0075820002
:0108000022D5
:0A080100AA82AB83ACF07D007E00FC
:0E080B008A828B838CF0120829FF0ABA000142
:010819000BD3
:03081A00EF600785
:07081D000DBD00EA0E80E7AB
:040824008D828E83B0
:0108280022AD
:0E082900C8C0E0E5F0601114601314601314F1
:0A08370060131414600474FF800EB7
:05084100A882E6800919
:03084600E0800649
:0308490093800396
:03084C00A882E29D
:04084F00F8D0E0C835
:010853002282
:00000001FF
