:1000AA00E582900007F0900007E0FA900003F01252
:1000BA00022B1201D2D2A0D2A222C2A490000A120A
:1000CA00016FD2A4900000E4F0900001F0900002C9
:1000DA007442F01201A2900000E4F0900001F09046
:1000EA0000027443F01201A2900000E4F0900001B3
:1000FA00F09000027440F01201A29000007414F013
:10010A00900001E4F09000027441F01201A2120181
:10011A00D29000027480F01202141201D21201D29B
:10012A0090000274A0F01202141201D21201D290AD
:10013A0000027494F01202141201D2900190120279
:10014A0042900000E4F0900001F09000027424F064
:10015A001201A21201D290000274B0F0120214121B
:10016A0001D2D2A222AA83E582900008F0A3EAF083
:10017A00900008E0FAA3E0FB7C007D00C3EC9AED56
:10018A009B50147E647F001EBEFF011FEE4F70F766
:10019A000CBC00E80D80E5221201D2900000E0FAC2
:1001AA00900003F012022B1201D2900001E0FA90A3
:1001BA000003F012022B1201D2D2A3C2A2D2A19042
:1001CA000002E0F580C2A022D2A3C2A2D2A0C2A19C
:1001DA007580FF90000112016F90000112016FD229
:1001EA00A122D2A3C2A2D2A0C2A17580FF9000010F
:1001FA0012016FD2A122C2A3C2A27580FFD2A0C2ED
:10020A00A1900004E580F0D2A122D2A3C2A2D2A179
:10021A00C2A0900002E0F58090000112016FD2A006
:10022A0022C2A3C2A2D2A1C2A0900003E0F580908C
:10023A00000112016FD2A022AA83E58290000AF07F
:10024A00A3EAF0900000E4F0900001F0900002743C
:10025A0024F01201A21201D290000274B0F012022C
:10026A00141201D2900005E4F09000067420F09078
:10027A000003E4F090000AE0FAA3E0FB7C007D00B2
:10028A00C3EC9AED64808BF063F08095F0502DC03A
:10029A0002C003C004C0051201ECD005D004D0038B
:1002AA00D002C002C003C004C00512022BD005D080
:1002BA0004D003D0020CBC00C70D80C41201D29036
:1002CA00000274B2F01202140201D2E58290000D0B
:1002DA00F0900000E4F0900001F09000027440F009
:1002EA001201A21201D290000DE0FA900000F090E3
:1002FA00000CE0FA900001F09000027421F0120163
:10030A00A20201D2AAF0AB83E58290000EF0A3EB21
:10031A00F0A3EAF090000EE0FAA3E0FBA3E0FC7D74
:10032A00007E00ED2AFFEE3BF88C018F82888389DC
:10033A00F0122735FF60518D078E000DBD00010EAA
:10034A00EF2AFFE83BF88C018F82888389F0122715
:10035A0035FFF582C002C003C004C005C0061203FF
:10036A0093AF82D006D005D004D003D0028F82C0CA
:10037A0002C003C004C005C0061200AAD006D005F8
:10038A00D004D003D002809B22E582900011F09025
:10039A000011E0FAC3648094C1401574DA8AF063EC
:1003AA00F08095F0400AEA24E0900012F00204413D
:1003BA00900011E0FAC3648094E1401574FA8AF05F
:1003CA0063F08095F0400AEA24E0900012F00204FB
:1003DA0041900011E0FAC3648094B0401474B98A61
:1003EA00F063F08095F04009EA24E0900012F08072
:1003FA0046900011E0FAC3648094A0401474AF8A56
:10040A00F063F08095F04009EA24E0900012F08051
:10041A0026900011E0FAC3648094BA401474C08A2A
:10042A00F063F08095F04009EA24E0900012F08031
:0E043A0006900012745FF0900012E0F582222E
:0400000002004E327A
:01000B0032C2
:0100130032BA
:01001B0032B2
:0100230032AA
:01002B0032A2
:01003300329A
:01003B003292
:01004300328A
:03004B0002089D0B
:0300A70002044808
:1004480012045780FE538EFD438EC0900001221285
:100458000914121AFB1200C4D2AF1210A175A0FF22
:10046800D2A2D2A0746EC0E07427C0E0121C061598
:10047800811581746EC0E07427C0E0121C061581D6
:10048800158174ADC0E07427C0E0121C06158115F3
:100498008174EDC0E07427C0E0121C061581158137
:1004A8007403C0E07428C0E0121C0615811581741D
:1004B8001AC0E07428C0E0121C061581158174402A
:1004C800C0E07428C0E0121C06158115817466C04E
:1004D800E07428C0E0121C06158115817476C0E00E
:1004E8007428C0E0121C0615811581121B8BAA8284
:1004F800BA3102801ABA32028063BA33030205D4D1
:10050800BA340302072DBA350302067902046C7463
:100518009CC0E07428C0E0121C06158115811209E0
:1005280020AA82900016EAF0120920AA82900015EB
:10053800EAF0120920AA82900014EAF0120920AA0F
:1005480082900013EAF0E0FAA3E0FBA3E0FCA3E04A
:10055800FD8A828B838CF012139B02046C74CBC0CF
:10056800E07428C0E0121C0615811581120920AA22
:100578008290001AEAF0120920AA82900019EAF083
:10058800120920AA82900018EAF0120920AA829083
:100598000017EAF07400C0E07429C0E0121C0615C8
:1005A800811581121B8BAA82900017E0FBA3E0FC47
:1005B800A3E0FDA3E0FE900078EBF0A3ECF0A3ED40
:1005C800F0A3EEF08A821215F902046C742CC0E0D4
:1005D8007429C0E0121C0615811581120920AA820F
:1005E80090001EEAF0120920AA8290001DEAF0127B
:1005F8000920AA8290001CEAF0120920AA82900021
:100608001BEAF0744BC0E07429C0E0121C06158187
:100618001581120920AA82900022EAF0120920AA64
:1006280082900021EAF0120920AA82900020EAF0C4
:10063800120920AA8290001FEAF090001BE0FAA39A
:10064800E0FBA3E0FCA3E0FD90001FE0FEA3E0FFB9
:10065800A3E0F8A3E0F9900089EEF0A3EFF0A3E897
:10066800F0A3E9F08A828B838CF0ED1217E802047C
:100678006C7468C0E07429C0E0121C0615811581ED
:10068800120920AA82900026EAF0120920AA829074
:100698000025EAF0120920AA82900024EAF0120943
:1006A80020AA82900023EAF07489C0E07429C0E08F
:1006B800121C0615811581120920AA8290002AEAC7
:1006C800F0120920AA82900029EAF0120920AA82D1
:1006D800900028EAF0120920AA82900027EAF07414
:1006E800AFC0E07429C0E0121C0615811581900086
:1006F80023E0FAA3E0FBA3E0FCA3E0FD900027E0E1
:10070800FEA3E0FFA3E0F8A3E0F990005CEEF0A3FD
:10071800EFF0A3E8F0A3E9F08A828B838CF0ED1266
:10072800105E02046C74C4C0E07429C0E0121C0698
:100738001581158174ECC0E07429C0E0121C0615FF
:1007480081158174FDC0E07429C0E0121C06158172
:100758001581740DC0E0742AC0E0121C06158115BD
:1007680081121B8BAA82BA3102800EBA32028064CF
:10077800BA330302083302046C7A007B00C3EA949C
:1007880005EB64809480400302046C9000A87440D8
:10079800F0A37401F08A828B83C002C003121D0E7D
:1007A800AC82AD83D003D002ED3395E0FEFF7440F8
:1007B8002DFD74043EFEE43FFF8C828D838EF0C0D5
:1007C80002C003121279D003D0023089FD0ABA00A0
:1007D800AC0B80A97A007B00C3EA9401EB64809497
:1007E80080400302046C9000A87440F0A37401F0E8
:1007F8008A828B83C002C003121D0EAC82AD83D0E7
:1008080003D002ED3395E0FEFF74052EFEE43FFFB2
:100818008C828D838EF0C002C003121279D003D06F
:10082800023089FD0ABA00B00B80AD7A007B00C3A4
:10083800EA9403EB64809480501A90002BE4F0A3B0
:100848007480F0A37404F0A3E4F03089FD0ABA00C0
:10085800DE0B80DB9000A87440F0A37401F08A825C
:100868008B83121D0EAA82AB8390002BE0FCA3E0C1
:10087800FDA3E0FEA3E0FFEB3395E0F8F9EA2CFCDA
:10088800EB3DFDE83EFEE93FFF8C828D838EF01242
:10089800127902046CC0E0C0F0C082C083C002C0FC
:1008A80003C004C005C006C007C000C001C0D075A1
:1008B800D000AAC4BA10028018BA40028024BA80B4
:1008C80030900034E5C5F0D200900064121AC88058
:1008D80020741FC0E0742AC0E0121C06158115811F
:1008E800800F742CC0E0742AC0E0121C0615811514
:1008F80081D0D0D001D000D007D006D005D004D008
:1009080003D002D083D082D0F0D0E032E5C375C3E3
:100918000043C31043B104229000A1E4F09000A268
:100928007402F0E4A3F090003275F000121B959069
:10093800002FE4F0A3F07A007B00C3EA9402EB6492
:1009480080948040030209F2C002C003121B8BACE2
:1009580082D003D002C374AF8CF063F08095F0E4CA
:1009680033FD6008C3EC648094BB402EC374E08CF4
:10097800F063F08095F0E433FE6008C3EC64809483
:10098800E74017C374C08CF063F08095F0E433FF40
:100998006016C3EC648094C7500EEA2432F582EBEB
:1009A8003400F583ECF08032ED6008C3EC64809489
:1009B800BB4027EE6008C3EC648094E7401CEF60FE
:1009C80008C3EC648094C74011743EC0E0742AC028
:1009D800E0121C061581158180100ABA00010B90DF
:1009E800002FEAF0A3EBF002094290002FE0FAA3EF
:1009F800E0FBC3EA9402EB64809480500302092070
:100A0800900031E4F07A007B00C3EA9402EB648042
:100A180094804003020D17EA2432FCEB3400FD8C6D
:100A2800828D83E0FEC3648094B0404F74B98EF029
:100A380063F08095F04044EE24D0FE8C828D83F0E4
:100A4800EA4B70188C828D83E0FEC454F0FE90004F
:100A580031E0FF900031EE2FF0020D0FBA0105BB17
:100A680000028003020D0F8C828D83E0FC90003120
:100A7800E0FD900031EC2DF0020D0FEA2432F582F2
:100A8800EB3400F583E0FCC3648094C15003020B8F
:100A9800DAC374C68CF063F08095F05003020BDA69
:100AA800BC4102801FBC42028047BC4302806FBC2D
:100AB8004403020B53BC4503020B80BC4603020BE4
:100AC800AD020D0FEA4B700F900031E0FD90003140
:100AD80074A02DF0020D0FBA0105BB0002800302BD
:100AE8000D0F900031E0FD900031740A2DF0020DD9
:100AF8000FEA4B700F900031E0FD90003174B02D7B
:100B0800F0020D0FBA0105BB00028003020D0F9021
:100B18000031E0FD900031740B2DF0020D0FEA4B0F
:100B2800700F900031E0FD90003174C02DF0020D7F
:100B38000FBA0105BB00028003020D0F900031E0DF
:100B4800FD900031740C2DF0020D0FEA4B700F90E0
:100B58000031E0FD90003174D02DF0020D0FBA0184
:100B680005BB00028003020D0F900031E0FD9000EC
:100B780031740D2DF0020D0FEA4B700F900031E02B
:100B8800FD90003174E02DF0020D0FBA0105BB0095
:100B9800028003020D0F900031E0FD900031740EC9
:100BA8002DF0020D0FEA4B700F900031E0FD900020
:100BB8003174F02DF0020D0FBA0105BB000280035D
:100BC800020D0F900031E0FD900031740F2DF002FE
:100BD8000D0FC3EC648094E15003020D0FC374E65B
:100BE8008CF063F08095F05003020D0FBC61028019
:100BF8001FBC62028047BC6302806FBC6403020CA6
:100C08009FBC6503020CC5BC6603020CEB020D0F0A
:100C1800EA4B700F900031E0FC90003174A02CF08A
:100C2800020D0FBA0105BB00028003020D0F9000F0
:100C380031E0FC900031740A2CF0020D0FEA4B7081
:100C48000F900031E0FC90003174B02CF0020D0FD1
:100C5800BA0105BB00028003020D0F900031E0FCD1
:100C6800900031740B2CF0020D0FEA4B700F9000BE
:100C780031E0FC90003174C02CF0020D0FBA010570
:100C8800BB00028003020D0F900031E0FC900031A0
:100C9800740C2CF0020D0FEA4B700E900031E0FC42
:100CA80090003174D02CF0805EBA015BBB00589084
:100CB8000031E0FC900031740D2CF0804AEA4B7052
:100CC8000E900031E0FC90003174E02CF08038BACE
:100CD8000135BB0032900031E0FC900031740E2CDD
:100CE800F08024EA4B700E900031E0FC90003174E3
:100CF800F02CF08012BA010FBB000C900031E0FC20
:100D0800900031740F2CF00ABA00010B020A1190FE
:060D18000031E0F582222B
:10276E002D2D2D2D2D2D2D2D2D2D2D2D2D2D2D2D8B
:10277E002D2D2D2D2D2D2D2D2D2D2D2D2D2D2D2D7B
:10278E002D2D2D2D2D2D2D2D2D2D2D2D2D2D2D2D6B
:10279E002D2D2D2D2D2D2D2D2D2D2D2D0A0D002DCB
:1027AE002D2D2D2D2D2D2D2D2D2D2D2D2D2D4D4513
:1027BE004D4F5259204341524420524541444552B7
:1027CE00204150504C49434154494F4E2D2D2D2DF3
:1027DE002D2D2D2D2D2D2D2D2D2D2D2D0A0D000AAE
:1027EE000D53656C65637420616E206F7074696F34
:1027FE006E3A0A0D0031202D204D656D6F727920D5
:10280E004361726420526561640A0D0032202D20EE
:10281E00536563746F722046696C6C202D204D6574
:10282E006D6F727920436172642057726974650A04
:10283E000D0033202D204865782044756D70202DB5
:10284E00204D756C7469706C6520736563746F725E
:10285E0020726561640A0D0034202D2046696C6576
:10286E0020526561640A0D0035202D20436F70796A
:10287E002064617461206279746573206265747777
:10288E0065656E20736563746F72730A0D00456E15
:10289E0074657220736563746F72206E756D6265F8
:1028AE00722028342062797465732920746F207227
:1028BE006561642066726F6D3A200A0D00456E7474
:1028CE00657220736563746F72206E756D626572CA
:1028DE0020746F206265207772697474656E20743F
:1028EE006F206D656D6F727920636172643A200A94
:1028FE000D00456E746572206461746120746F20E2
:10290E006265207772697474656E20746F206D65D0
:10291E006D6F727920636172643A200A0D000A0DA0
:10292E00456E74657220737461727420736563747E
:10293E006F7220616464726573730A0D000A0D452F
:10294E006E74657220656E6420736563746F722099
:10295E00616464726573730A0D000A0D456E7465C9
:10296E007220736F7572636520736563746F722066
:10297E00616464726573733A0A0D000A0D456E74D4
:10298E0065722064657374696E6174696F6E20730D
:10299E006563746F7220616464726573733A0A0DB5
:1029AE00000A0D436F7079696E6720646174612E41
:1029BE002E2E3A0A0D000A0D53656C656374206164
:1029CE002066696C6520746F207265616420667282
:1029DE006F6D20534420436172643A0A0D0031201A
:1029EE002D20616E696B65742E7478740A0D003239
:1029FE00202D204C696E6B732E7478740A0D003383
:102A0E00202D204E6F74657061642E7478740A0DDB
:102A1E00004D6F6465206661756C740A0D004F760B
:102A2E00657272756E207461736B696E670A0D0044
:102A3E000A0D506C6561736520656E746572206851
:102A4E00657861646563696D616C20696E7075741B
:102A5E002E205370656369616C20636861726163D7
:102A6E007465727320617265206E6F7420616C6C78
:082A7E006F7765642E0A0D005C
:100D1E00900042E0FAA3E0FB7C007D00C3EC94025D
:100D2E00ED648094804001228C828D83C002C003CA
:100D3E00C004C005120FB9D005D004D003D002C034
:100D4E0002C003C004C0057486C0E0742AC0E0125D
:100D5E001C0615811581D005D004D003D0027E006B
:100D6E007F00C3EE940BEF64809480505DC002C090
:100D7E0003900036E0F8A3E0F9A3E0FAEE28F8EFCE
:100D8E0039F9888289838AF0122735F87A00C002F1
:100D9E00C003C004C005C006C007C000C0027494E2
:100DAE00C0E0742AC0E07480C0E0121E96E5812473
:100DBE00FBF581D007D006D005D004D003D0020EAB
:100DCE00BE00010FD003D0028098C002C003C00441
:100DDE00C0057497C0E0742AC0E0121C0615811578
:100DEE0081D005D004D003D002C002C003C004C01D
:100DFE0005749AC0E0742AC0E07480C0E0121E969A
:100E0E00158115811581D005D004D003D0027E0046
:100E1E007F00C3EE9404EF648094805059C002C0EA
:100E2E0003900039E0F8A3E0F9A3E0FAEE28F8EF1A
:100E3E0039F9888289838AF0122735F87A00C00240
:100E4E00C003C004C005C006C007C000C00274A71E
:100E5E00C0E0742AC0E0121C06E58124FCF581D0A6
:100E6E0007D006D005D004D003D0020EBE00010F6D
:100E7E00D003D002809CC002C003C004C00574978A
:100E8E00C0E0742AC0E0121C0615811581D005D071
:100E9E0004D003D002900078E4F0A3746EF0A37433
:100EAE0004F0A3E4F0758233C002C003C004C00591
:100EBE001215F9D005D004D003D0028A828B83C0DC
:100ECE0002C003C004C005120EE8D005D004D00342
:100EDE00D0020CBC00010D020D2A900044E4F0A3D8
:100EEE007440F0A37404F0A3E4F0900048F0A374EF
:100EFE0080F0A37404F0A3E4F090004CF0A374C04F
:100F0E00F0A37404F0A3E4F0900050F0A3F0A374E7
:100F1E0005F0A3E4F0900054F0A37440F0A3740520
:100F2E00F0A3E4F0900058F0A37480F0A37405F0E1
:100F3E00A3E4F090004CE0FAA3E0FBA3E0FCA3E0F6
:100F4E00FD8A828B838CF012139B74AAC0E0742AE4
:100F5E00C0E07480C0E0121E961581158115817A4D
:100F6E00007B00C3EA9432EB64809480503C900086
:100F7E003CE0FCA3E0FDEA2CF582EB3DF583E0FCC2
:100F8E007D00C002C003C004C0057494C0E0742A82
:100F9E00C0E07480C0E0121E96E58124FBF581D07E
:100FAE0003D0020ABA00BC0B80B92290C00075F0C3
:100FBE0003E412139B7A007B00C3EA940BEB64806C
:100FCE009480503E900036E0FCA3E0FDA3E0FEEAE4
:100FDE002CFCEB3DFD74202AF508E43BF50990004E
:100FEE003CE0F9A3E0FFE50829F582E5093FF5832A
:100FFE00E0FF8C828D838EF0121BED0ABA00BA0BC5
:10100E0080B77A007B00C3EA9404EB64809480502E
:10101E003E900039E0FCA3E0FDA3E0FEEA2CFCEBE1
:10102E003DFD743B2AF508E43BF50990003CE0F9E0
:10103E00A3E0FFE50829F582E5093FF583E0FF8C83
:10104E00828D838EF0121BED0ABA00BA0B80B72286
:10105E00AA82AB83ACF0FD900060EAF0A3EBF0A3A4
:10106E00ECF0A3EDF0900060E0FAA3E0FBA3E0FC4F
:10107E00A3E0FD8A828B838CF012139B90005CE0C0
:10108E00FAA3E0FBA3E0FCA3E0FD8A828B838CF045
:10109E000216E343C3407A007B00C3EA9408EB6474
:1010AE00809480500F75C5FF10000280FB0ABA00B5
:1010BE00E90B80E6C2947A007B00C3EA9402EB64EB
:1010CE00809480500F75C5FF10000280FB0ABA0095
:1010DE00E90B80E675C5FF10000280FBC29475C552
:1010EE00FF10000280FB75C54010000280FB7A00E5
:1010FE007B00C374039A74808BF063F08095F0408C
:10110E000F75C5000ABA00010B10000280FB80E2C9
:10111E0075C59510000280FB75C5FF10000280FB9F
:10112E00900034E0FA900035F075C5FF1000028093
:10113E00FB900035EAF0900035E0FA606775C54126
:10114E0010000280FB7A007B00C374039A74808BBC
:10115E00F063F08095F0400F75C5000ABA00010BE0
:10116E0010000280FB80E275C5FE10000280FB7548
:10117E00C5EF10000280FB75C5FE10000280FB90CB
:10118E000034E0FA900035F0EA3395E0FBC002C07F
:10119E000374BEC0E0742AC0E0121C06E58124FC74
:1011AE00F581809275C57A10000280FB7A007B0073
:1011BE00C374039A74808BF063F08095F0400F75C2
:1011CE00C5000ABA00010B10000280FB80E275C553
:1011DE00FF10000280FB7A007B00C3EA9403EB64ED
:1011EE00809480502575C5EF10000280FB9000346E
:1011FE00E0FC900035F075C5FE10000280FB9000FB
:10120E0035ECF00ABA00D30B80D075C54D10000234
:10121E0080FB7A007B00C374039A74808BF063F0BA
:10122E008095F0400F75C5000ABA00010B10000240
:10123E0080FB80E275C5FF10000280FB75C5EF10C4
:10124E00000280FB900034E0FA900035F075C5FE88
:10125E0010000280FB900035EAF075C5EF10000219
:10126E0080FB900035EAF090000022AA82AB83AC9E
:10127E00F0FD900064EAF0A3EBF0A3ECF0A3EDF028
:10128E00900064E0FAA3E0FBA3E0FCA3E0FD900075
:10129E0068EAF0A3EBF0A3ECF0A3EDF075C5FF1038
:1012AE00000280FB75C55110000280FB7A037B00A3
:1012BE00EB20E719EA2468F582EB3400F583E0F5BC
:1012CE00C51ABAFF011B10000280FB80E375C5FF33
:1012DE0010000280FB75C5FF10000280FB7A007BB8
:1012EE0000C3EA9402EB64809480501775C5FF101A
:1012FE00000280FB75C5FF10000280FB0ABA00E1F8
:10130E000B80DE7A007B00C3EA9440EB648094810C
:10131E00504E75C5FF10000280FBACC57D00C002AB
:10132E00C003C004C00574CEC0E0742AC0E0121C15
:10133E0006E58124FCF581D003D002ACC58C82C0B9
:10134E0002C003120393AC82D003D0028C82C0027F
:10135E00C0031200AAD003D0020ABA00AA0B80A7BB
:10136E001200C47A007B00C3EA9402EB648094807E
:10137E00501775C5FF10000280FB75C5FF100002E7
:10138E0080FB0ABA00E10B80DE75820122AA82ABD5
:10139E0083ACF0FD90006CEAF0A3EBF0A3ECF0A3AD
:1013AE00EDF090006CE0FAA3E0FBA3E0FCA3E0FDFF
:1013BE00900074EAF0A3EBF0A3ECF0A3EDF075C58A
:1013CE00FF10000280FB75C55110000280FB7A03EE
:1013DE007B00EB20E719EA2474F582EB3400F583E9
:1013EE00E0F5C51ABAFF011B10000280FB80E37501
:1013FE00C5FF10000280FB75C5FF10000280FB7A4E
:10140E00007B00C3EA9402EB64809480501775C58C
:10141E00FF10000280FB75C5FF10000280FB0ABAA8
:10142E0000E10B80DE900075E0FA7B001ABAFF0136
:10143E001B900070EAF0A3EBF0900075E0FA9000BC
:10144E0072F0A3E4F0900076E0900077E0900074E4
:10145E00E0FA7B00900075E0FC7D00900076E0FEE7
:10146E007F00900077E0F87900C002C003C004C08E
:10147E0005C006C007C000C00174D9C0E0742AC000
:10148E00E07480C0E0121E96E58124F5F58190008F
:10149E0072E0FAA3E0FB7C007D00C3ED64809482D1
:1014AE0040030215CF75C5FF10000280FBAEC5903C
:1014BE000005C002C003C004C005C006121AC8D081
:1014CE0006D005D004D003D00290003CE0FFA3E08C
:1014DE00F8EC2FF582ED38F583EEF0900070E0FE1B
:1014EE00A3E0FF90007074012EF0E43FA3F0BC0067
:1014FE000FBD010C0ABA00010B900070E4F0A3F0CE
:10150E009000AA7410F0E4A3F08C828D83C002C008
:10151E0003C004C005121D2EE5828583F0D005D0D0
:10152E0004D003D00245F07063BC0005BD000280FC
:10153E005B75820AC002C003C004C005121B79D0BD
:10154E0005D004D003D00275820DC002C003C004C2
:10155E00C005121B79D005D004D003D002AEC57FD2
:10156E0000C002C003C004C005C006C00774F0C0AE
:10157E00E0742AC0E07480C0E0121E96E58124FB60
:10158E00F581D005D004D003D002802DAEC57F00EA
:10159E00C002C003C004C005C006C00774F0C0E09E
:1015AE00742AC0E07480C0E0121E96E58124FBF51B
:1015BE0081D005D004D003D0020CBC00010D021462
:1015CE00A87A007B00C3EA9402EB648094805017E3
:1015DE0075C5FF10000280FB75C5FF10000280FB71
:1015EE000ABA00E10B80DE75820122E58290007C52
:1015FE00F0900078E0FAA3E0FBA3E0FCA3E0FD90FE
:10160E00007DEAF0A3EBF0A3ECF0A3EDF075C5FFBF
:10161E0010000280FB75C55810000280FB7A037B18
:10162E0000EB20E719EA247DF582EB3400F583E028
:10163E00F5C51ABAFF011B10000280FB80E375C5C9
:10164E00FF10000280FB7A007B00C3EA9403EB6478
:10165E00809480500F75C5FE10000280FB0ABA0000
:10166E00E90B80E690007CE0FA7B007C00C3EC6422
:10167E00809482500E8AC510000280FB0BBB00EDD9
:10168E000C80EA75C5FF10000280FB75C5FF1000C7
:10169E000280FBAAC5C00274F9C0E0742AC0E01231
:1016AE001C0615811581D002530201BA01DD75C5E4
:1016BE00FF10000280FB7401C0E0742BC0E0121C0E
:1016CE000615811581E5C560E575C5FF1000028020
:1016DE00FB75820122AA82AB83ACF0FD900081EAF9
:1016EE00F0A3EBF0A3ECF0A3EDF0900081E0FAA3F1
:1016FE00E0FBA3E0FCA3E0FD900085EAF0A3EBF095
:10170E00A3ECF0A3EDF075C5FF10000280FB75C5CC
:10171E005810000280FB7A037B00EB20E719EA24C5
:10172E0085F582EB3400F583E0F5C51ABAFF011B8F
:10173E0010000280FB80E375C5FF10000280FB7A6B
:10174E00007B00C3EA9403EB64809480500F75C550
:10175E00FE10000280FB0ABA00E90B80E67A007BDD
:10176E0000C3EB64809482501F90003CE0FCA3E029
:10177E00FDEA2CF582EB3DF583E0F5C51000028005
:10178E00FB0ABA00DC0B80D975C5FF10000280FB86
:10179E0075C5FF10000280FBAAC5C00274F9C0E037
:1017AE00742AC0E0121C0615811581D00253020165
:1017BE00BA01DD75C5FF10000280FB7401C0E07434
:1017CE002BC0E0121C0615811581E5C560E575C5B7
:1017DE00FF10000280FB75820122AA82AB83ACF05F
:1017EE00FD90008DEAF0A3EBF0A3ECF0A3EDF090EA
:1017FE00008DE0FAA3E0FBA3E0FCA3E0FD900093D4
:10180E00EAF0A3EBF0A3ECF0A3EDF0900089E0FE7C
:10181E00A3E0FFA3E0F8A3E0F9900097EEF0A3EFAA
:10182E00F0A3E8F0A3E9F0EEC39AF50AEF9BF50BEF
:10183E00E89CF50CE99DF50D75C55010000280FB76
:10184E00900091E4F0A3F0900091E0FEA3E0FFC3BE
:10185E0074039E74808FF063F08095F04030BE026A
:10186E0018BF001575C50290009174012EF0E43F6B
:10187E00A3F010000280FB80CE75C500900091741D
:10188E00012EF0E43FA3F010000280FB80B975C575
:10189E00FF10000280FB75C5EF10000280FB75C5BE
:1018AE00FE10000280FB75C5FF10000280FB75C59F
:1018BE005210000280FB7E037F00EF20E719EE241A
:1018CE0093F582EF3400F583E0F5C51EBEFF011FD0
:1018DE0010000280FB80E375C5FF10000280FB75CF
:1018EE00C5FF10000280FB7E007F00C3EE9402EF66
:1018FE0064809480501775C5FF10000280FB75C57B
:10190E00FF10000280FB0EBE00E10F80DE900095FE
:10191E00E0900096E0900093E0FE7F00900094E04F
:10192E00F87900900095E0FA7B00900096E0FC7D3F
:10193E0000C006C007C000C001C002C003C004C082
:10194E000574D9C0E0742AC0E07480C0E0121E96FF
:10195E00E58124F5F5817E007F008E00EFF9339549
:10196E00E0FAFBC3E8950AE9950BEA950CEB950DA9
:10197E004003021A4A75C5FF10000280FBAAC590EB
:10198E000005C002C006C007121AC8D007D006D084
:10199E000290003CE0FBA3E0FCEE2BF582EF3CF561
:1019AE0083EAF09000AA7410F0E4A3F08E828F8385
:1019BE00C006C007121D2EE5828583F0D007D00623
:1019CE0045F0704BBE0005BF0002804375820AC011
:1019DE0006C007121B79D007D00675820DC006C04F
:1019EE0007121B79D007D006AAC57B00C006C00718
:1019FE00C002C00374F0C0E0742AC0E07480C0E07E
:101A0E00121E96E58124FBF581D007D0068025AA0B
:101A1E00C57B00C006C007C002C00374F0C0E074EE
:101A2E002AC0E07480C0E0121E96E58124FBF58189
:101A3E00D007D0060EBE00010F021968121A777A6F
:101A4E00007B00C3EA9402EB64809480501775C546
:101A5E00FF10000280FB75C5FF10000280FB0ABA62
:101A6E0000E10B80DE7582012275C54C10000280EC
:101A7E00FB7A007B00C374039A74808BF063F08052
:101A8E0095F0400F75C5000ABA00010B10000280D8
:101A9E00FB80E275C5FF10000280FB75C5EF1000DC
:101AAE000280FB900034E0FA900035F075C5FE1010
:101ABE00000280FB900035EAF022AA83E5829000B6
:101ACE009BF0A3EAF090009BE0FAA3E0FB7C007D84
:101ADE0000C3EC9AED9B50147E647F001EBEFF0186
:0D1AEE001FEE4F70F70CBC00E80D80E522E4
:102A86000A0D46696C65204E616D653A2000256326
:102A9600000A0D000A0D46696C652053697A653A8D
:102AA600002578000A0D44617461207265636569CA
:102AB6007665643A200A0D00646174615F7361761D
:102AC600653A2025780A0D00446174613A2025781C
:102AD6000A0D000A0D25303278253032782530323D
:102AE60078253032783A200A0D0030782530327851
:102AF60020200030784646300A0D003078464631B0
:032B06000A0D00B5
:101AFB00759850438920758DFDD28ED29922AAF00C
:101B0B00AB83E58290009DF0A3EBF0A3EAF090008D
:101B1B009DE0FAA3E0FBA3E0FC7D007E008A828BB4
:101B2B00838CF0122735FF60300ABA00010B90004E
:101B3B009DEAF0A3EBF0A3ECF08F82C002C003C0D0
:101B4B0004C005C006121B79D006D005D004D00303
:101B5B00D0020DBD00C70E80C490009DEAF0A3EB30
:101B6B00F0A3ECF00DBD00010E8D828E8322E58279
:101B7B009000A0F03099FD9000A0E0F599C2992259
:0A1B8B0010980280FBAA998A8222BA
:06007D00E478FFF6D8FD57
:101B9500AAF0AB83E5829000A4F0A3EBF0A3EAF0F2
:101BA5009000A4E0FAA3E0FBA3E0FC9000A1E0FD17
:101BB5009000A2E0FEA3E0FF8E008F011EBEFF0194
:101BC5001FE84960118A828B838CF0ED121BEDA30F
:101BD500AA82AB8380E29000A4E0FAA3E0FBA3E035
:081BE500FC8A828B838CF02244
:10005B007900E94400601B7A00902B1478E175A0BD
:10006B0000E493F2A308B8000205A0D9F4DAF27504
:02007B00A0FFE4
:101BED0020F71030F6118883A88220F507F6A88318
:101BFD0075830022F280F7F022C00E85810EE50E6E
:101C0D0024FDF8868318868218E493A324DB600CE8
:101C1D0024256005121CF380F0021D0BD2D5E49330
:101C2D00A3C083C082B4731486F01886831886828D
:101C3D00181227356053A3121CF380F5B46307E621
:101C4D0018121CF38043B46417E630E74618E6F427
:101C5D002401F608E6F43400F6742D121CF38033DB
:101C6D00B4782D868318868218E4121CE4E583125D
:101C7D001CE3E583121CE4E582121CE3E582121CD1
:101C8D00E430D5057430121CF3D082D083021C16BB
:101C9D00B475F6E6FA18E6F9187C107D27121CCEFD
:101CAD00FF7CE87D03121CCEC4F5837C647D00129D
:101CBD001CCE4283E975F00A84C445F0F582EF80AD
:101CCD00A97B000BC3E99CF9EA9DFA50F61BE92CA0
:101CDD00F9EA3DFAEB22C4540F700320D51FC2D58B
:101CED002490D43440D4C083C082C0F0F582E8C0C3
:101CFD00E0121B79D0E0F8D0F0D082D08322D00E44
:101D0D0022AA83AB828BF09000A8E0A4F8A9F08AF8
:101D1D00F0E0A429F98BF0A3E0A429F583888222B1
:101D2D0022AA83E5829000ACF0A3EAF09000ACE02B
:101D3D00FAA3E0FB30E709C3E49AFCE49BFD8004C1
:101D4D008A048B058C028D039000AAE0FCA3E0FDB4
:101D5D0030E709C3E49CFEE49DFF80048C068D07EB
:101D6D009000AEEEF0A3EFF08A828B83121D9CAA39
:101D7D0082AB839000ACE0FCA3E0FD30E70CC3E444
:101D8D009AFCE49BFD8C828D83228A828B8322AA0E
:101D9D0083E5829000B0F0A3EAF09000B2E4F090F9
:101DAD0000B0E0FAA3E0FB7C009000AEE0FDA3E004
:101DBD00FE235401FF7037EECD25E0CD33FE9000AC
:101DCD00AEEDF0A3EEF09000AEE0FDA3E0FEC3EAB1
:101DDD009DEB9E5011EEC313CD13CDFE9000AEEDD5
:101DED00F0A3EEF080080C9000B2ECF080BB9000F8
:101DFD00B2E0FA9000B0E0FBA3E0FC9000AEE0FD95
:101E0D00A3E0FEC3EB9DEC9E400B9000B0EBC39D99
:101E1D00F0EC9EA3F09000AEE0FBA3E0FCC313CB6F
:101E2D0013CBFC9000AEEBF0A3ECF08A031AEB7031
:0D1E3D00C29000B0E0FAA3E08A82F5832293
:100083007800E84400600A790075A000E4F309D819
:10009300FC78E1E84400600C7901900000E4F0A3EF
:0400A300D8FCD9FAB2
:101E4A00C00E85810EAA82121B79D00E22AAF0AB8F
:101E5A0083E5829000B4F0A3EBF0A3EAF09000B41B
:101E6A00E0FAA3E0FBA3E0FC9000B3E0FD9000C71A
:101E7A00E4F0A3F0A3F09000CAEAF0A3EBF0A3EC1D
:101E8A00F09000CDEDF0901E4A021FAFC00E858182
:101E9A000EE50E24FBFA9000C7E4F0A3F0A3F0E5E8
:101EAA000E24FBF89000CAE6F008A3E6F008A3E6C1
:101EBA00F09000CDEAF0901E4A121FAFAA82AB83BF
:101ECA00D00E22E5829000C3F09000C3E0FA9000A1
:101EDA00B9E0C0E0A3E0C0E0A3E0C0E074FBC0E06A
:101EEA00741EC0E09000B7E0C0E0A3E0C0E08A82C0
:101EFA00221581158115819000C1E0FAA3E0FB90BB
:101F0A0000C174012AF0E43BA3F022E5829000C4E8
:101F1A00F09000C4E0FA74302AFA24C6500A740712
:101F2A002AFA3001034302208A82021ECDE58290FA
:101F3A0000C5F09000C5E0FAC4540FFBF582C00258
:101F4A00121F15D00253020F8A82021F15E58290D2
:101F5A0000C6F09000BCE0FAA3E0FBA3E0FCA3E01B
:101F6A00FD9000C0E0FE9000C6E0FF7820EE2EFE55
:101F7A00ED235401F94206EA2AFAEB33FBEC33FC6F
:101F8A00ED33FDC3EE9F4007EEC39FFE430201D827
:101F9A00DC9000BCEAF0A3EBF0A3ECF0A3EDF09028
:101FAA0000C0EEF022AA83E5829000CEF0A3EAF008
:101FBA009000CEE0FAA3E0FB9000B7EAF0A3EBF0C2
:101FCA009000C7E0FAA3E0FBA3E0FC9000B9EAF0B6
:101FDA00A3EBF0A3ECF09000C1E4F0A3F09000CAE8
:101FEA00E0FAA3E0FBA3E0FC8A828B838CF0122741
:101FFA0035FD9000CA74012AF0E43BA3F0A3ECF08B
:10200A00ED70030226D6BD250280030226CEC20247
:10201A00C203C204C205C206C207C208C2099000AE
:10202A00D0E4F09000D1F09000D274FFF09000CA92
:10203A00E0FAA3E0FBA3E0FC8A828B838CF01227F0
:10204A0035FEA3AA82AB839000CAEAF0A3EBF0A301
:10205A00ECF09000D4EEF0BE25088E82121ECD025E
:10206A001FE78E07BF300040498E07EF24C6404263
:10207A009000D2E0FFBFFF29C002C003C004900055
:10208A00D1E0FA75F00AA4FAEE24D09000D12AF031
:10209A009000D1E0FAD004D003D002709BD2038022
:1020AA0097EF75F00AA4FFEE24D09000D22FF00229
:1020BA0020429000D4E0FEBE2E089000D2E4F00246
:1020CA0020428E82C002C003C004C006122751E516
:1020DA008224FF9201D006D004D003D00230010737
:1020EA009000D474DF5EF09000D4E0FEBE2002803F
:1020FA0055BE2B02804BBE2D028041BE4202804B50
:10210A00BE43028050BE4403022343BE4603022359
:10211A0065BE4903022343BE4C028034BE4F03020C
:10212A00234DBE50030222A5BE53028042BE550370
:10213A00022355BE580302235D022369D2020220FC
:10214A0042D204022042D205022042D20702204291
:10215A00D2080220429000CDE0FA24FEF89000CD89
:10216A00F08602088603188A82121ECD0223759011
:10217A0000CDE0FA24FDF89000CDF086020886032F
:10218A0008860418189000BCEAF0A3EBF0A3ECF060
:10219A009000BCE0FAA3E0FBA3E0FC8A828B838C6C
:1021AA00F01226E2AA82AB839000D2E0FBBBFF05C5
:1021BA009000D2EAF02002389000D1E0FBC3EA9BFB
:1021CA00502E9000D1EBC39AF09000D1E0FB8B0423
:1021DA001B9000D1EBF0BC00028010758220C00277
:1021EA00C003121ECDD003D00280E39000D1EBF0E1
:1021FA009000D2E0FDC0029000BCE0FCA3E0FFA387
:10220A00E0FA8C828F838AF0122735D00260538DD0
:10221A00041DC374808CF063F08095F05044C002B2
:10222A009000BCE0F50FA3E0F510A3E0F5117401EE
:10223A00250FFBE43510FAAC119000BCEBF0A3EAD1
:10224A00F0A3ECF0850F828510838511F0122735F3
:10225A00FAF582C002C005121ECDD005D002D00206
:10226A0080932002030223759000D1E0FBC3EA9B0E
:10227A0040030223759000D1EBC39AF09000D1E09D
:10228A00FA8A031A9000D1EAF0BB000302237075A0
:10229A008220C002121ECDD00280E69000CDE0FB63
:1022AA0024FDF89000CDF0860308860408860718F6
:1022BA00189000BCEBF0A3ECF0A3EFF09000BEE0A6
:1022CA00FB247F50089000D47443F08020EB249FB5
:1022DA0050089000D47450F08013EB24BF5008903B
:1022EA0000D47449F080069000D47458F09000D459
:1022FA00E0FBF582C003121ECDD00375823AC003FB
:10230A00121ECDD003758230C003121ECDD00375C4
:10231A008278C003121ECDD003BB4902800FBB5086
:10232A0002800A9000BDE0FBF582121F379000BCC4
:10233A00E0FBF582121F378032D2069000D0740A71
:10234A00F080289000D07408F080209000D0740AA1
:10235A00F080189000D07410F08010D209800C8E92
:10236A0082121ECD80059000D1EAF030096B9000F0
:10237A00CDE0FA24FCF89000CDF086020886030826
:10238A0086040886061818189000BCEAF0A3EBF039
:10239A00A3ECF0A3EEF09000BC7409F0A3742BF048
:1023AA00A37480F09000BCE0FBA3E0FCA3E0FD7402
:1023BA00012BFEE43CFF8D029000BCEEF0A3EFF08F
:1023CA00A3EAF08B828C838DF0122735FA70030210
:1023DA001FE78A82121ECD80CB9000D0E0FABA00A5
:1023EA0003021FE79000DB74DAF0A37400F03007F1
:1023FA004C9000CDE0FA14F89000CDF08602EA3352
:10240A0095E0FBFCFE9000BCEAF0A3EBF0A3ECF035
:10241A00A3EEF03006030224BD9000BCE0FAA3E06C
:10242A00FBA3E0FCA3E0FE7B007C007E009000BCE6
:10243A00EAF0A3EBF0A3ECF0A3EEF0807630082AE2
:10244A009000CDE0FA24FCF89000CDF086020886D0
:10245A00030886040886061818189000BCEAF0A338
:10246A00EBF0A3ECF0A3EEF080499000CDE0FA2463
:10247A00FEF89000CDF0860208860318EB3395E04B
:10248A00FCFE9000BCEAF0A3EBF0A3ECF0A3EEF0A4
:10249A002006209000BCE0FAA3E0FBA3E0FCA3E046
:1024AA00FE7C007E009000BCEAF0A3EBF0A3ECF007
:1024BA00A3EEF030063E9000BCE0FAA3E0FBA3E0F6
:1024CA00FCA3E0FE30E72B9000BCE0FAA3E0FBA3FC
:1024DA00E0FCA3E0FEC3E49AFAE49BFBE49CFCE480
:1024EA009EFE9000BCEAF0A3EBF0A3ECF0A3EEF0A2
:1024FA008002C206D20A9000D0E0FC7512DA751387
:10250A00007D009000C0E4F08C82C004C005121F58
:10251A0057D005D004200A32C0049000C0E0FFC49E
:10252A00FF851282851383E0FA420785128285139A
:10253A0083EFF0151274FFB5120215139000DBE554
:10254A0012F0A3E513F0D004800C9000C0E0FF85E0
:10255A001282851383F00D9000D3EDF0B20A900039
:10256A00BCE0FFA3E0FAA3E0FEA3E0FBEF4A4E4B78
:10257A0070919000DBE512F0A3E513F09000D3ED23
:10258A00F09000D1E0FA70069000D17401F02003B7
:10259A002720022474012DFA9000D1E0FBC3EA9BA4
:1025AA005011758220C002C003121ECDD003D00282
:1025BA001B80EA9000D1EBF030061275822D121EB4
:1025CA00CD9000D1E0FA149000D1F0802F9000D382
:1025DA00E0FA602830041275822B121ECD9000D1C9
:1025EA00E0FA149000D1F0801330051075822012A1
:1025FA001ECD9000D1E0FA149000D1F020022F9065
:10260A0000D3E0FA9000D1E0FB8B041B9000D1EBE1
:10261A00F0C3EA9C50363003047C3080027C208C64
:10262A0082C002C003121ECDD003D00280DB90000C
:10263A00D1E0FA9000D3E0FCC39A50099000D1EAA5
:10264A00C39CF0800C9000D1E4F080059000D1EB9F
:10265A00F09000DBE0FAA3E0FB9000D3E0FC8C06EC
:10266A001CEE6040B20A200A150ABA00010B8A82DF
:10267A008B83E0FEC4540FFE9000C0F0800E8A8265
:10268A008B83E0FE53060F9000C0EEF09000C0E08E
:10269A00FEF582C002C003C004121F15D004D00385
:1026AA00D00280BA200203021FE79000D1E0FA8A22
:1026BA00031AEB7003021FE7758220C002121ECDB7
:1026CA00D00280EB8D82121ECD021FE79000C1E07E
:0826DA00FAA3E08A82F58322D5
:0B2B09003C4E4F20464C4F41543E0014
:1026E200AAF0AB83E5829000DDF0A3EBF0A3EAF061
:1026F2007A007B009000DDE0FCA3E0FDA3E0FE8C0D
:10270200828D838EF0122735FFA3AC82AD839000B9
:10271200DDECF0A3EDF0A3EEF0EF60070ABA00DF04
:102722000B80DC9000DDECF0A3EDF0A3EEF08A82EA
:032732008B832274
:0D004E0075812112044DE582600302044813
:1027350020F71430F6148883A88220F507E6A883CD
:1027450075830022E280F7E49322E022E58290007F
:10275500E0F09000E0E0FABA61004009EA24854023
:0927650004758201227582002234
:00000001FF
