:1000AA00E582900007F0900007E0FA900003F01252
:1000BA00022B1201D2D2A0D2A222C2A490000A120A
:1000CA00016FD2A4900000E4F0900001F0900002C9
:1000DA007442F01201A2900000E4F0900001F09046
:1000EA0000027443F01201A2900000E4F0900001B3
:1000FA00F09000027440F01201A29000007414F013
:10010A00900001E4F09000027441F01201A2120181
:10011A00D29000027480F01202141201D21201D29B
:10012A0090000274A0F01202141201D21201D290AD
:10013A0000027494F01202141201D2900190120279
:10014A0042900000E4F0900001F09000027424F064
:10015A001201A21201D290000274B0F0120214121B
:10016A0001D2D2A222AA83E582900008F0A3EAF083
:10017A00900008E0FAA3E0FB7C007D00C3EC9AED56
:10018A009B50147E647F001EBEFF011FEE4F70F766
:10019A000CBC00E80D80E5221201D2900000E0FAC2
:1001AA00900003F012022B1201D2900001E0FA90A3
:1001BA000003F012022B1201D2D2A3C2A2D2A19042
:1001CA000002E0F580C2A022D2A3C2A2D2A0C2A19C
:1001DA007580FF90000112016F90000112016FD229
:1001EA00A122D2A3C2A2D2A0C2A17580FF9000010F
:1001FA0012016FD2A122C2A3C2A27580FFD2A0C2ED
:10020A00A1900004E580F0D2A122D2A3C2A2D2A179
:10021A00C2A0900002E0F58090000112016FD2A006
:10022A0022C2A3C2A2D2A1C2A0900003E0F580908C
:10023A00000112016FD2A022AA83E58290000AF07F
:10024A00A3EAF0900000E4F0900001F0900002743C
:10025A0024F01201A21201D290000274B0F012022C
:10026A00141201D2900005E4F09000067420F09078
:10027A000003E4F090000AE0FAA3E0FB7C007D00B2
:10028A00C3EC9AED64808BF063F08095F0502DC03A
:10029A0002C003C004C0051201ECD005D004D0038B
:1002AA00D002C002C003C004C00512022BD005D080
:1002BA0004D003D0020CBC00C70D80C41201D29036
:1002CA00000274B2F01202140201D2E58290000D0B
:1002DA00F0900000E4F0900001F09000027440F009
:1002EA001201A21201D290000DE0FA900000F090E3
:1002FA00000CE0FA900001F09000027421F0120163
:10030A00A20201D2AAF0AB83E58290000EF0A3EB21
:10031A00F0A3EAF090000EE0FAA3E0FBA3E0FC7D74
:10032A00007E00ED2AFFEE3BF88C018F82888389DC
:10033A00F0122779FF60518D078E000DBD00010E66
:10034A00EF2AFFE83BF88C018F82888389F0122715
:10035A0079FFF582C002C003C004C005C0061203BB
:10036A0093AF82D006D005D004D003D0028F82C0CA
:10037A0002C003C004C005C0061200AAD006D005F8
:10038A00D004D003D002809B22E582900011F09025
:10039A000011E0FAC3648094C1401574DA8AF063EC
:1003AA00F08095F0400AEA24E0900012F00204413D
:1003BA00900011E0FAC3648094E1401574FA8AF05F
:1003CA0063F08095F0400AEA24E0900012F00204FB
:1003DA0041900011E0FAC3648094B0401474B98A61
:1003EA00F063F08095F04009EA24E0900012F08072
:1003FA0046900011E0FAC3648094A0401474AF8A56
:10040A00F063F08095F04009EA24E0900012F08051
:10041A0026900011E0FAC3648094BA401474C08A2A
:10042A00F063F08095F04009EA24E0900012F08031
:0E043A0006900012745FF0900012E0F582222E
:0400000002004E327A
:01000B0032C2
:0100130032BA
:01001B0032B2
:0100230032AA
:01002B0032A2
:01003300329A
:01003B003292
:01004300328A
:03004B000208E4C4
:0300A70002044808
:1004480012045780FE538EFD438EC0900001221285
:10045800095B121B3F1200C4D2AFD2A8C289121086
:10046800E875A0FFD2A2D2A074B2C0E07427C0E0A1
:10047800121C4A1581158174F3C0E07427C0E0127C
:100488001C4A158115817432C0E07428C0E0121C22
:100498004A158115817472C0E07428C0E0121C4AA4
:1004A800158115817488C0E07428C0E0121C4A15B3
:1004B800811581749FC0E07428C0E0121C4A158120
:1004C800158174C5C0E07428C0E0121C4A15811556
:1004D8008174EBC0E07428C0E0121C4A15811581B4
:1004E80074FBC0E07428C0E0121C4A158115811203
:1004F8001BCFAA82BA3102801ABA32028063BA3399
:10050800030205FABA3403020753BA350302069FF9
:100518000204707421C0E07429C0E0121C4A1581DD
:100528001581120967AA82900016EAF0120967AAD3
:1005380082900015EAF0120967AA82900014EAF086
:10054800120967AA82900013EAF0E0FAA3E0FBA37D
:10055800E0FCA3E0FD8A828B838CF01213DF020497
:10056800707452C0E07429C0E0121C4A15811581CC
:10057800120967AA8290001AEAF0120967AA829003
:100588000019EAF0120967AA82900018EAF0120925
:1005980067AA82900017EAF07489C0E07429C0E065
:1005A800121C4A15811581121BCFAA82C00274B78A
:1005B800C0E07429C0E0121C4A15811581D0029050
:1005C8000017E0FBA3E0FCA3E0FDA3E0FE900078A9
:1005D800EBF0A3ECF0A3EDF0A3EEF08A8212163D47
:1005E80074CAC0E07429C0E0121C4A158115810242
:1005F800047074DFC0E07429C0E0121C4A1581152C
:1006080081120967AA8290001EEAF0120967AA827D
:1006180090001DEAF0120967AA8290001CEAF01205
:100628000967AA8290001BEAF074FEC0E07429C032
:10063800E0121C4A15811581120967AA82900022CE
:10064800EAF0120967AA82900021EAF0120967AA63
:1006580082900020EAF0120967AA8290001FEAF04F
:1006680090001BE0FAA3E0FBA3E0FCA3E0FD9000F0
:100678001FE0FEA3E0FFA3E0F8A3E0F9900089EEF5
:10068800F0A3EFF0A3E8F0A3E9F08A828B838CF063
:10069800ED12182C020470741BC0E0742AC0E0121A
:1006A8001C4A15811581120967AA82900026EAF072
:1006B800120967AA82900025EAF0120967AA8290B7
:1006C8000024EAF0120967AA82900023EAF0743C39
:1006D800C0E0742AC0E0121C4A158115811209670E
:1006E800AA8290002AEAF0120967AA82900029EAF1
:1006F800F0120967AA82900028EAF0120967AA8214
:10070800900027EAF07462C0E0742AC0E0121C4A24
:1007180015811581900023E0FAA3E0FBA3E0FCA378
:10072800E0FD900027E0FEA3E0FFA3E0F8A3E0F9D6
:1007380090005CEEF0A3EFF0A3E8F0A3E9F08A8262
:100748008B838CF0ED1210A50204707477C0E074EE
:100758002AC0E0121C4A15811581749FC0E0742AD2
:10076800C0E0121C4A1581158174B0C0E0742AC01B
:10077800E0121C4A1581158174C0C0E0742AC0E0DB
:10078800121C4A15811581121BCFAA82BA31028028
:100798000EBA3202806FBA330302086F0204707A0D
:1007A800007B00C3EA9405EB648094804003020454
:1007B800709000A87440F0A37401F08A828B83C003
:1007C80002C003121D52AC82AD83D003D002ED33B8
:1007D80095E0FEFF74402DFD74043EFEE43FFF8C5F
:1007E800828D838EF0C002C0031212C0D003D002E3
:1007F8003089FDC002C0031200C4D003D0020ABA77
:1008080000A10B809E7A007B00C3EA9401EB648010
:10081800948040030204709000A87440F0A374010F
:10082800F08A828B83C002C003121D52AC82AD8352
:10083800D003D002ED3395E0FEFF74052EFEE43FB1
:10084800FF8C828D838EF0C002C0031212C0D003C9
:10085800D0023089FDC002C0031200C4D003D00208
:100868000ABA00A50B80A27A007B00C3EA9403EBC6
:1008780064809480502590002BE4F0A37480F0A34A
:100888007404F0A3E4F03089FDC002C0031200C470
:10089800D003D0020ABA00D30B80D09000A87440CD
:1008A800F0A37401F08A828B83121D52AA82AB8353
:1008B80090002BE0FCA3E0FDA3E0FEA3E0FFEB33F8
:1008C80095E0F8F9EA2CFCEB3DFDE83EFEE93FFF38
:1008D8008C828D838EF01212C0020470C0E0C0F0CA
:1008E800C082C083C002C003C004C005C006C007E0
:1008F800C000C001C0D075D000AAC4BA10028018C8
:10090800BA40028024BA8030900034E5C5F0D200A5
:10091800900064121B0C802074D2C0E0742AC0E0DE
:10092800121C4A15811581800F74DFC0E0742AC03B
:10093800E0121C4A15811581D0D0D001D000D00713
:10094800D006D005D004D003D002D083D082D0F016
:10095800D0E032E5C375C30043C31043B10422900D
:1009680000A1E4F09000A27402F0E4A3F090003239
:1009780075F000121BD990002FE4F0A3F07A007BE9
:1009880000C3EA9402EB648094804003020A39C0F1
:1009980002C003121BCFAC82D003D002C374AF8C49
:1009A800F063F08095F0E433FD6008C3EC64809454
:1009B800BB402EC374E08CF063F08095F0E433FE06
:1009C8006008C3EC648094E74017C374C08CF0637C
:1009D800F08095F0E433FF6016C3EC648094C75050
:1009E8000EEA2432F582EB3400F583ECF08032ED28
:1009F8006008C3EC648094BB4027EE6008C3EC64D5
:100A08008094E7401CEF6008C3EC648094C74011F1
:100A180074F1C0E0742AC0E0121C4A158115818067
:100A2800100ABA00010B90002FEAF0A3EBF00209BC
:100A38008990002FE0FAA3E0FBC3EA9402EB6480FC
:100A480094805003020967900031E4F07A007B003B
:100A5800C3EA9402EB648094804003020D5EEA24AA
:100A680032FCEB3400FD8C828D83E0FEC3648094FD
:100A7800B0404F74B98EF063F08095F04044EE2496
:100A8800D0FE8C828D83F0EA4B70188C828D83E0C7
:100A9800FEC454F0FE900031E0FF900031EE2FF0DC
:100AA800020D56BA0105BB00028003020D568C8266
:100AB8008D83E0FC900031E0FD900031EC2DF002D8
:100AC8000D56EA2432F582EB3400F583E0FCC3646A
:100AD8008094C15003020C21C374C68CF063F0806B
:100AE80095F05003020C21BC4102801FBC420280D9
:100AF80047BC4302806FBC4403020B9ABC45030207
:100B08000BC7BC4603020BF4020D56EA4B700F905C
:100B18000031E0FD90003174A02DF0020D56BA01AD
:100B280005BB00028003020D56900031E0FD9000E5
:100B380031740A2DF0020D56EA4B700F900031E027
:100B4800FD90003174B02DF0020D56BA0105BB00BE
:100B5800028003020D56900031E0FD900031740BC5
:100B68002DF0020D56EA4B700F900031E0FD900019
:100B78003174C02DF0020D56BA0105BB0002800386
:100B8800020D56900031E0FD900031740C2DF002FA
:100B98000D56EA4B700F900031E0FD90003174D093
:100BA8002DF0020D56BA0105BB00028003020D5656
:100BB800900031E0FD900031740D2DF0020D56EAE1
:100BC8004B700F900031E0FD90003174E02DF00281
:100BD8000D56BA0105BB00028003020D5690003184
:100BE800E0FD900031740E2DF0020D56EA4B700FA7
:100BF800900031E0FD90003174F02DF0020D56BAEE
:100C08000105BB00028003020D56900031E0FD9003
:100C18000031740F2DF0020D56C3EC648094E1503E
:100C280003020D56C374E68CF063F08095F0500310
:100C3800020D56BC6102801FBC62028047BC630281
:100C4800806FBC6403020CE6BC6503020D0CBC6635
:100C580003020D32020D56EA4B700F900031E0FC92
:100C680090003174A02CF0020D56BA0105BB0002A9
:100C78008003020D56900031E0FC900031740A2C7C
:100C8800F0020D56EA4B700F900031E0FC900031F5
:100C980074B02CF0020D56BA0105BB0002800302A5
:100CA8000D56900031E0FC900031740B2CF0020DD1
:100CB80056EA4B700F900031E0FC90003174C02C64
:100CC800F0020D56BA0105BB00028003020D5690D2
:100CD8000031E0FC900031740C2CF0020D56EA4B08
:100CE800700E900031E0FC90003174D02CF0805EE2
:100CF800BA015BBB0058900031E0FC900031740DE4
:100D08002CF0804AEA4B700E900031E0FC900031E4
:100D180074E02CF08038BA0135BB0032900031E025
:100D2800FC900031740E2CF08024EA4B700E900079
:100D380031E0FC90003174F02CF08012BA010FBB46
:100D4800000C900031E0FC900031740F2CF00ABACE
:0D0D580000010B020A58900031E0F58222E4
:1027B2000A0D2D2D2D2D2D2D2D2D2D2D2D2D2D2D8A
:1027C2002D2D2D2D2D2D2D2D2D2D2D2D2D2D2D2D37
:1027D2002D2D2D2D2D2D2D2D2D2D2D2D2D2D2D2D27
:1027E2002D2D2D2D2D2D2D2D2D2D2D2D2D2D0A0D5A
:1027F200002D2D2D2D2D2D2D2D2D2D2D2D2D2D2D34
:102802002D2D2D2D2D2D2D2D2D2D2D2D2D2D2D2DF6
:102812002D2D2D2D2D2D2D2D2D2D2D2D2D2D2D2DE6
:102822002D2D2D2D2D2D2D2D2D2D2D2D2D0A0D0046
:102832002D2D2D2D2D2D2D2D2D2D2D2D2D2D2D4DA6
:10284200454D4F525920434152442052454144453F
:1028520052204150504C49434154494F4E2D2D2D49
:102862002D2D2D2D2D2D2D2D2D2D2D2D2D0A0D0006
:102872000A0D53656C65637420616E206F70746914
:102882006F6E3A0A0D0031202D204D656D6F727901
:10289200204361726420526561640A0D0032202D6A
:1028A20020536563746F722046696C6C202D204D35
:1028B200656D6F7279204361726420577269746525
:1028C2000A0D0033202D204865782044756D702054
:1028D2002D204D756C7469706C6520736563746F1F
:1028E2007220726561640A0D0034202D2046696CE5
:1028F2006520526561640A0D0035202D20436F70FA
:1029020079206461746120627974657320626574F0
:102912007765656E20736563746F72730A0D000AC2
:102922000D456E74657220736563746F72206E75E7
:102932006D6265722028342062797465732920746F
:102942006F20726561642066726F6D3A200A0D0015
:102952000A0D456E74657220736563746F72206E22
:10296200756D62657220746F20626520777269747A
:1029720074656E20746F206D656D6F72792063616E
:1029820072643A200A0D000A0D456E746572206465
:1029920061746120746F2062652077726974746556
:1029A2006E20746F206D656D6F7279206361726441
:1029B2003A200A0D000A0D57726974696E67204445
:1029C2006174612E2E2E2E000A0D577269746520D5
:1029D200636F6D706C6574652E2E2E2E000A0D4588
:1029E2006E74657220737461727420736563746FA0
:1029F2007220616464726573730A0D000A0D456E7C
:102A020074657220656E6420736563746F722061F1
:102A12006464726573730A0D000A0D456E74657203
:102A220020736F7572636520736563746F722061C2
:102A32006464726573733A0A0D000A0D456E74651B
:102A4200722064657374696E6174696F6E20736558
:102A520063746F7220616464726573733A0A0D0065
:102A62000A0D436F7079696E6720646174612E2E5E
:102A72002E3A0A0D000A0D53656C656374206120BD
:102A820066696C6520746F20726561642066726F7E
:102A92006D20534420436172643A0A0D0031202DA7
:102AA20020616E696B65742E7478740A0D00322091
:102AB2002D204C696E6B732E7478740A0D003320CE
:102AC2002D204E6F74657061642E7478740A0D0047
:102AD2004D6F6465206661756C740A0D004F7665F2
:102AE2007272756E207461736B696E670A0D000AEB
:102AF2000D506C6561736520656E74657220686542
:102B02007861646563696D616C20696E7075742E9D
:102B1200205370656369616C2063686172616374DC
:102B220065727320617265206E6F7420616C6C6FC8
:072B32007765642E0A0D0017
:100D6500900042E0FAA3E0FB7C007D00C3EC940216
:100D7500ED648094804001228C828D83C002C00383
:100D8500C004C005121000D005D004D003D002C0A5
:100D950002C003C004C0057439C0E0742BC0E01262
:100DA5001C4A15811581D005D004D003D0027E00E0
:100DB5007F00C3EE940BEF64809480505DC002C049
:100DC50003900036E0F8A3E0F9A3E0FAEE28F8EF87
:100DD50039F9888289838AF0122779F87A00C00266
:100DE500C003C004C005C006C007C000C0027447E8
:100DF500C0E0742BC0E07480C0E0121EDAE58124E7
:100E0500FBF581D007D006D005D004D003D0020E63
:100E1500BE00010FD003D0028098C002C003C004F9
:100E2500C005744AC0E0742BC0E0121C4A15811538
:100E350081D005D004D003D002C002C003C004C0D5
:100E450005744DC0E0742BC0E07480C0E0121EDA5A
:100E5500158115811581D005D004D003D0027E00FF
:100E65007F00C3EE9404EF648094805059C002C0A3
:100E750003900039E0F8A3E0F9A3E0FAEE28F8EFD3
:100E850039F9888289838AF0122779F87A00C002B5
:100E9500C003C004C005C006C007C000C002745A24
:100EA500C0E0742BC0E0121C4AE58124FCF581D01A
:100EB50007D006D005D004D003D0020EBE00010F26
:100EC500D003D002809CC002C003C004C005744A90
:100ED500C0E0742BC0E0121C4A15811581D005D0E5
:100EE50004D003D002900078E4F0A3746EF0A374EC
:100EF50004F0A3E4F0758233C002C003C004C0054A
:100F050012163DD005D004D003D0028A828B83C04F
:100F150002C003C004C005120F2FD005D004D003B2
:100F2500D0020CBC00010D020D71900044E4F0A349
:100F35007440F0A37404F0A3E4F0900048F0A374A7
:100F450080F0A37404F0A3E4F090004CF0A374C007
:100F5500F0A37404F0A3E4F0900050F0A3F0A374A0
:100F650005F0A3E4F0900054F0A37440F0A37405D9
:100F7500F0A3E4F0900058F0A37480F0A37405F09A
:100F8500A3E4F090004CE0FAA3E0FBA3E0FCA3E0AF
:100F9500FD8A828B838CF01213DF745DC0E0742BA5
:100FA500C0E07480C0E0121EDA1581158115817AC2
:100FB500007B00C3EA9432EB64809480503C90003F
:100FC5003CE0FCA3E0FDEA2CF582EB3DF583E0FC7B
:100FD5007D00C002C003C004C0057447C0E0742B87
:100FE500C0E07480C0E0121EDAE58124FBF581D0F3
:100FF50003D0020ABA00BC0B80B92290C00075F07C
:1010050003E41213DF7A007B00C3EA940BEB6480E0
:101015009480503E900036E0FCA3E0FDA3E0FEEA9C
:101025002CFCEB3DFD74202AF508E43BF509900006
:101035003CE0F9A3E0FFE50829F582E5093FF583E2
:10104500E0FF8C828D838EF0121C310ABA00BA0B38
:1010550080B77A007B00C3EA9404EB6480948050E7
:101065003E900039E0FCA3E0FDA3E0FEEA2CFCEB9A
:101075003DFD743B2AF508E43BF50990003CE0F999
:10108500A3E0FFE50829F582E5093FF583E0FF8C3C
:10109500828D838EF0121C310ABA00BA0B80B722FA
:1010A500AA82AB83ACF0FD900060EAF0A3EBF0A35D
:1010B500ECF0A3EDF0900060E0FAA3E0FBA3E0FC08
:1010C500A3E0FD8A828B838CF01213DF90005CE035
:1010D500FAA3E0FBA3E0FCA3E0FD8A828B838CF0FE
:1010E50002172743C3407A007B00C3EA9408EB64E8
:1010F500809480500F75C5FF10000280FB0ABA006E
:10110500E90B80E6C2947A007B00C3EA9402EB64A3
:10111500809480500F75C5FF10000280FB0ABA004D
:10112500E90B80E675C5FF10000280FBC29475C50A
:10113500FF10000280FB75C54010000280FB7A009D
:101145007B00C374039A74808BF063F08095F04044
:101155000F75C5000ABA00010B10000280FB80E282
:1011650075C59510000280FB75C5FF10000280FB58
:10117500900034E0FA900035F075C5FF100002804C
:10118500FB900035EAF0900035E0FA606775C541DF
:1011950010000280FB7A007B00C374039A74808B75
:1011A500F063F08095F0400F75C5000ABA00010B99
:1011B50010000280FB80E275C5FE10000280FB7501
:1011C500C5EF10000280FB75C5FE10000280FB9084
:1011D5000034E0FA900035F0EA3395E0FBC002C038
:1011E500037471C0E0742BC0E0121C4AE58124FC35
:1011F500F581809275C57A10000280FB7A007B002C
:10120500C374039A74808BF063F08095F0400F757A
:10121500C5000ABA00010B10000280FB80E275C50B
:10122500FF10000280FB7A007B00C3EA9403EB64A5
:10123500809480502575C5EF10000280FB90003426
:10124500E0FC900035F075C5FE10000280FB9000B3
:1012550035ECF00ABA00D30B80D075C54D100002ED
:1012650080FB7A007B00C374039A74808BF063F073
:101275008095F0400F75C5000ABA00010B100002F9
:1012850080FB80E275C5FF10000280FB75C5EF107D
:10129500000280FB900034E0FA900035F075C5FE41
:1012A50010000280FB900035EAF075C5EF100002D2
:1012B50080FB900035EAF090000022AA82AB83AC57
:1012C500F0FD900064EAF0A3EBF0A3ECF0A3EDF0E1
:1012D500900064E0FAA3E0FBA3E0FCA3E0FD90002E
:1012E50068EAF0A3EBF0A3ECF0A3EDF075C5FF10F1
:1012F500000280FB75C55110000280FB7A037B005C
:10130500EB20E719EA2468F582EB3400F583E0F574
:10131500C51ABAFF011B10000280FB80E375C5FFEB
:1013250010000280FB75C5FF10000280FB7A007B70
:1013350000C3EA9402EB64809480501775C5FF10D2
:10134500000280FB75C5FF10000280FB0ABA00E1B0
:101355000B80DE7A007B00C3EA9440EB64809481C5
:10136500504E75C5FF10000280FBACC57D00C00264
:10137500C003C004C0057481C0E0742BC0E0121C1A
:101385004AE58124FCF581D003D002ACC58C82C02E
:1013950002C003120393AC82D003D0028C82C00238
:1013A500C0031200AAD003D0020ABA00AA0B80A774
:1013B5007A007B00C3EA9402EB6480948050177531
:1013C500C5FF10000280FB75C5FF10000280FB0AF7
:1013D500BA00E10B80DE75820122AA82AB83ACF0F4
:1013E500FD90006CEAF0A3EBF0A3ECF0A3EDF09018
:1013F500006CE0FAA3E0FBA3E0FCA3E0FD90007421
:10140500EAF0A3EBF0A3ECF0A3EDF075C5FF100037
:101415000280FB75C55110000280FB7A037B00EB4F
:1014250020E719EA2474F582EB3400F583E0F5C56D
:101435001ABAFF011B10000280FB80E375C5FF107F
:10144500000280FB75C5FF10000280FB7A007B005F
:10145500C3EA9402EB64809480501775C5FF1000B1
:101465000280FB75C5FF10000280FB0ABA00E10B84
:1014750080DE900075E0FA7B001ABAFF011B900030
:1014850070EAF0A3EBF0900075E0FA900072F0A31B
:10149500E4F0900076E0900077E0900074E0FA7B4D
:1014A50000900075E0FC7D00900076E0FE7F0090E6
:1014B5000077E0F87900C002C003C004C005C0068B
:1014C500C007C000C001748CC0E0742BC0E07480FC
:1014D500C0E0121EDAE58124F5F581900072E0FA8C
:1014E500A3E0FB7C007D00C3ED6480948240030291
:1014F500161375C5FF10000280FBAEC5900005C030
:1015050002C003C004C005C006121B0CD006D005DE
:10151500D004D003D00290003CE0FFA3E0F8EC2F0C
:10152500F582ED38F583EEF0900070E0FEA3E0FF64
:1015350090007074012EF0E43FA3F0BC000FBD01D4
:101545000C0ABA00010B900070E4F0A3F09000AA19
:101555007410F0E4A3F08C828D83C002C003C00434
:10156500C005121D72E5828583F0D005D004D00335
:10157500D00245F07063BC0005BD0002805B75823A
:101585000AC002C003C004C005121BBDD005D004AB
:10159500D003D00275820DC002C003C004C005127D
:1015A5001BBDD005D004D003D002AEC57F00C0025C
:1015B500C003C004C005C006C00774A3C0E0742BF7
:1015C500C0E07480C0E0121EDAE58124FBF581D00D
:1015D50005D004D003D002802DAEC57F00C002C067
:1015E50003C004C005C006C00774A3C0E0742BC0C7
:1015F500E07480C0E0121EDAE58124FBF581D00598
:10160500D004D003D0020CBC00010D0214EC7A000A
:101615007B00C3EA9402EB64809480501775C5FF84
:1016250010000280FB75C5FF10000280FB0ABA009E
:10163500E10B80DE75820122E58290007CF090004E
:1016450078E0FAA3E0FBA3E0FCA3E0FD90007DEACF
:10165500F0A3EBF0A3ECF0A3EDF075C5FF100002CD
:1016650080FB75C55810000280FB7A037B00EB20D8
:10167500E719EA247DF582EB3400F583E0F5C51A18
:10168500BAFF011B10000280FB80E375C5FF100047
:101695000280FB7A007B00C3EA9403EB64809480AC
:1016A500500F75C5FE10000280FB0ABA00E90B80D9
:1016B500E690007CE0FA7B007C00C3EC64809482B9
:1016C500500E8AC510000280FB0BBB00ED0C80EAB2
:1016D50075C5FF10000280FB75C5FF10000280FB79
:1016E500AAC5C00274ACC0E0742BC0E0121C4A1538
:1016F500811581D002530201BA01DD75C5FF1000C5
:101705000280FB74B4C0E0742BC0E0121C4A158142
:101715001581E5C560E575C5FF10000280FB758282
:101725000122AA82AB83ACF0FD900081EAF0A3EB25
:10173500F0A3ECF0A3EDF0900081E0FAA3E0FBA3A9
:10174500E0FCA3E0FD900085EAF0A3EBF0A3ECF04C
:10175500A3EDF075C5FF10000280FB75C55810009C
:101765000280FB7A037B00EB20E719EA2485F582EA
:10177500EB3400F583E0F5C51ABAFF011B10000232
:1017850080FB80E375C5FF10000280FB7A007B00BB
:10179500C3EA9403EB64809480500F75C5FE100076
:1017A5000280FB0ABA00E90B80E67A007B00C3EBF6
:1017B50064809482501F90003CE0FCA3E0FDEA2C7D
:1017C500F582EB3DF583E0F5C510000280FB0ABA12
:1017D50000DC0B80D975C5FF10000280FB75C5FFC5
:1017E50010000280FBAAC5C00274ACC0E0742BC017
:1017F500E0121C4A15811581D002530201BA01DDA0
:1018050075C5FF10000280FB74B4C0E0742BC0E006
:10181500121C4A15811581E5C560E575C5FF1000E7
:101825000280FB75820122AA82AB83ACF0FD900099
:101835008DEAF0A3EBF0A3ECF0A3EDF090008DE0C2
:10184500FAA3E0FBA3E0FCA3E0FD900093EAF0A37C
:10185500EBF0A3ECF0A3EDF0900089E0FEA3E0FF30
:10186500A3E0F8A3E0F9900097EEF0A3EFF0A3E86A
:10187500F0A3E9F0EEC39AF50AEF9BF50BE89CF5AA
:101885000CE99DF50D75C55010000280FB90009187
:10189500E4F0A3F0900091E0FEA3E0FFC374039E83
:1018A50074808FF063F08095F04030BE0218BF0061
:1018B5001575C50290009174012EF0E43FA3F01058
:1018C500000280FB80CE75C50090009174012EF05A
:1018D500E43FA3F010000280FB80B975C5FF10003E
:1018E5000280FB75C5EF10000280FB75C5FE100078
:1018F5000280FB75C5FF10000280FB75C552100004
:101905000280FB7E037F00EF20E719EE2493F5822A
:10191500EF3400F583E0F5C51EBEFF011F10000280
:1019250080FB80E375C5FF10000280FB75C5FF10C5
:10193500000280FB7E007F00C3EE9402EF6480947A
:1019450080501775C5FF10000280FB75C5FF10009C
:101955000280FB0EBE00E10F80DE900095E0900056
:1019650096E0900093E0FE7F00900094E0F8790007
:10197500900095E0FA7B00900096E0FC7D00C006A3
:10198500C007C000C001C002C003C004C005748CFC
:10199500C0E0742BC0E07480C0E0121EDAE581243B
:1019A500F5F5817E007F008E00EFF93395E0FAFBB7
:1019B500C3E8950AE9950BEA950CEB950D400302F2
:1019C5001A8E75C5FF10000280FBAAC5900005C0E0
:1019D50002C006C007121B0CD007D006D00290002B
:1019E5003CE0FBA3E0FCEE2BF582EF3CF583EAF04F
:1019F5009000AA7410F0E4A3F08E828F83C006C015
:101A050007121D72E5828583F0D007D00645F07078
:101A15004BBE0005BF0002804375820AC006C007A1
:101A2500121BBDD007D00675820DC006C007121B5C
:101A3500BDD007D006AAC57B00C006C007C002C03E
:101A45000374A3C0E0742BC0E07480C0E0121EDAFA
:101A5500E58124FBF581D007D0068025AAC57B004A
:101A6500C006C007C002C00374A3C0E0742BC0E069
:101A75007480C0E0121EDAE58124FBF581D007D021
:101A8500060EBE00010F0219AC121ABB7A007B00CC
:101A9500C3EA9402EB64809480501775C5FF10006B
:101AA5000280FB75C5FF10000280FB0ABA00E10B3E
:101AB50080DE7582012275C54C10000280FB7A001C
:101AC5007B00C374039A74808BF063F08095F040BB
:101AD5000F75C5000ABA00010B10000280FB80E2F9
:101AE50075C5FF10000280FB75C5EF10000280FB75
:101AF500900034E0FA900035F075C5FE10000280C4
:101B0500FB900035EAF022AA83E58290009BF0A3C2
:101B1500EAF090009BE0FAA3E0FB7C007D00C3ECBB
:101B25009AED9B50147E647F001EBEFF011FEE4F91
:0A1B350070F70CBC00E80D80E522FB
:102B39000A0D46696C65204E616D653A2000256372
:102B4900000A0D000A0D46696C652053697A653AD9
:102B5900002578000A0D4461746120726563656916
:102B69007665643A200A0D00646174615F73617669
:102B7900653A2025780A0D00446174613A20257868
:102B89000A0D000A0D253032782530327825303289
:102B990078253032783A200A0D003078253032789D
:102BA90020200030784646300A0D003078464631FC
:032BB9000A0D0002
:101B3F00759850438920758DFDD28ED29922AAF0C7
:101B4F00AB83E58290009DF0A3EBF0A3EAF0900049
:101B5F009DE0FAA3E0FBA3E0FC7D007E008A828B70
:101B6F00838CF0122779FF60300ABA00010B9000C6
:101B7F009DEAF0A3EBF0A3ECF08F82C002C003C08C
:101B8F0004C005C006121BBDD006D005D004D0037B
:101B9F00D0020DBD00C70E80C490009DEAF0A3EBEC
:101BAF00F0A3ECF00DBD00010E8D828E8322E58235
:101BBF009000A0F03099FD9000A0E0F599C2992215
:0A1BCF0010980280FBAA998A822276
:06007D00E478FFF6D8FD57
:101BD900AAF0AB83E5829000A4F0A3EBF0A3EAF0AE
:101BE9009000A4E0FAA3E0FBA3E0FC9000A1E0FDD3
:101BF9009000A2E0FEA3E0FF8E008F011EBEFF0150
:101C09001FE84960118A828B838CF0ED121C31A385
:101C1900AA82AB8380E29000A4E0FAA3E0FBA3E0F0
:081C2900FC8A828B838CF022FF
:10005B007900E94400601B7A00902BC778E175A00A
:10006B0000E493F2A308B8000205A0D9F4DAF27504
:02007B00A0FFE4
:101C310020F71030F6118883A88220F507F6A883D3
:101C410075830022F280F7F022C00E85810EE50E29
:101C510024FDF8868318868218E493A324DB600CA4
:101C610024256005121D3780F0021D4FD2D5E49363
:101C7100A3C083C082B4731486F018868318868249
:101C8100181227796053A3121D3780F5B46307E654
:101C910018121D378043B46417E630E74618E6F49E
:101CA1002401F608E6F43400F6742D121D37803352
:101CB100B4782D868318868218E4121D28E58312D4
:101CC1001D27E583121D28E582121D27E582121DBD
:101CD1002830D5057430121D37D082D083021C5AAA
:101CE100B475F6E6FA18E6F9187C107D27121D1274
:101CF100FF7CE87D03121D12C4F5837C647D001214
:101D01001D124283E975F00A84C445F0F582EF8023
:101D1100A97B000BC3E99CF9EA9DFA50F61BE92C5B
:101D2100F9EA3DFAEB22C4540F700320D51FC2D546
:101D31002490D43440D4C083C082C0F0F582E8C07E
:101D4100E0121BBDD0E0F8D0F0D082D08322D00EBB
:101D510022AA83AB828BF09000A8E0A4F8A9F08AB4
:101D6100F0E0A429F98BF0A3E0A429F5838882226D
:101D710022AA83E5829000ACF0A3EAF09000ACE0E7
:101D8100FAA3E0FB30E709C3E49AFCE49BFD80047D
:101D91008A048B058C028D039000AAE0FCA3E0FD70
:101DA10030E709C3E49CFEE49DFF80048C068D07A7
:101DB1009000AEEEF0A3EFF08A828B83121DE0AAB1
:101DC10082AB839000ACE0FCA3E0FD30E70CC3E400
:101DD1009AFCE49BFD8C828D83228A828B8322AACA
:101DE10083E5829000B0F0A3EAF09000B2E4F090B5
:101DF10000B0E0FAA3E0FB7C009000AEE0FDA3E0C0
:101E0100FE235401FF7037EECD25E0CD33FE900067
:101E1100AEEDF0A3EEF09000AEE0FDA3E0FEC3EA6C
:101E21009DEB9E5011EEC313CD13CDFE9000AEED90
:101E3100F0A3EEF080080C9000B2ECF080BB9000B3
:101E4100B2E0FA9000B0E0FBA3E0FC9000AEE0FD50
:101E5100A3E0FEC3EB9DEC9E400B9000B0EBC39D55
:101E6100F0EC9EA3F09000AEE0FBA3E0FCC313CB2B
:101E710013CBFC9000AEEBF0A3ECF08A031AEB70ED
:0D1E8100C29000B0E0FAA3E08A82F583224F
:100083007800E84400600A790075A000E4F309D819
:10009300FC78E1E84400600C7901900000E4F0A3EF
:0400A300D8FCD9FAB2
:101E8E00C00E85810EAA82121BBDD00E22AAF0AB07
:101E9E0083E5829000B4F0A3EBF0A3EAF09000B4D7
:101EAE00E0FAA3E0FBA3E0FC9000B3E0FD9000C7D6
:101EBE00E4F0A3F0A3F09000CAEAF0A3EBF0A3ECD9
:101ECE00F09000CDEDF0901E8E021FF3C00E8581B6
:101EDE000EE50E24FBFA9000C7E4F0A3F0A3F0E5A4
:101EEE000E24FBF89000CAE6F008A3E6F008A3E67D
:101EFE00F09000CDEAF0901E8E121FF3AA82AB83F3
:101F0E00D00E22E5829000C3F09000C3E0FA90005C
:101F1E00B9E0C0E0A3E0C0E0A3E0C0E0743FC0E0E1
:101F2E00741FC0E09000B7E0C0E0A3E0C0E08A827A
:101F3E00221581158115819000C1E0FAA3E0FB9076
:101F4E0000C174012AF0E43BA3F022E5829000C4A4
:101F5E00F09000C4E0FA74302AFA24C6500A7407CE
:101F6E002AFA3001034302208A82021F11E5829071
:101F7E0000C5F09000C5E0FAC4540FFBF582C00214
:101F8E00121F59D00253020F8A82021F59E5829006
:101F9E0000C6F09000BCE0FAA3E0FBA3E0FCA3E0D7
:101FAE00FD9000C0E0FE9000C6E0FF7820EE2EFE11
:101FBE00ED235401F94206EA2AFAEB33FBEC33FC2B
:101FCE00ED33FDC3EE9F4007EEC39FFE430201D8E3
:101FDE00DC9000BCEAF0A3EBF0A3ECF0A3EDF090E4
:101FEE0000C0EEF022AA83E5829000CEF0A3EAF0C4
:101FFE009000CEE0FAA3E0FB9000B7EAF0A3EBF07E
:10200E009000C7E0FAA3E0FBA3E0FC9000B9EAF071
:10201E00A3EBF0A3ECF09000C1E4F0A3F09000CAA3
:10202E00E0FAA3E0FBA3E0FC8A828B838CF01227FC
:10203E0079FD9000CA74012AF0E43BA3F0A3ECF002
:10204E00ED700302271ABD25028003022712C20279
:10205E00C203C204C205C206C207C208C20990006A
:10206E00D0E4F09000D1F09000D274FFF09000CA4E
:10207E00E0FAA3E0FBA3E0FC8A828B838CF01227AC
:10208E0079FEA3AA82AB839000CAEAF0A3EBF0A379
:10209E00ECF09000D4EEF0BE25088E82121F1102D5
:1020AE00202B8E07BF300040498E07EF24C64042DA
:1020BE009000D2E0FFBFFF29C002C003C004900011
:1020CE00D1E0FA75F00AA4FAEE24D09000D12AF0ED
:1020DE009000D1E0FAD004D003D002709BD20380DE
:1020EE0097EF75F00AA4FFEE24D09000D22FF002E5
:1020FE0020869000D4E0FEBE2E089000D2E4F002BE
:10210E0020868E82C002C003C004C006122795E549
:10211E008224FF9201D006D004D003D002300107F2
:10212E009000D474DF5EF09000D4E0FEBE200280FA
:10213E0055BE2B02804BBE2D028041BE4202804B0B
:10214E00BE43028050BE4403022387BE46030223D1
:10215E00A9BE4903022387BE4C028034BE4F030240
:10216E002391BE50030222E9BE53028042BE5503A4
:10217E00022399BE58030223A10223ADD2020220EC
:10218E0086D204022086D205022086D2070220863D
:10219E00D2080220869000CDE0FA24FEF89000CD01
:1021AE00F08602088603188A82121F110223B99044
:1021BE0000CDE0FA24FDF89000CDF08602088603EB
:1021CE0008860418189000BCEAF0A3EBF0A3ECF01C
:1021DE009000BCE0FAA3E0FBA3E0FC8A828B838C28
:1021EE00F0122726AA82AB839000D2E0FBBBFF053C
:1021FE009000D2EAF02002389000D1E0FBC3EA9BB7
:10220E00502E9000D1EBC39AF09000D1E0FB8B04DE
:10221E001B9000D1EBF0BC00028010758220C00232
:10222E00C003121F11D003D00280E39000D1EBF057
:10223E009000D2E0FDC0029000BCE0FCA3E0FFA342
:10224E00E0FA8C828F838AF0122779D00260538D48
:10225E00041DC374808CF063F08095F05044C0026E
:10226E009000BCE0F50FA3E0F510A3E0F5117401AA
:10227E00250FFBE43510FAAC119000BCEBF0A3EA8D
:10228E00F0A3ECF0850F828510838511F01227796B
:10229E00FAF582C002C005121F11D005D002D0027D
:1022AE0080932002030223B99000D1E0FBC3EA9B86
:1022BE0040030223B99000D1EBC39AF09000D1E015
:1022CE00FA8A031A9000D1EAF0BB00030223B47518
:1022DE008220C002121F11D00280E69000CDE0FBDA
:1022EE0024FDF89000CDF0860308860408860718B2
:1022FE00189000BCEBF0A3ECF0A3EFF09000BEE062
:10230E00FB247F50089000D47443F08020EB249F70
:10231E0050089000D47450F08013EB24BF500890F6
:10232E0000D47449F080069000D47458F09000D414
:10233E00E0FBF582C003121F11D00375823AC00371
:10234E00121F11D003758230C003121F11D00375F6
:10235E008278C003121F11D003BB4902800FBB50FD
:10236E0002800A9000BDE0FBF582121F7B9000BC3C
:10237E00E0FBF582121F7B8032D2069000D0740AE9
:10238E00F080289000D07408F080209000D0740A5D
:10239E00F080189000D07410F08010D209800C8E4E
:1023AE0082121F1180059000D1EAF030096B900067
:1023BE00CDE0FA24FCF89000CDF0860208860308E2
:1023CE0086040886061818189000BCEAF0A3EBF0F5
:1023DE00A3ECF0A3EEF09000BC74BCF0A3742BF051
:1023EE00A37480F09000BCE0FBA3E0FCA3E0FD74BE
:1023FE00012BFEE43CFF8D029000BCEEF0A3EFF04B
:10240E00A3EAF08B828C838DF0122779FA70030287
:10241E00202B8A82121F1180CB9000D0E0FABA00D6
:10242E000302202B9000DB74DAF0A37400F0300767
:10243E004C9000CDE0FA14F89000CDF08602EA330D
:10244E0095E0FBFCFE9000BCEAF0A3EBF0A3ECF0F1
:10245E00A3EEF03006030225019000BCE0FAA3E0E3
:10246E00FBA3E0FCA3E0FE7B007C007E009000BCA2
:10247E00EAF0A3EBF0A3ECF0A3EEF0807630082A9E
:10248E009000CDE0FA24FCF89000CDF0860208868C
:10249E00030886040886061818189000BCEAF0A3F4
:1024AE00EBF0A3ECF0A3EEF080499000CDE0FA241F
:1024BE00FEF89000CDF0860208860318EB3395E007
:1024CE00FCFE9000BCEAF0A3EBF0A3ECF0A3EEF060
:1024DE002006209000BCE0FAA3E0FBA3E0FCA3E002
:1024EE00FE7C007E009000BCEAF0A3EBF0A3ECF0C3
:1024FE00A3EEF030063E9000BCE0FAA3E0FBA3E0B2
:10250E00FCA3E0FE30E72B9000BCE0FAA3E0FBA3B7
:10251E00E0FCA3E0FEC3E49AFAE49BFBE49CFCE43B
:10252E009EFE9000BCEAF0A3EBF0A3ECF0A3EEF05D
:10253E008002C206D20A9000D0E0FC7512DA751342
:10254E00007D009000C0E4F08C82C004C005121F14
:10255E009BD005D004200A32C0049000C0E0FFC416
:10256E00FF851282851383E0FA4207851282851356
:10257E0083EFF0151274FFB5120215139000DBE510
:10258E0012F0A3E513F0D004800C9000C0E0FF859C
:10259E001282851383F00D9000D3EDF0B20A9000F5
:1025AE00BCE0FFA3E0FAA3E0FEA3E0FBEF4A4E4B34
:1025BE0070919000DBE512F0A3E513F09000D3EDDF
:1025CE00F09000D1E0FA70069000D17401F0200373
:1025DE002720022474012DFA9000D1E0FBC3EA9B60
:1025EE005011758220C002C003121F11D003D002F9
:1025FE001B80EA9000D1EBF030061275822D121F6F
:10260E00119000D1E0FA149000D1F0802F9000D3F9
:10261E00E0FA602830041275822B121F119000D13F
:10262E00E0FA149000D1F08013300510758220125C
:10263E001F119000D1E0FA149000D1F020022F90DB
:10264E0000D3E0FA9000D1E0FB8B041B9000D1EB9D
:10265E00F0C3EA9C50363003047C3080027C208C20
:10266E0082C002C003121F11D003D00280DB900083
:10267E00D1E0FA9000D3E0FCC39A50099000D1EA61
:10268E00C39CF0800C9000D1E4F080059000D1EB5B
:10269E00F09000DBE0FAA3E0FB9000D3E0FC8C06A8
:1026AE001CEE6040B20A200A150ABA00010B8A829B
:1026BE008B83E0FEC4540FFE9000C0F0800E8A8221
:1026CE008B83E0FE53060F9000C0EEF09000C0E04A
:1026DE00FEF582C002C003C004121F59D004D003FD
:1026EE00D00280BA20020302202B9000D1E0FA8A99
:1026FE00031AEB700302202B758220C002121F11E9
:10270E00D00280EB8D82121F1102202B9000C1E0AF
:08271E00FAA3E08A82F5832290
:0B2BBC003C4E4F20464C4F41543E0061
:10272600AAF0AB83E5829000DDF0A3EBF0A3EAF01C
:102736007A007B009000DDE0FCA3E0FDA3E0FE8CC8
:10274600828D838EF0122779FFA3AC82AD83900031
:10275600DDECF0A3EDF0A3EEF0EF60070ABA00DFC0
:102766000B80DC9000DDECF0A3EDF0A3EEF08A82A6
:032776008B832230
:0D004E0075812112044DE582600302044813
:1027790020F71430F6148883A88220F507E6A88389
:1027890075830022E280F7E49322E022E58290003B
:10279900E0F09000E0E0FABA61004009EA248540DF
:0927A900047582012275820022F0
:00000001FF
